{
  "_format": "hh-sol-artifact-1",
  "contractName": "BeneficiaryWallet",
  "sourceName": "contracts/BeneficiaryWallet.sol",
  "abi": [
    {
      "inputs": [
        {
          "internalType": "address",
          "name": "_beneficiary",
          "type": "address"
        },
        {
          "internalType": "address",
          "name": "_reliefToken",
          "type": "address"
        },
        {
          "internalType": "address",
          "name": "_campaign",
          "type": "address"
        },
        {
          "internalType": "address",
          "name": "_organizer",
          "type": "address"
        }
      ],
      "stateMutability": "nonpayable",
      "type": "constructor"
    },
    {
      "inputs": [],
      "name": "EnforcedPause",
      "type": "error"
    },
    {
      "inputs": [],
      "name": "ExpectedPause",
      "type": "error"
    },
    {
      "inputs": [],
      "name": "ReentrancyGuardReentrantCall",
      "type": "error"
    },
    {
      "anonymous": false,
      "inputs": [
        {
          "indexed": false,
          "internalType": "enum BeneficiaryWallet.SpendingCategory",
          "name": "category",
          "type": "uint8"
        },
        {
          "indexed": false,
          "internalType": "uint256",
          "name": "newLimit",
          "type": "uint256"
        },
        {
          "indexed": false,
          "internalType": "uint256",
          "name": "timestamp",
          "type": "uint256"
        }
      ],
      "name": "CategoryLimitUpdated",
      "type": "event"
    },
    {
      "anonymous": false,
      "inputs": [
        {
          "indexed": true,
          "internalType": "address",
          "name": "from",
          "type": "address"
        },
        {
          "indexed": false,
          "internalType": "uint256",
          "name": "amount",
          "type": "uint256"
        },
        {
          "indexed": false,
          "internalType": "uint256",
          "name": "timestamp",
          "type": "uint256"
        }
      ],
      "name": "FundsReceived",
      "type": "event"
    },
    {
      "anonymous": false,
      "inputs": [
        {
          "indexed": true,
          "internalType": "address",
          "name": "merchant",
          "type": "address"
        },
        {
          "indexed": false,
          "internalType": "enum BeneficiaryWallet.SpendingCategory",
          "name": "category",
          "type": "uint8"
        },
        {
          "indexed": false,
          "internalType": "uint256",
          "name": "timestamp",
          "type": "uint256"
        }
      ],
      "name": "MerchantApproved",
      "type": "event"
    },
    {
      "anonymous": false,
      "inputs": [
        {
          "indexed": true,
          "internalType": "address",
          "name": "merchant",
          "type": "address"
        },
        {
          "indexed": false,
          "internalType": "enum BeneficiaryWallet.SpendingCategory",
          "name": "category",
          "type": "uint8"
        },
        {
          "indexed": false,
          "internalType": "uint256",
          "name": "timestamp",
          "type": "uint256"
        }
      ],
      "name": "MerchantRevoked",
      "type": "event"
    },
    {
      "anonymous": false,
      "inputs": [
        {
          "indexed": false,
          "internalType": "address",
          "name": "account",
          "type": "address"
        }
      ],
      "name": "Paused",
      "type": "event"
    },
    {
      "anonymous": false,
      "inputs": [
        {
          "indexed": true,
          "internalType": "address",
          "name": "merchant",
          "type": "address"
        },
        {
          "indexed": false,
          "internalType": "uint256",
          "name": "amount",
          "type": "uint256"
        },
        {
          "indexed": false,
          "internalType": "enum BeneficiaryWallet.SpendingCategory",
          "name": "category",
          "type": "uint8"
        },
        {
          "indexed": false,
          "internalType": "string",
          "name": "description",
          "type": "string"
        },
        {
          "indexed": false,
          "internalType": "uint256",
          "name": "timestamp",
          "type": "uint256"
        }
      ],
      "name": "Spent",
      "type": "event"
    },
    {
      "anonymous": false,
      "inputs": [
        {
          "indexed": false,
          "internalType": "address",
          "name": "account",
          "type": "address"
        }
      ],
      "name": "Unpaused",
      "type": "event"
    },
    {
      "inputs": [
        {
          "internalType": "address",
          "name": "merchant",
          "type": "address"
        },
        {
          "internalType": "enum BeneficiaryWallet.SpendingCategory",
          "name": "category",
          "type": "uint8"
        }
      ],
      "name": "approveMerchant",
      "outputs": [],
      "stateMutability": "nonpayable",
      "type": "function"
    },
    {
      "inputs": [
        {
          "internalType": "address",
          "name": "",
          "type": "address"
        },
        {
          "internalType": "enum BeneficiaryWallet.SpendingCategory",
          "name": "",
          "type": "uint8"
        }
      ],
      "name": "approvedMerchants",
      "outputs": [
        {
          "internalType": "bool",
          "name": "",
          "type": "bool"
        }
      ],
      "stateMutability": "view",
      "type": "function"
    },
    {
      "inputs": [],
      "name": "beneficiary",
      "outputs": [
        {
          "internalType": "address",
          "name": "",
          "type": "address"
        }
      ],
      "stateMutability": "view",
      "type": "function"
    },
    {
      "inputs": [],
      "name": "campaign",
      "outputs": [
        {
          "internalType": "address",
          "name": "",
          "type": "address"
        }
      ],
      "stateMutability": "view",
      "type": "function"
    },
    {
      "inputs": [
        {
          "internalType": "enum BeneficiaryWallet.SpendingCategory",
          "name": "",
          "type": "uint8"
        }
      ],
      "name": "categoryLimits",
      "outputs": [
        {
          "internalType": "uint256",
          "name": "",
          "type": "uint256"
        }
      ],
      "stateMutability": "view",
      "type": "function"
    },
    {
      "inputs": [
        {
          "internalType": "enum BeneficiaryWallet.SpendingCategory",
          "name": "",
          "type": "uint8"
        }
      ],
      "name": "categorySpent",
      "outputs": [
        {
          "internalType": "uint256",
          "name": "",
          "type": "uint256"
        }
      ],
      "stateMutability": "view",
      "type": "function"
    },
    {
      "inputs": [],
      "name": "getApprovedMerchants",
      "outputs": [
        {
          "internalType": "address[]",
          "name": "",
          "type": "address[]"
        }
      ],
      "stateMutability": "view",
      "type": "function"
    },
    {
      "inputs": [],
      "name": "getBalance",
      "outputs": [
        {
          "internalType": "uint256",
          "name": "",
          "type": "uint256"
        }
      ],
      "stateMutability": "view",
      "type": "function"
    },
    {
      "inputs": [
        {
          "internalType": "enum BeneficiaryWallet.SpendingCategory",
          "name": "category",
          "type": "uint8"
        }
      ],
      "name": "getRemainingInCategory",
      "outputs": [
        {
          "internalType": "uint256",
          "name": "",
          "type": "uint256"
        }
      ],
      "stateMutability": "view",
      "type": "function"
    },
    {
      "inputs": [],
      "name": "getSpendingHistoryCount",
      "outputs": [
        {
          "internalType": "uint256",
          "name": "",
          "type": "uint256"
        }
      ],
      "stateMutability": "view",
      "type": "function"
    },
    {
      "inputs": [
        {
          "internalType": "address",
          "name": "merchant",
          "type": "address"
        },
        {
          "internalType": "enum BeneficiaryWallet.SpendingCategory",
          "name": "category",
          "type": "uint8"
        }
      ],
      "name": "isMerchantApproved",
      "outputs": [
        {
          "internalType": "bool",
          "name": "",
          "type": "bool"
        }
      ],
      "stateMutability": "view",
      "type": "function"
    },
    {
      "inputs": [
        {
          "internalType": "uint256",
          "name": "",
          "type": "uint256"
        }
      ],
      "name": "merchants",
      "outputs": [
        {
          "internalType": "address",
          "name": "",
          "type": "address"
        }
      ],
      "stateMutability": "view",
      "type": "function"
    },
    {
      "inputs": [
        {
          "internalType": "uint256",
          "name": "amount",
          "type": "uint256"
        }
      ],
      "name": "notifyFundsReceived",
      "outputs": [],
      "stateMutability": "nonpayable",
      "type": "function"
    },
    {
      "inputs": [],
      "name": "organizer",
      "outputs": [
        {
          "internalType": "address",
          "name": "",
          "type": "address"
        }
      ],
      "stateMutability": "view",
      "type": "function"
    },
    {
      "inputs": [],
      "name": "pause",
      "outputs": [],
      "stateMutability": "nonpayable",
      "type": "function"
    },
    {
      "inputs": [],
      "name": "paused",
      "outputs": [
        {
          "internalType": "bool",
          "name": "",
          "type": "bool"
        }
      ],
      "stateMutability": "view",
      "type": "function"
    },
    {
      "inputs": [],
      "name": "reliefToken",
      "outputs": [
        {
          "internalType": "contract IERC20",
          "name": "",
          "type": "address"
        }
      ],
      "stateMutability": "view",
      "type": "function"
    },
    {
      "inputs": [
        {
          "internalType": "address",
          "name": "merchant",
          "type": "address"
        },
        {
          "internalType": "enum BeneficiaryWallet.SpendingCategory",
          "name": "category",
          "type": "uint8"
        }
      ],
      "name": "revokeMerchant",
      "outputs": [],
      "stateMutability": "nonpayable",
      "type": "function"
    },
    {
      "inputs": [
        {
          "internalType": "enum BeneficiaryWallet.SpendingCategory",
          "name": "category",
          "type": "uint8"
        },
        {
          "internalType": "uint256",
          "name": "newLimit",
          "type": "uint256"
        }
      ],
      "name": "setCategoryLimit",
      "outputs": [],
      "stateMutability": "nonpayable",
      "type": "function"
    },
    {
      "inputs": [
        {
          "internalType": "address",
          "name": "merchant",
          "type": "address"
        },
        {
          "internalType": "uint256",
          "name": "amount",
          "type": "uint256"
        },
        {
          "internalType": "enum BeneficiaryWallet.SpendingCategory",
          "name": "category",
          "type": "uint8"
        },
        {
          "internalType": "string",
          "name": "description",
          "type": "string"
        }
      ],
      "name": "spend",
      "outputs": [],
      "stateMutability": "nonpayable",
      "type": "function"
    },
    {
      "inputs": [
        {
          "internalType": "uint256",
          "name": "",
          "type": "uint256"
        }
      ],
      "name": "spendingHistory",
      "outputs": [
        {
          "internalType": "address",
          "name": "merchant",
          "type": "address"
        },
        {
          "internalType": "uint256",
          "name": "amount",
          "type": "uint256"
        },
        {
          "internalType": "enum BeneficiaryWallet.SpendingCategory",
          "name": "category",
          "type": "uint8"
        },
        {
          "internalType": "string",
          "name": "description",
          "type": "string"
        },
        {
          "internalType": "uint256",
          "name": "timestamp",
          "type": "uint256"
        }
      ],
      "stateMutability": "view",
      "type": "function"
    },
    {
      "inputs": [],
      "name": "totalSpent",
      "outputs": [
        {
          "internalType": "uint256",
          "name": "",
          "type": "uint256"
        }
      ],
      "stateMutability": "view",
      "type": "function"
    },
    {
      "inputs": [],
      "name": "unpause",
      "outputs": [],
      "stateMutability": "nonpayable",
      "type": "function"
    }
  ],
  "bytecode": "0x60806040523480156200001157600080fd5b5060405162001c7338038062001c7383398101604081905262000034916200032d565b60016000819055805460ff191690556001600160a01b038416620000ae5760405162461bcd60e51b815260206004820152602660248201527f42656e656669636961727957616c6c65743a20496e76616c69642062656e656660448201526569636961727960d01b60648201526084015b60405180910390fd5b6001600160a01b038316620001065760405162461bcd60e51b815260206004820181905260248201527f42656e656669636961727957616c6c65743a20496e76616c696420746f6b656e6044820152606401620000a5565b6001600160a01b0382166200016a5760405162461bcd60e51b815260206004820152602360248201527f42656e656669636961727957616c6c65743a20496e76616c69642063616d706160448201526234b3b760e91b6064820152608401620000a5565b6001600160a01b038116620001ce5760405162461bcd60e51b8152602060048201526024808201527f42656e656669636961727957616c6c65743a20496e76616c6964206f7267616e60448201526334bd32b960e11b6064820152608401620000a5565b600180546001600160a01b0395861661010002610100600160a81b0319909116179055600280549385166001600160a01b03199485161790556003805492851692841692909217909155600480549190931691161781556006602052683635c9adc5dea000007f54cdd369e4e8a8515e52ca72ec816c2101831ad1f18bf44102ed171459c9b4f855686c6b935b8bbd4000007f3e5fec24aa4dc4e5aee2e025e51e1392c72a2500577559fae9665c6d52bd6a315569010f0cf064dd592000007f8819ef417987f8ae7a81f42cdfb18815282fe989326fbff903d13cf0e03ace2955685150ae84a8cdf000007f75f96ab15d697e93042dc45b5c896c4b27e89bb6eaf39475c5c371cb2513f7d255600052681b1ae4d6e2ef5000007fc5069e24aaadb2addc3e52e868fcf3f4f8acf5a87e24300992fd4540c2a87eed556200038a565b80516001600160a01b03811681146200032857600080fd5b919050565b600080600080608085870312156200034457600080fd5b6200034f8562000310565b93506200035f6020860162000310565b92506200036f6040860162000310565b91506200037f6060860162000310565b905092959194509250565b6118d9806200039a6000396000f3fe608060405234801561001057600080fd5b506004361061014d5760003560e01c80635c975abb116100c357806392c8823b1161007c57806392c8823b146102ed5780639b5ceb3514610300578063a5edd59814610313578063b5b00f9d14610326578063eb81f82c1461033b578063fb346eab1461034e57600080fd5b80635c975abb1461029957806361203265146102a45780636a5178ec146102b7578063811e539c146102ca5780638456cb59146102dd5780638e3ea405146102e557600080fd5b806338af3eed1161011557806338af3eed146102135780633e934ee2146102435780633f4ba83a146102565780635024f38114610260578063524c62361461027357806358fe9a6c1461028657600080fd5b806307d062801461015257806312065fe01461017f57806314f9a34e146101955780631bb3d37e146101d357806333cd4280146101f3575b600080fd5b6101656101603660046112f7565b610357565b60405161017695949392919061138e565b60405180910390f35b610187610433565b604051908152602001610176565b6101c36101a3366004611401565b600860209081526000928352604080842090915290825290205460ff1681565b6040519015158152602001610176565b6101876101e1366004611434565b60066020526000908152604090205481565b610187610201366004611434565b60076020526000908152604090205481565b60015461022b9061010090046001600160a01b031681565b6040516001600160a01b039091168152602001610176565b610187610251366004611434565b6104a5565b61025e61059c565b005b60025461022b906001600160a01b031681565b61025e610281366004611401565b6105d9565b6101c3610294366004611401565b61082d565b60015460ff166101c3565b60045461022b906001600160a01b031681565b61025e6102c536600461146c565b610884565b60035461022b906001600160a01b031681565b61025e610e1a565b600554610187565b61022b6102fb3660046112f7565b610e4c565b61025e61030e3660046112f7565b610e76565b61025e610321366004611401565b610f0d565b61032e61108c565b6040516101769190611548565b61025e610349366004611595565b6110ee565b610187600a5481565b6005818154811061036757600080fd5b600091825260209091206005909102018054600182015460028301546003840180546001600160a01b039094169550919360ff909116929091906103aa906115bf565b80601f01602080910402602001604051908101604052809291908181526020018280546103d6906115bf565b80156104235780601f106103f857610100808354040283529160200191610423565b820191906000526020600020905b81548152906001019060200180831161040657829003601f168201915b5050505050908060040154905085565b6002546040516370a0823160e01b81523060048201526000916001600160a01b0316906370a0823190602401602060405180830381865afa15801561047c573d6000803e3d6000fd5b505050506040513d601f19601f820116820180604052508101906104a091906115f9565b905090565b6000600660008360048111156104bd576104bd611310565b60048111156104ce576104ce611310565b815260200190815260200160002054600760008460048111156104f3576104f3611310565b600481111561050457610504611310565b8152602001908152602001600020541061052057506000919050565b6007600083600481111561053657610536611310565b600481111561054757610547611310565b8152602001908152602001600020546006600084600481111561056c5761056c611310565b600481111561057d5761057d611310565b8152602001908152602001600020546105969190611628565b92915050565b6004546001600160a01b031633146105cf5760405162461bcd60e51b81526004016105c69061163b565b60405180910390fd5b6105d76111f9565b565b6004546001600160a01b031633146106035760405162461bcd60e51b81526004016105c69061163b565b6001600160a01b0382166106295760405162461bcd60e51b81526004016105c69061167c565b6001600160a01b03821660009081526008602052604081209082600481111561065457610654611310565b600481111561066557610665611310565b815260208101919091526040016000205460ff16156106d25760405162461bcd60e51b815260206004820152602360248201527f42656e656669636961727957616c6c65743a20416c726561647920617070726f6044820152621d995960ea1b60648201526084016105c6565b6001600160a01b03821660009081526008602052604081206001918360048111156106ff576106ff611310565b600481111561071057610710611310565b815260208101919091526040016000908120805460ff1916921515929092179091556001905b60095481101561079257836001600160a01b03166009828154811061075d5761075d6116bf565b6000918252602090912001546001600160a01b0316036107805760009150610792565b8061078a816116d5565b915050610736565b5080156107e557600980546001810182556000919091527f6e1540171b6c0c960b71a7020d9f60077f6af931a8bbf590da0223dacf75c7af0180546001600160a01b0319166001600160a01b0385161790555b826001600160a01b03167fe514158c560171b0281294f92504cc3c61ddd4828f20afd55551bab78b9994b283426040516108209291906116ee565b60405180910390a2505050565b6001600160a01b03821660009081526008602052604081208183600481111561085857610858611310565b600481111561086957610869611310565b815260208101919091526040016000205460ff169392505050565b61088c61124b565b60015461010090046001600160a01b031633146108f75760405162461bcd60e51b815260206004820152602360248201527f42656e656669636961727957616c6c65743a204f6e6c792062656e656669636960448201526261727960e81b60648201526084016105c6565b6108ff611275565b6001600160a01b0384166109255760405162461bcd60e51b81526004016105c69061167c565b6000831161098e5760405162461bcd60e51b815260206004820152603060248201527f42656e656669636961727957616c6c65743a20416d6f756e74206d757374206260448201526f0652067726561746572207468616e20360841b60648201526084016105c6565b6001600160a01b0384166000908152600860205260408120908360048111156109b9576109b9611310565b60048111156109ca576109ca611310565b815260208101919091526040016000205460ff16610a505760405162461bcd60e51b815260206004820152603a60248201527f42656e656669636961727957616c6c65743a204d65726368616e74206e6f742060448201527f617070726f76656420666f7220746869732063617465676f727900000000000060648201526084016105c6565b60066000836004811115610a6657610a66611310565b6004811115610a7757610a77611310565b815260200190815260200160002054831115610aee5760405162461bcd60e51b815260206004820152603060248201527f42656e656669636961727957616c6c65743a20416d6f756e742065786365656460448201526f1cc818d85d1959dbdc9e481b1a5b5a5d60821b60648201526084016105c6565b6002546040516370a0823160e01b815230600482015284916001600160a01b0316906370a0823190602401602060405180830381865afa158015610b36573d6000803e3d6000fd5b505050506040513d601f19601f82011682018060405250810190610b5a91906115f9565b1015610bb85760405162461bcd60e51b815260206004820152602760248201527f42656e656669636961727957616c6c65743a20496e73756666696369656e742060448201526662616c616e636560c81b60648201526084016105c6565b60025460405163a9059cbb60e01b81526001600160a01b038681166004830152602482018690529091169063a9059cbb906044016020604051808303816000875af1158015610c0b573d6000803e3d6000fd5b505050506040513d601f19601f82011682018060405250810190610c2f9190611709565b610c8c5760405162461bcd60e51b815260206004820152602860248201527f42656e656669636961727957616c6c65743a20546f6b656e207472616e7366656044820152671c8819985a5b195960c21b60648201526084016105c6565b82600a6000828254610c9e919061172b565b9091555083905060076000846004811115610cbb57610cbb611310565b6004811115610ccc57610ccc611310565b81526020019081526020016000206000828254610ce9919061172b565b9250508190555060056040518060a00160405280866001600160a01b03168152602001858152602001846004811115610d2457610d24611310565b8152602080820185905242604092830152835460018082018655600095865294829020845160059092020180546001600160a01b0319166001600160a01b03909216919091178155908301518185015590820151600282018054939492939192909160ff191690836004811115610d9d57610d9d611310565b021790555060608201516003820190610db6908261178d565b50608082015181600401555050836001600160a01b03167fb66bfc64b4488fe0613c82e850b9fa35e72e0b78b2555f050688dd65a099de7e84848442604051610e02949392919061184d565b60405180910390a2610e146001600055565b50505050565b6004546001600160a01b03163314610e445760405162461bcd60e51b81526004016105c69061163b565b6105d7611299565b60098181548110610e5c57600080fd5b6000918252602090912001546001600160a01b0316905081565b6003546001600160a01b03163314610ed05760405162461bcd60e51b815260206004820181905260248201527f42656e656669636961727957616c6c65743a204f6e6c792063616d706169676e60448201526064016105c6565b6040805182815242602082015233917f363f315f930a17d1266b86a20d6dd34b1cfbc5a9db9f13a65d06a689c3a2af8a910160405180910390a250565b6004546001600160a01b03163314610f375760405162461bcd60e51b81526004016105c69061163b565b6001600160a01b038216600090815260086020526040812090826004811115610f6257610f62611310565b6004811115610f7357610f73611310565b815260208101919091526040016000205460ff16610fe45760405162461bcd60e51b815260206004820152602860248201527f42656e656669636961727957616c6c65743a204d65726368616e74206e6f7420604482015267185c1c1c9bdd995960c21b60648201526084016105c6565b6001600160a01b03821660009081526008602052604081208183600481111561100f5761100f611310565b600481111561102057611020611310565b815260200190815260200160002060006101000a81548160ff021916908315150217905550816001600160a01b03167f413d12dcc1b730c91e285c404a7c38f6c762e9f09e7a677cb782cca66c985aba82426040516110809291906116ee565b60405180910390a25050565b606060098054806020026020016040519081016040528092919081815260200182805480156110e457602002820191906000526020600020905b81546001600160a01b031681526001909101906020018083116110c6575b5050505050905090565b6004546001600160a01b031633146111185760405162461bcd60e51b81526004016105c69061163b565b600081116111805760405162461bcd60e51b815260206004820152602f60248201527f42656e656669636961727957616c6c65743a204c696d6974206d75737420626560448201526e02067726561746572207468616e203608c1b60648201526084016105c6565b806006600084600481111561119757611197611310565b60048111156111a8576111a8611310565b8152602001908152602001600020819055507f2230f604890630c99e3846a0e0b80662b2f64cec414e836f61046ca441f76fec8282426040516111ed93929190611884565b60405180910390a15050565b6112016112d4565b6001805460ff191690557f5db9ee0a495bf2e6ff9c91a7834c1ba4fdd244a5e8aa4e537bd38aeae4b073aa335b6040516001600160a01b03909116815260200160405180910390a1565b60026000540361126e57604051633ee5aeb560e01b815260040160405180910390fd5b6002600055565b60015460ff16156105d75760405163d93c066560e01b815260040160405180910390fd5b6112a1611275565b6001805460ff1916811790557f62e78cea01bee320cd4e420270b5ea74000d11b0c9f74754ebdbfc544b05a2583361122e565b60015460ff166105d757604051638dfc202b60e01b815260040160405180910390fd5b60006020828403121561130957600080fd5b5035919050565b634e487b7160e01b600052602160045260246000fd5b6005811061134457634e487b7160e01b600052602160045260246000fd5b9052565b6000815180845260005b8181101561136e57602081850181015186830182015201611352565b506000602082860101526020601f19601f83011685010191505092915050565b6001600160a01b0386168152602081018590526113ae6040820185611326565b60a0606082015260006113c460a0830185611348565b90508260808301529695505050505050565b80356001600160a01b03811681146113ed57600080fd5b919050565b8035600581106113ed57600080fd5b6000806040838503121561141457600080fd5b61141d836113d6565b915061142b602084016113f2565b90509250929050565b60006020828403121561144657600080fd5b61144f826113f2565b9392505050565b634e487b7160e01b600052604160045260246000fd5b6000806000806080858703121561148257600080fd5b61148b856113d6565b9350602085013592506114a0604086016113f2565b9150606085013567ffffffffffffffff808211156114bd57600080fd5b818701915087601f8301126114d157600080fd5b8135818111156114e3576114e3611456565b604051601f8201601f19908116603f0116810190838211818310171561150b5761150b611456565b816040528281528a602084870101111561152457600080fd5b82602086016020830137600060208483010152809550505050505092959194509250565b6020808252825182820181905260009190848201906040850190845b818110156115895783516001600160a01b031683529284019291840191600101611564565b50909695505050505050565b600080604083850312156115a857600080fd5b6115b1836113f2565b946020939093013593505050565b600181811c908216806115d357607f821691505b6020821081036115f357634e487b7160e01b600052602260045260246000fd5b50919050565b60006020828403121561160b57600080fd5b5051919050565b634e487b7160e01b600052601160045260246000fd5b8181038181111561059657610596611612565b60208082526021908201527f42656e656669636961727957616c6c65743a204f6e6c79206f7267616e697a656040820152603960f91b606082015260800190565b60208082526023908201527f42656e656669636961727957616c6c65743a20496e76616c6964206d65726368604082015262185b9d60ea1b606082015260800190565b634e487b7160e01b600052603260045260246000fd5b6000600182016116e7576116e7611612565b5060010190565b604081016116fc8285611326565b8260208301529392505050565b60006020828403121561171b57600080fd5b8151801515811461144f57600080fd5b8082018082111561059657610596611612565b601f82111561178857600081815260208120601f850160051c810160208610156117655750805b601f850160051c820191505b8181101561178457828155600101611771565b5050505b505050565b815167ffffffffffffffff8111156117a7576117a7611456565b6117bb816117b584546115bf565b8461173e565b602080601f8311600181146117f057600084156117d85750858301515b600019600386901b1c1916600185901b178555611784565b600085815260208120601f198616915b8281101561181f57888601518255948401946001909101908401611800565b508582101561183d5787850151600019600388901b60f8161c191681555b5050505050600190811b01905550565b84815261185d6020820185611326565b6080604082015260006118736080830185611348565b905082606083015295945050505050565b606081016118928286611326565b60208201939093526040015291905056fea2646970667358221220f80c864ba84634e045a0616d240af73a6c7bfccc8b750c01998c2c16622d23f764736f6c63430008140033",
  "linkReferences": {},
  "deployedLinkReferences": {}
}