{
  "_format": "hh-sol-artifact-1",
  "contractName": "BeneficiaryWallet",
  "sourceName": "contracts/BeneficiaryWallet.sol",
  "abi": [
    {
      "inputs": [
        {
          "internalType": "address",
          "name": "_beneficiary",
          "type": "address"
        },
        {
          "internalType": "address",
          "name": "_reliefToken",
          "type": "address"
        },
        {
          "internalType": "address",
          "name": "_campaign",
          "type": "address"
        },
        {
          "internalType": "address",
          "name": "_organizer",
          "type": "address"
        },
        {
          "internalType": "address",
          "name": "_factory",
          "type": "address"
        }
      ],
      "stateMutability": "nonpayable",
      "type": "constructor"
    },
    {
      "inputs": [],
      "name": "EnforcedPause",
      "type": "error"
    },
    {
      "inputs": [],
      "name": "ExpectedPause",
      "type": "error"
    },
    {
      "inputs": [],
      "name": "ReentrancyGuardReentrantCall",
      "type": "error"
    },
    {
      "anonymous": false,
      "inputs": [
        {
          "indexed": false,
          "internalType": "enum BeneficiaryWallet.SpendingCategory",
          "name": "category",
          "type": "uint8"
        },
        {
          "indexed": false,
          "internalType": "uint256",
          "name": "newLimit",
          "type": "uint256"
        },
        {
          "indexed": false,
          "internalType": "uint256",
          "name": "timestamp",
          "type": "uint256"
        }
      ],
      "name": "CategoryLimitUpdated",
      "type": "event"
    },
    {
      "anonymous": false,
      "inputs": [
        {
          "indexed": true,
          "internalType": "address",
          "name": "from",
          "type": "address"
        },
        {
          "indexed": false,
          "internalType": "uint256",
          "name": "amount",
          "type": "uint256"
        },
        {
          "indexed": false,
          "internalType": "uint256",
          "name": "timestamp",
          "type": "uint256"
        }
      ],
      "name": "FundsReceived",
      "type": "event"
    },
    {
      "anonymous": false,
      "inputs": [
        {
          "indexed": true,
          "internalType": "address",
          "name": "merchant",
          "type": "address"
        },
        {
          "indexed": false,
          "internalType": "enum BeneficiaryWallet.SpendingCategory",
          "name": "category",
          "type": "uint8"
        },
        {
          "indexed": false,
          "internalType": "uint256",
          "name": "timestamp",
          "type": "uint256"
        }
      ],
      "name": "MerchantApproved",
      "type": "event"
    },
    {
      "anonymous": false,
      "inputs": [
        {
          "indexed": true,
          "internalType": "address",
          "name": "merchant",
          "type": "address"
        },
        {
          "indexed": false,
          "internalType": "enum BeneficiaryWallet.SpendingCategory",
          "name": "category",
          "type": "uint8"
        },
        {
          "indexed": false,
          "internalType": "uint256",
          "name": "timestamp",
          "type": "uint256"
        }
      ],
      "name": "MerchantRevoked",
      "type": "event"
    },
    {
      "anonymous": false,
      "inputs": [
        {
          "indexed": false,
          "internalType": "address",
          "name": "account",
          "type": "address"
        }
      ],
      "name": "Paused",
      "type": "event"
    },
    {
      "anonymous": false,
      "inputs": [
        {
          "indexed": true,
          "internalType": "address",
          "name": "merchant",
          "type": "address"
        },
        {
          "indexed": false,
          "internalType": "uint256",
          "name": "amount",
          "type": "uint256"
        },
        {
          "indexed": false,
          "internalType": "enum BeneficiaryWallet.SpendingCategory",
          "name": "category",
          "type": "uint8"
        },
        {
          "indexed": false,
          "internalType": "string",
          "name": "description",
          "type": "string"
        },
        {
          "indexed": false,
          "internalType": "uint256",
          "name": "timestamp",
          "type": "uint256"
        }
      ],
      "name": "Spent",
      "type": "event"
    },
    {
      "anonymous": false,
      "inputs": [
        {
          "indexed": false,
          "internalType": "address",
          "name": "account",
          "type": "address"
        }
      ],
      "name": "Unpaused",
      "type": "event"
    },
    {
      "inputs": [
        {
          "internalType": "address",
          "name": "merchant",
          "type": "address"
        },
        {
          "internalType": "enum BeneficiaryWallet.SpendingCategory",
          "name": "category",
          "type": "uint8"
        }
      ],
      "name": "approveMerchant",
      "outputs": [],
      "stateMutability": "nonpayable",
      "type": "function"
    },
    {
      "inputs": [
        {
          "internalType": "address",
          "name": "",
          "type": "address"
        },
        {
          "internalType": "enum BeneficiaryWallet.SpendingCategory",
          "name": "",
          "type": "uint8"
        }
      ],
      "name": "approvedMerchants",
      "outputs": [
        {
          "internalType": "bool",
          "name": "",
          "type": "bool"
        }
      ],
      "stateMutability": "view",
      "type": "function"
    },
    {
      "inputs": [],
      "name": "beneficiary",
      "outputs": [
        {
          "internalType": "address",
          "name": "",
          "type": "address"
        }
      ],
      "stateMutability": "view",
      "type": "function"
    },
    {
      "inputs": [],
      "name": "campaign",
      "outputs": [
        {
          "internalType": "address",
          "name": "",
          "type": "address"
        }
      ],
      "stateMutability": "view",
      "type": "function"
    },
    {
      "inputs": [
        {
          "internalType": "enum BeneficiaryWallet.SpendingCategory",
          "name": "",
          "type": "uint8"
        }
      ],
      "name": "categoryLimits",
      "outputs": [
        {
          "internalType": "uint256",
          "name": "",
          "type": "uint256"
        }
      ],
      "stateMutability": "view",
      "type": "function"
    },
    {
      "inputs": [
        {
          "internalType": "enum BeneficiaryWallet.SpendingCategory",
          "name": "",
          "type": "uint8"
        }
      ],
      "name": "categorySpent",
      "outputs": [
        {
          "internalType": "uint256",
          "name": "",
          "type": "uint256"
        }
      ],
      "stateMutability": "view",
      "type": "function"
    },
    {
      "inputs": [],
      "name": "factory",
      "outputs": [
        {
          "internalType": "address",
          "name": "",
          "type": "address"
        }
      ],
      "stateMutability": "view",
      "type": "function"
    },
    {
      "inputs": [],
      "name": "getApprovedMerchants",
      "outputs": [
        {
          "internalType": "address[]",
          "name": "",
          "type": "address[]"
        }
      ],
      "stateMutability": "view",
      "type": "function"
    },
    {
      "inputs": [],
      "name": "getBalance",
      "outputs": [
        {
          "internalType": "uint256",
          "name": "",
          "type": "uint256"
        }
      ],
      "stateMutability": "view",
      "type": "function"
    },
    {
      "inputs": [
        {
          "internalType": "enum BeneficiaryWallet.SpendingCategory",
          "name": "category",
          "type": "uint8"
        }
      ],
      "name": "getRemainingInCategory",
      "outputs": [
        {
          "internalType": "uint256",
          "name": "",
          "type": "uint256"
        }
      ],
      "stateMutability": "view",
      "type": "function"
    },
    {
      "inputs": [],
      "name": "getSpendingHistoryCount",
      "outputs": [
        {
          "internalType": "uint256",
          "name": "",
          "type": "uint256"
        }
      ],
      "stateMutability": "view",
      "type": "function"
    },
    {
      "inputs": [
        {
          "internalType": "address",
          "name": "merchant",
          "type": "address"
        },
        {
          "internalType": "enum BeneficiaryWallet.SpendingCategory",
          "name": "category",
          "type": "uint8"
        }
      ],
      "name": "isMerchantApproved",
      "outputs": [
        {
          "internalType": "bool",
          "name": "",
          "type": "bool"
        }
      ],
      "stateMutability": "view",
      "type": "function"
    },
    {
      "inputs": [
        {
          "internalType": "uint256",
          "name": "",
          "type": "uint256"
        }
      ],
      "name": "merchants",
      "outputs": [
        {
          "internalType": "address",
          "name": "",
          "type": "address"
        }
      ],
      "stateMutability": "view",
      "type": "function"
    },
    {
      "inputs": [
        {
          "internalType": "uint256",
          "name": "amount",
          "type": "uint256"
        }
      ],
      "name": "notifyFundsReceived",
      "outputs": [],
      "stateMutability": "nonpayable",
      "type": "function"
    },
    {
      "inputs": [],
      "name": "organizer",
      "outputs": [
        {
          "internalType": "address",
          "name": "",
          "type": "address"
        }
      ],
      "stateMutability": "view",
      "type": "function"
    },
    {
      "inputs": [],
      "name": "pause",
      "outputs": [],
      "stateMutability": "nonpayable",
      "type": "function"
    },
    {
      "inputs": [],
      "name": "paused",
      "outputs": [
        {
          "internalType": "bool",
          "name": "",
          "type": "bool"
        }
      ],
      "stateMutability": "view",
      "type": "function"
    },
    {
      "inputs": [],
      "name": "reliefToken",
      "outputs": [
        {
          "internalType": "contract IERC20",
          "name": "",
          "type": "address"
        }
      ],
      "stateMutability": "view",
      "type": "function"
    },
    {
      "inputs": [
        {
          "internalType": "address",
          "name": "merchant",
          "type": "address"
        },
        {
          "internalType": "enum BeneficiaryWallet.SpendingCategory",
          "name": "category",
          "type": "uint8"
        }
      ],
      "name": "revokeMerchant",
      "outputs": [],
      "stateMutability": "nonpayable",
      "type": "function"
    },
    {
      "inputs": [
        {
          "internalType": "enum BeneficiaryWallet.SpendingCategory",
          "name": "category",
          "type": "uint8"
        },
        {
          "internalType": "uint256",
          "name": "newLimit",
          "type": "uint256"
        }
      ],
      "name": "setCategoryLimit",
      "outputs": [],
      "stateMutability": "nonpayable",
      "type": "function"
    },
    {
      "inputs": [
        {
          "internalType": "address",
          "name": "merchant",
          "type": "address"
        },
        {
          "internalType": "uint256",
          "name": "amount",
          "type": "uint256"
        },
        {
          "internalType": "enum BeneficiaryWallet.SpendingCategory",
          "name": "category",
          "type": "uint8"
        },
        {
          "internalType": "string",
          "name": "description",
          "type": "string"
        }
      ],
      "name": "spend",
      "outputs": [],
      "stateMutability": "nonpayable",
      "type": "function"
    },
    {
      "inputs": [
        {
          "internalType": "uint256",
          "name": "",
          "type": "uint256"
        }
      ],
      "name": "spendingHistory",
      "outputs": [
        {
          "internalType": "address",
          "name": "merchant",
          "type": "address"
        },
        {
          "internalType": "uint256",
          "name": "amount",
          "type": "uint256"
        },
        {
          "internalType": "enum BeneficiaryWallet.SpendingCategory",
          "name": "category",
          "type": "uint8"
        },
        {
          "internalType": "string",
          "name": "description",
          "type": "string"
        },
        {
          "internalType": "uint256",
          "name": "timestamp",
          "type": "uint256"
        }
      ],
      "stateMutability": "view",
      "type": "function"
    },
    {
      "inputs": [],
      "name": "totalSpent",
      "outputs": [
        {
          "internalType": "uint256",
          "name": "",
          "type": "uint256"
        }
      ],
      "stateMutability": "view",
      "type": "function"
    },
    {
      "inputs": [],
      "name": "unpause",
      "outputs": [],
      "stateMutability": "nonpayable",
      "type": "function"
    }
  ],
  "bytecode": "0x60806040523480156200001157600080fd5b5060405162001deb38038062001deb8339810160408190526200003491620003a0565b60016000819055805460ff191690556001600160a01b038516620000ae5760405162461bcd60e51b815260206004820152602660248201527f42656e656669636961727957616c6c65743a20496e76616c69642062656e656660448201526569636961727960d01b60648201526084015b60405180910390fd5b6001600160a01b038416620001065760405162461bcd60e51b815260206004820181905260248201527f42656e656669636961727957616c6c65743a20496e76616c696420746f6b656e6044820152606401620000a5565b6001600160a01b0383166200016a5760405162461bcd60e51b815260206004820152602360248201527f42656e656669636961727957616c6c65743a20496e76616c69642063616d706160448201526234b3b760e91b6064820152608401620000a5565b6001600160a01b038216620001ce5760405162461bcd60e51b8152602060048201526024808201527f42656e656669636961727957616c6c65743a20496e76616c6964206f7267616e60448201526334bd32b960e11b6064820152608401620000a5565b6001600160a01b038116620002315760405162461bcd60e51b815260206004820152602260248201527f42656e656669636961727957616c6c65743a20496e76616c696420666163746f604482015261727960f01b6064820152608401620000a5565b60018054610100600160a81b0319166101006001600160a01b0397881602179055600280546001600160a01b03199081169587169590951790556003805485169386169390931790925560048054841691851691909117815560058054909316919093161790556007602052683635c9adc5dea000007f6d5257204ebe7d88fd91ae87941cb2dd9d8062b64ae5a2bd2d28ec40b9fbf6df55686c6b935b8bbd4000007fb39221ace053465ec3453ce2b36430bd138b997ecea25c1043da0c366812b8285569010f0cf064dd592000007fb7c774451310d1be4108bc180d1b52823cb0ee0274a6c0081bcaf94f115fb96d55685150ae84a8cdf000007f3be6fd20d5acfde5b873b48692cd31f4d3c7e8ee8a813af4696af8859e5ca6c655600052681b1ae4d6e2ef5000007fb805995a7ec585a251200611a61d179cfd7fb105e1ab17dc415a7336783786f75562000410565b80516001600160a01b03811681146200039b57600080fd5b919050565b600080600080600060a08688031215620003b957600080fd5b620003c48662000383565b9450620003d46020870162000383565b9350620003e46040870162000383565b9250620003f46060870162000383565b9150620004046080870162000383565b90509295509295909350565b6119cb80620004206000396000f3fe608060405234801561001057600080fd5b50600436106101585760003560e01c806361203265116100c35780639b5ceb351161007c5780639b5ceb351461030b578063a5edd5981461031e578063b5b00f9d14610331578063c45a015514610346578063eb81f82c14610359578063fb346eab1461036c57600080fd5b806361203265146102af5780636a5178ec146102c2578063811e539c146102d55780638456cb59146102e85780638e3ea405146102f057806392c8823b146102f857600080fd5b80633e934ee2116101155780633e934ee21461024e5780633f4ba83a146102615780635024f3811461026b578063524c62361461027e57806358fe9a6c146102915780635c975abb146102a457600080fd5b806307d062801461015d57806312065fe01461018a57806314f9a34e146101a05780631bb3d37e146101de57806333cd4280146101fe57806338af3eed1461021e575b600080fd5b61017061016b3660046113e9565b610375565b604051610181959493929190611480565b60405180910390f35b610192610451565b604051908152602001610181565b6101ce6101ae3660046114f3565b600960209081526000928352604080842090915290825290205460ff1681565b6040519015158152602001610181565b6101926101ec366004611526565b60076020526000908152604090205481565b61019261020c366004611526565b60086020526000908152604090205481565b6001546102369061010090046001600160a01b031681565b6040516001600160a01b039091168152602001610181565b61019261025c366004611526565b6104c3565b6102696105ba565b005b600254610236906001600160a01b031681565b61026961028c3660046114f3565b6105f7565b6101ce61029f3660046114f3565b61091f565b60015460ff166101ce565b600454610236906001600160a01b031681565b6102696102d036600461155e565b610976565b600354610236906001600160a01b031681565b610269610f0c565b600654610192565b6102366103063660046113e9565b610f3e565b6102696103193660046113e9565b610f68565b61026961032c3660046114f3565b610fff565b61033961117e565b604051610181919061163a565b600554610236906001600160a01b031681565b610269610367366004611687565b6111e0565b610192600b5481565b6006818154811061038557600080fd5b600091825260209091206005909102018054600182015460028301546003840180546001600160a01b039094169550919360ff909116929091906103c8906116b1565b80601f01602080910402602001604051908101604052809291908181526020018280546103f4906116b1565b80156104415780601f1061041657610100808354040283529160200191610441565b820191906000526020600020905b81548152906001019060200180831161042457829003601f168201915b5050505050908060040154905085565b6002546040516370a0823160e01b81523060048201526000916001600160a01b0316906370a0823190602401602060405180830381865afa15801561049a573d6000803e3d6000fd5b505050506040513d601f19601f820116820180604052508101906104be91906116eb565b905090565b6000600760008360048111156104db576104db611402565b60048111156104ec576104ec611402565b8152602001908152602001600020546008600084600481111561051157610511611402565b600481111561052257610522611402565b8152602001908152602001600020541061053e57506000919050565b6008600083600481111561055457610554611402565b600481111561056557610565611402565b8152602001908152602001600020546007600084600481111561058a5761058a611402565b600481111561059b5761059b611402565b8152602001908152602001600020546105b4919061171a565b92915050565b6004546001600160a01b031633146105ed5760405162461bcd60e51b81526004016105e49061172d565b60405180910390fd5b6105f56112eb565b565b6004546001600160a01b031633146106215760405162461bcd60e51b81526004016105e49061172d565b6001600160a01b0382166106475760405162461bcd60e51b81526004016105e49061176e565b6001600160a01b03821660009081526009602052604081209082600481111561067257610672611402565b600481111561068357610683611402565b815260208101919091526040016000205460ff16156106f05760405162461bcd60e51b815260206004820152602360248201527f42656e656669636961727957616c6c65743a20416c726561647920617070726f6044820152621d995960ea1b60648201526084016105e4565b60055460405163cc380b7360e01b81526001600160a01b0384811660048301529091169063cc380b7390602401602060405180830381865afa15801561073a573d6000803e3d6000fd5b505050506040513d601f19601f8201168201806040525081019061075e91906117b1565b6107c45760405162461bcd60e51b815260206004820152603160248201527f42656e656669636961727957616c6c65743a204d65726368616e74206e6f74206044820152703b32b934b334b2b210313c9030b236b4b760791b60648201526084016105e4565b6001600160a01b03821660009081526009602052604081206001918360048111156107f1576107f1611402565b600481111561080257610802611402565b815260208101919091526040016000908120805460ff1916921515929092179091556001905b600a5481101561088457836001600160a01b0316600a828154811061084f5761084f6117d3565b6000918252602090912001546001600160a01b0316036108725760009150610884565b8061087c816117e9565b915050610828565b5080156108d757600a80546001810182556000919091527fc65a7bb8d6351c1cf70c95a316cc6a92839c986682d98bc35f958f4883f9d2a80180546001600160a01b0319166001600160a01b0385161790555b826001600160a01b03167fe514158c560171b0281294f92504cc3c61ddd4828f20afd55551bab78b9994b28342604051610912929190611802565b60405180910390a2505050565b6001600160a01b03821660009081526009602052604081208183600481111561094a5761094a611402565b600481111561095b5761095b611402565b815260208101919091526040016000205460ff169392505050565b61097e61133d565b60015461010090046001600160a01b031633146109e95760405162461bcd60e51b815260206004820152602360248201527f42656e656669636961727957616c6c65743a204f6e6c792062656e656669636960448201526261727960e81b60648201526084016105e4565b6109f1611367565b6001600160a01b038416610a175760405162461bcd60e51b81526004016105e49061176e565b60008311610a805760405162461bcd60e51b815260206004820152603060248201527f42656e656669636961727957616c6c65743a20416d6f756e74206d757374206260448201526f0652067726561746572207468616e20360841b60648201526084016105e4565b6001600160a01b038416600090815260096020526040812090836004811115610aab57610aab611402565b6004811115610abc57610abc611402565b815260208101919091526040016000205460ff16610b425760405162461bcd60e51b815260206004820152603a60248201527f42656e656669636961727957616c6c65743a204d65726368616e74206e6f742060448201527f617070726f76656420666f7220746869732063617465676f727900000000000060648201526084016105e4565b60076000836004811115610b5857610b58611402565b6004811115610b6957610b69611402565b815260200190815260200160002054831115610be05760405162461bcd60e51b815260206004820152603060248201527f42656e656669636961727957616c6c65743a20416d6f756e742065786365656460448201526f1cc818d85d1959dbdc9e481b1a5b5a5d60821b60648201526084016105e4565b6002546040516370a0823160e01b815230600482015284916001600160a01b0316906370a0823190602401602060405180830381865afa158015610c28573d6000803e3d6000fd5b505050506040513d601f19601f82011682018060405250810190610c4c91906116eb565b1015610caa5760405162461bcd60e51b815260206004820152602760248201527f42656e656669636961727957616c6c65743a20496e73756666696369656e742060448201526662616c616e636560c81b60648201526084016105e4565b60025460405163a9059cbb60e01b81526001600160a01b038681166004830152602482018690529091169063a9059cbb906044016020604051808303816000875af1158015610cfd573d6000803e3d6000fd5b505050506040513d601f19601f82011682018060405250810190610d2191906117b1565b610d7e5760405162461bcd60e51b815260206004820152602860248201527f42656e656669636961727957616c6c65743a20546f6b656e207472616e7366656044820152671c8819985a5b195960c21b60648201526084016105e4565b82600b6000828254610d90919061181d565b9091555083905060086000846004811115610dad57610dad611402565b6004811115610dbe57610dbe611402565b81526020019081526020016000206000828254610ddb919061181d565b9250508190555060066040518060a00160405280866001600160a01b03168152602001858152602001846004811115610e1657610e16611402565b8152602080820185905242604092830152835460018082018655600095865294829020845160059092020180546001600160a01b0319166001600160a01b03909216919091178155908301518185015590820151600282018054939492939192909160ff191690836004811115610e8f57610e8f611402565b021790555060608201516003820190610ea8908261187f565b50608082015181600401555050836001600160a01b03167fb66bfc64b4488fe0613c82e850b9fa35e72e0b78b2555f050688dd65a099de7e84848442604051610ef4949392919061193f565b60405180910390a2610f066001600055565b50505050565b6004546001600160a01b03163314610f365760405162461bcd60e51b81526004016105e49061172d565b6105f561138b565b600a8181548110610f4e57600080fd5b6000918252602090912001546001600160a01b0316905081565b6003546001600160a01b03163314610fc25760405162461bcd60e51b815260206004820181905260248201527f42656e656669636961727957616c6c65743a204f6e6c792063616d706169676e60448201526064016105e4565b6040805182815242602082015233917f363f315f930a17d1266b86a20d6dd34b1cfbc5a9db9f13a65d06a689c3a2af8a910160405180910390a250565b6004546001600160a01b031633146110295760405162461bcd60e51b81526004016105e49061172d565b6001600160a01b03821660009081526009602052604081209082600481111561105457611054611402565b600481111561106557611065611402565b815260208101919091526040016000205460ff166110d65760405162461bcd60e51b815260206004820152602860248201527f42656e656669636961727957616c6c65743a204d65726368616e74206e6f7420604482015267185c1c1c9bdd995960c21b60648201526084016105e4565b6001600160a01b03821660009081526009602052604081208183600481111561110157611101611402565b600481111561111257611112611402565b815260200190815260200160002060006101000a81548160ff021916908315150217905550816001600160a01b03167f413d12dcc1b730c91e285c404a7c38f6c762e9f09e7a677cb782cca66c985aba8242604051611172929190611802565b60405180910390a25050565b6060600a8054806020026020016040519081016040528092919081815260200182805480156111d657602002820191906000526020600020905b81546001600160a01b031681526001909101906020018083116111b8575b5050505050905090565b6004546001600160a01b0316331461120a5760405162461bcd60e51b81526004016105e49061172d565b600081116112725760405162461bcd60e51b815260206004820152602f60248201527f42656e656669636961727957616c6c65743a204c696d6974206d75737420626560448201526e02067726561746572207468616e203608c1b60648201526084016105e4565b806007600084600481111561128957611289611402565b600481111561129a5761129a611402565b8152602001908152602001600020819055507f2230f604890630c99e3846a0e0b80662b2f64cec414e836f61046ca441f76fec8282426040516112df93929190611976565b60405180910390a15050565b6112f36113c6565b6001805460ff191690557f5db9ee0a495bf2e6ff9c91a7834c1ba4fdd244a5e8aa4e537bd38aeae4b073aa335b6040516001600160a01b03909116815260200160405180910390a1565b60026000540361136057604051633ee5aeb560e01b815260040160405180910390fd5b6002600055565b60015460ff16156105f55760405163d93c066560e01b815260040160405180910390fd5b611393611367565b6001805460ff1916811790557f62e78cea01bee320cd4e420270b5ea74000d11b0c9f74754ebdbfc544b05a25833611320565b60015460ff166105f557604051638dfc202b60e01b815260040160405180910390fd5b6000602082840312156113fb57600080fd5b5035919050565b634e487b7160e01b600052602160045260246000fd5b6005811061143657634e487b7160e01b600052602160045260246000fd5b9052565b6000815180845260005b8181101561146057602081850181015186830182015201611444565b506000602082860101526020601f19601f83011685010191505092915050565b6001600160a01b0386168152602081018590526114a06040820185611418565b60a0606082015260006114b660a083018561143a565b90508260808301529695505050505050565b80356001600160a01b03811681146114df57600080fd5b919050565b8035600581106114df57600080fd5b6000806040838503121561150657600080fd5b61150f836114c8565b915061151d602084016114e4565b90509250929050565b60006020828403121561153857600080fd5b611541826114e4565b9392505050565b634e487b7160e01b600052604160045260246000fd5b6000806000806080858703121561157457600080fd5b61157d856114c8565b935060208501359250611592604086016114e4565b9150606085013567ffffffffffffffff808211156115af57600080fd5b818701915087601f8301126115c357600080fd5b8135818111156115d5576115d5611548565b604051601f8201601f19908116603f011681019083821181831017156115fd576115fd611548565b816040528281528a602084870101111561161657600080fd5b82602086016020830137600060208483010152809550505050505092959194509250565b6020808252825182820181905260009190848201906040850190845b8181101561167b5783516001600160a01b031683529284019291840191600101611656565b50909695505050505050565b6000806040838503121561169a57600080fd5b6116a3836114e4565b946020939093013593505050565b600181811c908216806116c557607f821691505b6020821081036116e557634e487b7160e01b600052602260045260246000fd5b50919050565b6000602082840312156116fd57600080fd5b5051919050565b634e487b7160e01b600052601160045260246000fd5b818103818111156105b4576105b4611704565b60208082526021908201527f42656e656669636961727957616c6c65743a204f6e6c79206f7267616e697a656040820152603960f91b606082015260800190565b60208082526023908201527f42656e656669636961727957616c6c65743a20496e76616c6964206d65726368604082015262185b9d60ea1b606082015260800190565b6000602082840312156117c357600080fd5b8151801515811461154157600080fd5b634e487b7160e01b600052603260045260246000fd5b6000600182016117fb576117fb611704565b5060010190565b604081016118108285611418565b8260208301529392505050565b808201808211156105b4576105b4611704565b601f82111561187a57600081815260208120601f850160051c810160208610156118575750805b601f850160051c820191505b8181101561187657828155600101611863565b5050505b505050565b815167ffffffffffffffff81111561189957611899611548565b6118ad816118a784546116b1565b84611830565b602080601f8311600181146118e257600084156118ca5750858301515b600019600386901b1c1916600185901b178555611876565b600085815260208120601f198616915b82811015611911578886015182559484019460019091019084016118f2565b508582101561192f5787850151600019600388901b60f8161c191681555b5050505050600190811b01905550565b84815261194f6020820185611418565b608060408201526000611965608083018561143a565b905082606083015295945050505050565b606081016119848286611418565b60208201939093526040015291905056fea264697066735822122097d502b823c7ff10465a8d80cce539ae3a2ed063f44a1ae4ce9fbec6c06a2d3f64736f6c63430008140033",
  "linkReferences": {},
  "deployedLinkReferences": {}
}