{
  "_format": "hh-sol-artifact-1",
  "contractName": "Campaign",
  "sourceName": "contracts/Campaign.sol",
  "abi": [
    {
      "inputs": [
        {
          "internalType": "address",
          "name": "_organizer",
          "type": "address"
        },
        {
          "internalType": "address",
          "name": "_admin",
          "type": "address"
        },
        {
          "internalType": "address",
          "name": "_reliefToken",
          "type": "address"
        },
        {
          "internalType": "address",
          "name": "_factory",
          "type": "address"
        },
        {
          "internalType": "string",
          "name": "_title",
          "type": "string"
        },
        {
          "internalType": "string",
          "name": "_description",
          "type": "string"
        },
        {
          "internalType": "uint256",
          "name": "_goalAmount",
          "type": "uint256"
        },
        {
          "internalType": "string",
          "name": "_location",
          "type": "string"
        },
        {
          "internalType": "string",
          "name": "_disasterType",
          "type": "string"
        }
      ],
      "stateMutability": "nonpayable",
      "type": "constructor"
    },
    {
      "inputs": [],
      "name": "EnforcedPause",
      "type": "error"
    },
    {
      "inputs": [],
      "name": "ExpectedPause",
      "type": "error"
    },
    {
      "inputs": [],
      "name": "ReentrancyGuardReentrantCall",
      "type": "error"
    },
    {
      "anonymous": false,
      "inputs": [
        {
          "indexed": true,
          "internalType": "address",
          "name": "beneficiary",
          "type": "address"
        },
        {
          "indexed": false,
          "internalType": "uint256",
          "name": "timestamp",
          "type": "uint256"
        }
      ],
      "name": "BeneficiaryApplied",
      "type": "event"
    },
    {
      "anonymous": false,
      "inputs": [
        {
          "indexed": true,
          "internalType": "address",
          "name": "beneficiary",
          "type": "address"
        },
        {
          "indexed": false,
          "internalType": "uint256",
          "name": "timestamp",
          "type": "uint256"
        }
      ],
      "name": "BeneficiaryApproved",
      "type": "event"
    },
    {
      "anonymous": false,
      "inputs": [
        {
          "indexed": true,
          "internalType": "address",
          "name": "beneficiary",
          "type": "address"
        },
        {
          "indexed": false,
          "internalType": "uint256",
          "name": "timestamp",
          "type": "uint256"
        }
      ],
      "name": "BeneficiaryRejected",
      "type": "event"
    },
    {
      "anonymous": false,
      "inputs": [
        {
          "indexed": true,
          "internalType": "address",
          "name": "donor",
          "type": "address"
        },
        {
          "indexed": false,
          "internalType": "uint256",
          "name": "amount",
          "type": "uint256"
        },
        {
          "indexed": false,
          "internalType": "uint256",
          "name": "timestamp",
          "type": "uint256"
        }
      ],
      "name": "DonationReceived",
      "type": "event"
    },
    {
      "anonymous": false,
      "inputs": [
        {
          "indexed": true,
          "internalType": "address",
          "name": "beneficiary",
          "type": "address"
        },
        {
          "indexed": false,
          "internalType": "address",
          "name": "walletAddress",
          "type": "address"
        },
        {
          "indexed": false,
          "internalType": "uint256",
          "name": "amount",
          "type": "uint256"
        },
        {
          "indexed": false,
          "internalType": "uint256",
          "name": "timestamp",
          "type": "uint256"
        }
      ],
      "name": "FundsAllocated",
      "type": "event"
    },
    {
      "anonymous": false,
      "inputs": [
        {
          "indexed": false,
          "internalType": "uint256",
          "name": "totalRaised",
          "type": "uint256"
        },
        {
          "indexed": false,
          "internalType": "uint256",
          "name": "timestamp",
          "type": "uint256"
        }
      ],
      "name": "GoalReached",
      "type": "event"
    },
    {
      "anonymous": false,
      "inputs": [
        {
          "indexed": false,
          "internalType": "address",
          "name": "account",
          "type": "address"
        }
      ],
      "name": "Paused",
      "type": "event"
    },
    {
      "anonymous": false,
      "inputs": [
        {
          "indexed": false,
          "internalType": "enum Campaign.CampaignStatus",
          "name": "newStatus",
          "type": "uint8"
        },
        {
          "indexed": false,
          "internalType": "uint256",
          "name": "timestamp",
          "type": "uint256"
        }
      ],
      "name": "StatusChanged",
      "type": "event"
    },
    {
      "anonymous": false,
      "inputs": [
        {
          "indexed": false,
          "internalType": "address",
          "name": "account",
          "type": "address"
        }
      ],
      "name": "Unpaused",
      "type": "event"
    },
    {
      "inputs": [
        {
          "internalType": "address",
          "name": "beneficiary",
          "type": "address"
        },
        {
          "internalType": "uint256",
          "name": "amount",
          "type": "uint256"
        }
      ],
      "name": "allocateFunds",
      "outputs": [
        {
          "internalType": "address",
          "name": "walletAddress",
          "type": "address"
        }
      ],
      "stateMutability": "nonpayable",
      "type": "function"
    },
    {
      "inputs": [
        {
          "internalType": "uint256",
          "name": "",
          "type": "uint256"
        }
      ],
      "name": "allocations",
      "outputs": [
        {
          "internalType": "address",
          "name": "beneficiary",
          "type": "address"
        },
        {
          "internalType": "uint256",
          "name": "amount",
          "type": "uint256"
        },
        {
          "internalType": "uint256",
          "name": "timestamp",
          "type": "uint256"
        },
        {
          "internalType": "bool",
          "name": "executed",
          "type": "bool"
        }
      ],
      "stateMutability": "view",
      "type": "function"
    },
    {
      "inputs": [
        {
          "internalType": "address",
          "name": "",
          "type": "address"
        }
      ],
      "name": "appliedBeneficiaries",
      "outputs": [
        {
          "internalType": "bool",
          "name": "",
          "type": "bool"
        }
      ],
      "stateMutability": "view",
      "type": "function"
    },
    {
      "inputs": [
        {
          "internalType": "uint256",
          "name": "",
          "type": "uint256"
        }
      ],
      "name": "appliedBeneficiaryList",
      "outputs": [
        {
          "internalType": "address",
          "name": "",
          "type": "address"
        }
      ],
      "stateMutability": "view",
      "type": "function"
    },
    {
      "inputs": [],
      "name": "applyAsBeneficiary",
      "outputs": [],
      "stateMutability": "nonpayable",
      "type": "function"
    },
    {
      "inputs": [
        {
          "internalType": "address",
          "name": "beneficiary",
          "type": "address"
        }
      ],
      "name": "approveBeneficiary",
      "outputs": [],
      "stateMutability": "nonpayable",
      "type": "function"
    },
    {
      "inputs": [
        {
          "internalType": "address",
          "name": "",
          "type": "address"
        }
      ],
      "name": "approvedBeneficiaries",
      "outputs": [
        {
          "internalType": "bool",
          "name": "",
          "type": "bool"
        }
      ],
      "stateMutability": "view",
      "type": "function"
    },
    {
      "inputs": [
        {
          "internalType": "uint256",
          "name": "",
          "type": "uint256"
        }
      ],
      "name": "beneficiaries",
      "outputs": [
        {
          "internalType": "address",
          "name": "",
          "type": "address"
        }
      ],
      "stateMutability": "view",
      "type": "function"
    },
    {
      "inputs": [
        {
          "internalType": "address",
          "name": "",
          "type": "address"
        }
      ],
      "name": "beneficiaryAllocations",
      "outputs": [
        {
          "internalType": "uint256",
          "name": "",
          "type": "uint256"
        }
      ],
      "stateMutability": "view",
      "type": "function"
    },
    {
      "inputs": [
        {
          "internalType": "address",
          "name": "",
          "type": "address"
        }
      ],
      "name": "beneficiaryWallets",
      "outputs": [
        {
          "internalType": "address",
          "name": "",
          "type": "address"
        }
      ],
      "stateMutability": "view",
      "type": "function"
    },
    {
      "inputs": [],
      "name": "campaignInfo",
      "outputs": [
        {
          "internalType": "string",
          "name": "title",
          "type": "string"
        },
        {
          "internalType": "string",
          "name": "description",
          "type": "string"
        },
        {
          "internalType": "uint256",
          "name": "goalAmount",
          "type": "uint256"
        },
        {
          "internalType": "uint256",
          "name": "raisedAmount",
          "type": "uint256"
        },
        {
          "internalType": "string",
          "name": "location",
          "type": "string"
        },
        {
          "internalType": "string",
          "name": "disasterType",
          "type": "string"
        },
        {
          "internalType": "address",
          "name": "organizer",
          "type": "address"
        },
        {
          "internalType": "address",
          "name": "admin",
          "type": "address"
        },
        {
          "internalType": "enum Campaign.CampaignStatus",
          "name": "status",
          "type": "uint8"
        },
        {
          "internalType": "uint256",
          "name": "createdAt",
          "type": "uint256"
        }
      ],
      "stateMutability": "view",
      "type": "function"
    },
    {
      "inputs": [],
      "name": "cancel",
      "outputs": [],
      "stateMutability": "nonpayable",
      "type": "function"
    },
    {
      "inputs": [
        {
          "internalType": "uint256",
          "name": "amount",
          "type": "uint256"
        }
      ],
      "name": "donate",
      "outputs": [],
      "stateMutability": "nonpayable",
      "type": "function"
    },
    {
      "inputs": [
        {
          "internalType": "uint256",
          "name": "",
          "type": "uint256"
        }
      ],
      "name": "donations",
      "outputs": [
        {
          "internalType": "address",
          "name": "donor",
          "type": "address"
        },
        {
          "internalType": "uint256",
          "name": "amount",
          "type": "uint256"
        },
        {
          "internalType": "uint256",
          "name": "timestamp",
          "type": "uint256"
        }
      ],
      "stateMutability": "view",
      "type": "function"
    },
    {
      "inputs": [
        {
          "internalType": "address",
          "name": "",
          "type": "address"
        }
      ],
      "name": "donorContributions",
      "outputs": [
        {
          "internalType": "uint256",
          "name": "",
          "type": "uint256"
        }
      ],
      "stateMutability": "view",
      "type": "function"
    },
    {
      "inputs": [
        {
          "internalType": "uint256",
          "name": "",
          "type": "uint256"
        }
      ],
      "name": "donors",
      "outputs": [
        {
          "internalType": "address",
          "name": "",
          "type": "address"
        }
      ],
      "stateMutability": "view",
      "type": "function"
    },
    {
      "inputs": [],
      "name": "factory",
      "outputs": [
        {
          "internalType": "address",
          "name": "",
          "type": "address"
        }
      ],
      "stateMutability": "view",
      "type": "function"
    },
    {
      "inputs": [],
      "name": "getAllocationsCount",
      "outputs": [
        {
          "internalType": "uint256",
          "name": "",
          "type": "uint256"
        }
      ],
      "stateMutability": "view",
      "type": "function"
    },
    {
      "inputs": [],
      "name": "getAppliedBeneficiaries",
      "outputs": [
        {
          "internalType": "address[]",
          "name": "",
          "type": "address[]"
        }
      ],
      "stateMutability": "view",
      "type": "function"
    },
    {
      "inputs": [],
      "name": "getAppliedBeneficiariesCount",
      "outputs": [
        {
          "internalType": "uint256",
          "name": "",
          "type": "uint256"
        }
      ],
      "stateMutability": "view",
      "type": "function"
    },
    {
      "inputs": [],
      "name": "getAvailableBalance",
      "outputs": [
        {
          "internalType": "uint256",
          "name": "",
          "type": "uint256"
        }
      ],
      "stateMutability": "view",
      "type": "function"
    },
    {
      "inputs": [],
      "name": "getBalance",
      "outputs": [
        {
          "internalType": "uint256",
          "name": "",
          "type": "uint256"
        }
      ],
      "stateMutability": "view",
      "type": "function"
    },
    {
      "inputs": [],
      "name": "getBeneficiaries",
      "outputs": [
        {
          "internalType": "address[]",
          "name": "",
          "type": "address[]"
        }
      ],
      "stateMutability": "view",
      "type": "function"
    },
    {
      "inputs": [
        {
          "internalType": "address",
          "name": "beneficiary",
          "type": "address"
        }
      ],
      "name": "getBeneficiaryWallet",
      "outputs": [
        {
          "internalType": "address",
          "name": "",
          "type": "address"
        }
      ],
      "stateMutability": "view",
      "type": "function"
    },
    {
      "inputs": [],
      "name": "getCompletionPercentage",
      "outputs": [
        {
          "internalType": "uint256",
          "name": "",
          "type": "uint256"
        }
      ],
      "stateMutability": "view",
      "type": "function"
    },
    {
      "inputs": [],
      "name": "getDonationsCount",
      "outputs": [
        {
          "internalType": "uint256",
          "name": "",
          "type": "uint256"
        }
      ],
      "stateMutability": "view",
      "type": "function"
    },
    {
      "inputs": [],
      "name": "getDonors",
      "outputs": [
        {
          "internalType": "address[]",
          "name": "",
          "type": "address[]"
        }
      ],
      "stateMutability": "view",
      "type": "function"
    },
    {
      "inputs": [
        {
          "internalType": "address",
          "name": "beneficiary",
          "type": "address"
        }
      ],
      "name": "hasBeneficiaryApplied",
      "outputs": [
        {
          "internalType": "bool",
          "name": "",
          "type": "bool"
        }
      ],
      "stateMutability": "view",
      "type": "function"
    },
    {
      "inputs": [
        {
          "internalType": "address",
          "name": "beneficiary",
          "type": "address"
        }
      ],
      "name": "isBeneficiaryApproved",
      "outputs": [
        {
          "internalType": "bool",
          "name": "",
          "type": "bool"
        }
      ],
      "stateMutability": "view",
      "type": "function"
    },
    {
      "inputs": [],
      "name": "markCompleted",
      "outputs": [],
      "stateMutability": "nonpayable",
      "type": "function"
    },
    {
      "inputs": [],
      "name": "pause",
      "outputs": [],
      "stateMutability": "nonpayable",
      "type": "function"
    },
    {
      "inputs": [],
      "name": "paused",
      "outputs": [
        {
          "internalType": "bool",
          "name": "",
          "type": "bool"
        }
      ],
      "stateMutability": "view",
      "type": "function"
    },
    {
      "inputs": [
        {
          "internalType": "address",
          "name": "beneficiary",
          "type": "address"
        }
      ],
      "name": "rejectBeneficiary",
      "outputs": [],
      "stateMutability": "nonpayable",
      "type": "function"
    },
    {
      "inputs": [],
      "name": "reliefToken",
      "outputs": [
        {
          "internalType": "contract IERC20",
          "name": "",
          "type": "address"
        }
      ],
      "stateMutability": "view",
      "type": "function"
    },
    {
      "inputs": [],
      "name": "totalAllocated",
      "outputs": [
        {
          "internalType": "uint256",
          "name": "",
          "type": "uint256"
        }
      ],
      "stateMutability": "view",
      "type": "function"
    },
    {
      "inputs": [],
      "name": "unpause",
      "outputs": [],
      "stateMutability": "nonpayable",
      "type": "function"
    }
  ],
  "bytecode": "0x60806040523480156200001157600080fd5b506040516200435238038062004352833981016040819052620000349162000450565b60016000819055805460ff191690556001600160a01b0389166200009f5760405162461bcd60e51b815260206004820152601b60248201527f43616d706169676e3a20496e76616c6964206f7267616e697a6572000000000060448201526064015b60405180910390fd5b6001600160a01b038816620000f75760405162461bcd60e51b815260206004820152601760248201527f43616d706169676e3a20496e76616c69642061646d696e000000000000000000604482015260640162000096565b6001600160a01b0387166200014f5760405162461bcd60e51b815260206004820152601760248201527f43616d706169676e3a20496e76616c696420746f6b656e000000000000000000604482015260640162000096565b6001600160a01b038616620001a75760405162461bcd60e51b815260206004820152601960248201527f43616d706169676e3a20496e76616c696420666163746f727900000000000000604482015260640162000096565b60008311620001f95760405162461bcd60e51b815260206004820152601d60248201527f43616d706169676e3a20496e76616c696420676f616c20616d6f756e74000000604482015260640162000096565b600b80546001600160a01b038981166001600160a01b031992831617909255600c805489841692169190911790556040805161014081018252878152602081018790529081018590526000606082018190526080820185905260a082018490528b831660c0830152918a1660e08201526101008101919091524261012082015260028062000288888262000604565b50602082015160018201906200029f908262000604565b50604082015160028201556060820151600382015560808201516004820190620002ca908262000604565b5060a08201516005820190620002e1908262000604565b5060c08201516006820180546001600160a01b03199081166001600160a01b039384161790915560e084015160078401805492831691909316908117835561010085015192916001600160a81b03191617600160a01b8360038111156200034c576200034c6200055f565b02179055506101208201518160080155905050505050505050505050620006d0565b80516001600160a01b03811681146200038657600080fd5b919050565b634e487b7160e01b600052604160045260246000fd5b600082601f830112620003b357600080fd5b81516001600160401b0380821115620003d057620003d06200038b565b604051601f8301601f19908116603f01168101908282118183101715620003fb57620003fb6200038b565b816040528381526020925086838588010111156200041857600080fd5b600091505b838210156200043c57858201830151818301840152908201906200041d565b600093810190920192909252949350505050565b60008060008060008060008060006101208a8c0312156200047057600080fd5b6200047b8a6200036e565b98506200048b60208b016200036e565b97506200049b60408b016200036e565b9650620004ab60608b016200036e565b60808b01519096506001600160401b0380821115620004c957600080fd5b620004d78d838e01620003a1565b965060a08c0151915080821115620004ee57600080fd5b620004fc8d838e01620003a1565b955060c08c0151945060e08c01519150808211156200051a57600080fd5b620005288d838e01620003a1565b93506101008c01519150808211156200054057600080fd5b506200054f8c828d01620003a1565b9150509295985092959850929598565b634e487b7160e01b600052602160045260246000fd5b600181811c908216806200058a57607f821691505b602082108103620005ab57634e487b7160e01b600052602260045260246000fd5b50919050565b601f821115620005ff57600081815260208120601f850160051c81016020861015620005da5750805b601f850160051c820191505b81811015620005fb57828155600101620005e6565b5050505b505050565b81516001600160401b038111156200062057620006206200038b565b620006388162000631845462000575565b84620005b1565b602080601f831160018114620006705760008415620006575750858301515b600019600386901b1c1916600185901b178555620005fb565b600085815260208120601f198616915b82811015620006a15788860151825594840194600190910190840162000680565b5085821015620006c05787850151600019600388901b60f8161c191681555b5050505050600190811b01905550565b613c7280620006e06000396000f3fe60806040523480156200001157600080fd5b5060043610620002485760003560e01c8063809dab6a116200013d578063dac78dc411620000bb578063efeb5e581162000086578063efeb5e58146200052f578063f14faf6f1462000546578063f4374aea146200055d578063f70cb38e1462000580578063f8626af814620005af57600080fd5b8063dac78dc414620004a4578063e0c355c814620004d0578063e5c9e75414620004ff578063ea8a1af0146200052557600080fd5b80639d8a93c411620001085780639d8a93c41462000452578063afc47ead146200045c578063c2ea6a7f1462000465578063c45a01551462000487578063c93527d8146200049b57600080fd5b8063809dab6a146200041b5780638456cb591462000425578063913b722c146200042f57806396f300d4146200044857600080fd5b80634130a1bc11620001cb5780634abfa16311620001965780634abfa16314620003a95780635024f38114620003c05780635c975abb14620003d457806365517faa14620003ec5780636a4e41f514620003f557600080fd5b80634130a1bc1462000374578063431714c3146200037e57806344b45c50146200039557806345f7f249146200039f57600080fd5b80631b20ea1f11620002185780631b20ea1f14620002f757806321b3e6ad146200031a5780632a9482cc1462000349578063381f3cfd14620003535780633f4ba83a146200036a57600080fd5b8062ca9580146200024d5780630a2642bf146200026657806312065fe014620002ae578063189ed35614620002c7575b600080fd5b620002646200025e36600462001a47565b620005ec565b005b6200027d6200027736600462001a6c565b620006a2565b604080516001600160a01b039095168552602085019390935291830152151560608201526080015b60405180910390f35b620002b8620006ea565b604051908152602001620002a5565b620002de620002d836600462001a86565b6200075f565b6040516001600160a01b039091168152602001620002a5565b620002b86200030836600462001a47565b60106020526000908152604090205481565b620002de6200032b36600462001a47565b6001600160a01b039081166000908152601160205260409020541690565b620002b862000c92565b620002de6200036436600462001a6c565b62000cc4565b6200026462000cef565b6200026462000d77565b620002646200038f36600462001a47565b62000e72565b6200026462000ffd565b620002b860175481565b620002de620003ba36600462001a6c565b62001077565b600b54620002de906001600160a01b031681565b60015460ff165b6040519015158152602001620002a5565b601454620002b8565b620003db6200040636600462001a47565b60136020526000908152604090205460ff1681565b620002b862001088565b620002646200109c565b6200043962001120565b604051620002a5919062001ab3565b6200043962001184565b62000439620011e6565b600e54620002b8565b6200046f62001248565b604051620002a59a9998979695949392919062001b83565b600c54620002de906001600160a01b031681565b600d54620002b8565b620002de620004b536600462001a47565b6011602052600090815260409020546001600160a01b031681565b620003db620004e136600462001a47565b6001600160a01b031660009081526013602052604090205460ff1690565b620003db6200051036600462001a47565b60126020526000908152604090205460ff1681565b62000264620014db565b620002de6200054036600462001a6c565b6200156e565b620002646200055736600462001a6c565b6200157f565b620002b86200056e36600462001a47565b600f6020526000908152604090205481565b620003db6200059136600462001a47565b6001600160a01b031660009081526012602052604090205460ff1690565b620005c6620005c036600462001a6c565b620018da565b604080516001600160a01b039094168452602084019290925290820152606001620002a5565b6008546001600160a01b03163314806200061057506009546001600160a01b031633145b620006385760405162461bcd60e51b81526004016200062f9062001c28565b60405180910390fd5b6001600160a01b0381166000818152601360209081526040808320805460ff199081169091556012835292819020805490931690925590514281527f0f9cce7b5a9aac12cc06c0114ed91e95d10e5846202231c200c52258c4e8812a91015b60405180910390a250565b600e8181548110620006b357600080fd5b600091825260209091206004909102018054600182015460028301546003909301546001600160a01b039092169350919060ff1684565b600b546040516370a0823160e01b81523060048201526000916001600160a01b0316906370a0823190602401602060405180830381865afa15801562000734573d6000803e3d6000fd5b505050506040513d601f19601f820116820180604052508101906200075a919062001c69565b905090565b60006200076b62001918565b6008546001600160a01b03163314806200078f57506009546001600160a01b031633145b620007ae5760405162461bcd60e51b81526004016200062f9062001c28565b6001600160a01b038316620008065760405162461bcd60e51b815260206004820152601d60248201527f43616d706169676e3a20496e76616c69642062656e656669636961727900000060448201526064016200062f565b60008211620008295760405162461bcd60e51b81526004016200062f9062001c83565b6001600160a01b03831660009081526012602052604090205460ff166200089e5760405162461bcd60e51b815260206004820152602260248201527f43616d706169676e3a2042656e6566696369617279206e6f7420617070726f76604482015261195960f21b60648201526084016200062f565b81601754620008ae919062001ce0565b6005541015620009115760405162461bcd60e51b815260206004820152602760248201527f43616d706169676e3a20496e73756666696369656e742063616d706169676e2060448201526662616c616e636560c81b60648201526084016200062f565b6001600160a01b038381166000908152601160205260409020541662000a1957600b54600854600c5460405160009387936001600160a01b03918216933093918316921690620009619062001a1c565b6001600160a01b0395861681529385166020850152918416604084015283166060830152909116608082015260a001604051809103906000f080158015620009ad573d6000803e3d6000fd5b506001600160a01b0380861660008181526011602052604081208054939094166001600160a01b0319938416179093556016805460018101825593527fd833147d7dc355ba459fc788f669e58cfaf9dc25ddcd0702e87d69c7b512428990920180549091169091179055505b506001600160a01b038281166000908152601160205260409081902054600b54915163a9059cbb60e01b8152908316600482018190526024820185905292919091169063a9059cbb906044016020604051808303816000875af115801562000a85573d6000803e3d6000fd5b505050506040513d601f19601f8201168201806040525081019062000aab919062001cf6565b62000af95760405162461bcd60e51b815260206004820152601f60248201527f43616d706169676e3a20546f6b656e207472616e73666572206661696c65640060448201526064016200062f565b816017600082825462000b0d919062001ce0565b90915550506001600160a01b0383166000908152601060205260408120805484929062000b3c90849062001ce0565b9091555050604080516080810182526001600160a01b0385811680835260208084018781524285870181815260016060808901828152600e8054938401815560005298517fbb7b4a454dc3493923482f07822329ed19e8244eff582cc204f8554c3620c3fd600490930292830180546001600160a01b031916918a1691909117905593517fbb7b4a454dc3493923482f07822329ed19e8244eff582cc204f8554c3620c3fe82015590517fbb7b4a454dc3493923482f07822329ed19e8244eff582cc204f8554c3620c3ff82015595517fbb7b4a454dc3493923482f07822329ed19e8244eff582cc204f8554c3620c400909601805460ff191696151596909617909555855193871684529083018790529382019290925290917f15bfd4d6c6dd4a29c5579779dbdaefadc68af56a4222b638e6651dacb331bb7f910160405180910390a262000c8c6001600055565b92915050565b600454600090810362000ca55750600090565b60045460055462000cb890606462001d1a565b6200075a919062001d34565b6014818154811062000cd557600080fd5b6000918252602090912001546001600160a01b0316905081565b6008546001600160a01b031633148062000d1357506009546001600160a01b031633145b62000d325760405162461bcd60e51b81526004016200062f9062001c28565b62000d3c62001943565b6009805460ff60a01b1916905560405160008051602062003c1d8339815191529062000d6d90600090429062001d57565b60405180910390a1565b3360009081526013602052604090205460ff161562000dd95760405162461bcd60e51b815260206004820152601960248201527f43616d706169676e3a20416c7265616479206170706c6965640000000000000060448201526064016200062f565b33600081815260136020526040808220805460ff191660019081179091556014805491820181559092527fce6d7b5282bd9a3661ae061feed1dbda4e52ab073b1f9285be6e155d9c38d4ec90910180546001600160a01b03191683179055517fa84c85b0ebaad0139c8df3c7d73914d85bca26af8ec9aa96e29fb024a781a37d9062000e689042815260200190565b60405180910390a2565b6008546001600160a01b031633148062000e9657506009546001600160a01b031633145b62000eb55760405162461bcd60e51b81526004016200062f9062001c28565b6001600160a01b03811660009081526012602052604090205460ff161562000f205760405162461bcd60e51b815260206004820152601a60248201527f43616d706169676e3a20416c726561647920617070726f76656400000000000060448201526064016200062f565b6001600160a01b03811660009081526013602052604090205460ff1662000fa7576001600160a01b0381166000818152601360205260408120805460ff191660019081179091556014805491820181559091527fce6d7b5282bd9a3661ae061feed1dbda4e52ab073b1f9285be6e155d9c38d4ec0180546001600160a01b03191690911790555b6001600160a01b03811660008181526012602052604090819020805460ff19166001179055517feee022fe6769c4730e935c0d4dd474b7c31071f94fd6aaa061025a87604cb4a390620006979042815260200190565b6008546001600160a01b03163314806200102157506009546001600160a01b031633145b620010405760405162461bcd60e51b81526004016200062f9062001c28565b6009805460ff60a01b1916600160a11b17905560405160008051602062003c1d8339815191529062000d6d90600290429062001d57565b6015818154811062000cd557600080fd5b6017546005546000916200075a9162001d74565b6008546001600160a01b0316331480620010c057506009546001600160a01b031633145b620010df5760405162461bcd60e51b81526004016200062f9062001c28565b620010e962001993565b6009805460ff60a01b1916600160a01b17905560405160008051602062003c1d8339815191529062000d6d90600190429062001d57565b606060168054806020026020016040519081016040528092919081815260200182805480156200117a57602002820191906000526020600020905b81546001600160a01b031681526001909101906020018083116200115b575b5050505050905090565b606060158054806020026020016040519081016040528092919081815260200182805480156200117a576020028201919060005260206000209081546001600160a01b031681526001909101906020018083116200115b575050505050905090565b606060148054806020026020016040519081016040528092919081815260200182805480156200117a576020028201919060005260206000209081546001600160a01b031681526001909101906020018083116200115b575050505050905090565b600280548190620012599062001d8a565b80601f0160208091040260200160405190810160405280929190818152602001828054620012879062001d8a565b8015620012d85780601f10620012ac57610100808354040283529160200191620012d8565b820191906000526020600020905b815481529060010190602001808311620012ba57829003601f168201915b505050505090806001018054620012ef9062001d8a565b80601f01602080910402602001604051908101604052809291908181526020018280546200131d9062001d8a565b80156200136e5780601f1062001342576101008083540402835291602001916200136e565b820191906000526020600020905b8154815290600101906020018083116200135057829003601f168201915b505050505090806002015490806003015490806004018054620013919062001d8a565b80601f0160208091040260200160405190810160405280929190818152602001828054620013bf9062001d8a565b8015620014105780601f10620013e45761010080835404028352916020019162001410565b820191906000526020600020905b815481529060010190602001808311620013f257829003601f168201915b505050505090806005018054620014279062001d8a565b80601f0160208091040260200160405190810160405280929190818152602001828054620014559062001d8a565b8015620014a65780601f106200147a57610100808354040283529160200191620014a6565b820191906000526020600020905b8154815290600101906020018083116200148857829003601f168201915b505050506006830154600784015460089094015492936001600160a01b03918216939181169250600160a01b900460ff16908a565b6009546001600160a01b031633146200152e5760405162461bcd60e51b815260206004820152601460248201527321b0b6b830b4b3b71d1027b7363c9030b236b4b760611b60448201526064016200062f565b6009805460ff60a01b1916600360a01b1790556200154b62001993565b60008051602062003c1d83398151915260034260405162000d6d92919062001d57565b6016818154811062000cd557600080fd5b6200158962001918565b62001593620019d1565b6000600954600160a01b900460ff166003811115620015b657620015b662001b4a565b14620015fc5760405162461bcd60e51b815260206004820152601460248201527343616d706169676e3a204e6f742061637469766560601b60448201526064016200062f565b600081116200161f5760405162461bcd60e51b81526004016200062f9062001c83565b600b546040516323b872dd60e01b8152336004820152306024820152604481018390526001600160a01b03909116906323b872dd906064016020604051808303816000875af115801562001677573d6000803e3d6000fd5b505050506040513d601f19601f820116820180604052508101906200169d919062001cf6565b620016eb5760405162461bcd60e51b815260206004820152601f60248201527f43616d706169676e3a20546f6b656e207472616e73666572206661696c65640060448201526064016200062f565b806002600301600082825462001702919062001ce0565b9091555050336000908152600f602052604081205490036200176157601580546001810182556000919091527f55f448fdea98c4d29eb340757ef0a66cd03dbb9538908a6a81d96026b71ec4750180546001600160a01b031916331790555b336000908152600f6020526040812080548392906200178290849062001ce0565b90915550506040805160608101825233808252602080830185815242848601818152600d805460018101825560009190915295517fd7b6990105719101dabeb77144f2a3385c8033acd3af97e9423a695e81ad1eb5600390970296870180546001600160a01b0319166001600160a01b0390921691909117905591517fd7b6990105719101dabeb77144f2a3385c8033acd3af97e9423a695e81ad1eb686015590517fd7b6990105719101dabeb77144f2a3385c8033acd3af97e9423a695e81ad1eb790940193909355835185815290810192909252917f4b0304ab2f313234b1cea012339c8f8c3bf2c8bb357d81a579cfdb35d2e3d030910160405180910390a260045460055410620018cc57600554604080519182524260208301527f85b3ed4e45559c5f41fb220aa4ac86a440dfc741f219089de694242940aaa09c910160405180910390a15b620018d76001600055565b50565b600d8181548110620018eb57600080fd5b60009182526020909120600390910201805460018201546002909201546001600160a01b03909116925083565b6002600054036200193c57604051633ee5aeb560e01b815260040160405180910390fd5b6002600055565b6200194d620019f8565b6001805460ff191690557f5db9ee0a495bf2e6ff9c91a7834c1ba4fdd244a5e8aa4e537bd38aeae4b073aa335b6040516001600160a01b03909116815260200162000d6d565b6200199d620019d1565b6001805460ff1916811790557f62e78cea01bee320cd4e420270b5ea74000d11b0c9f74754ebdbfc544b05a258336200197a565b60015460ff1615620019f65760405163d93c066560e01b815260040160405180910390fd5b565b60015460ff16620019f657604051638dfc202b60e01b815260040160405180910390fd5b611e568062001dc783390190565b80356001600160a01b038116811462001a4257600080fd5b919050565b60006020828403121562001a5a57600080fd5b62001a658262001a2a565b9392505050565b60006020828403121562001a7f57600080fd5b5035919050565b6000806040838503121562001a9a57600080fd5b62001aa58362001a2a565b946020939093013593505050565b6020808252825182820181905260009190848201906040850190845b8181101562001af65783516001600160a01b03168352928401929184019160010162001acf565b50909695505050505050565b6000815180845260005b8181101562001b2a5760208185018101518683018201520162001b0c565b506000602082860101526020601f19601f83011685010191505092915050565b634e487b7160e01b600052602160045260246000fd5b6004811062001b7f57634e487b7160e01b600052602160045260246000fd5b9052565b600061014080835262001b998184018e62001b02565b9050828103602084015262001baf818d62001b02565b90508a6040840152896060840152828103608084015262001bd1818a62001b02565b905082810360a084015262001be7818962001b02565b6001600160a01b0388811660c0860152871660e0850152915062001c12905061010083018562001b60565b826101208301529b9a5050505050505050505050565b60208082526021908201527f43616d706169676e3a204f6e6c79206f7267616e697a6572206f722061646d696040820152603760f91b606082015260800190565b60006020828403121562001c7c57600080fd5b5051919050565b60208082526027908201527f43616d706169676e3a20416d6f756e74206d75737420626520677265617465726040820152660207468616e20360cc1b606082015260800190565b634e487b7160e01b600052601160045260246000fd5b8082018082111562000c8c5762000c8c62001cca565b60006020828403121562001d0957600080fd5b8151801515811462001a6557600080fd5b808202811582820484141762000c8c5762000c8c62001cca565b60008262001d5257634e487b7160e01b600052601260045260246000fd5b500490565b6040810162001d67828562001b60565b8260208301529392505050565b8181038181111562000c8c5762000c8c62001cca565b600181811c9082168062001d9f57607f821691505b60208210810362001dc057634e487b7160e01b600052602260045260246000fd5b5091905056fe60806040523480156200001157600080fd5b5060405162001e5638038062001e568339810160408190526200003491620003a0565b60016000819055805460ff191690556001600160a01b038516620000ae5760405162461bcd60e51b815260206004820152602660248201527f42656e656669636961727957616c6c65743a20496e76616c69642062656e656660448201526569636961727960d01b60648201526084015b60405180910390fd5b6001600160a01b038416620001065760405162461bcd60e51b815260206004820181905260248201527f42656e656669636961727957616c6c65743a20496e76616c696420746f6b656e6044820152606401620000a5565b6001600160a01b0383166200016a5760405162461bcd60e51b815260206004820152602360248201527f42656e656669636961727957616c6c65743a20496e76616c69642063616d706160448201526234b3b760e91b6064820152608401620000a5565b6001600160a01b038216620001ce5760405162461bcd60e51b8152602060048201526024808201527f42656e656669636961727957616c6c65743a20496e76616c6964206f7267616e60448201526334bd32b960e11b6064820152608401620000a5565b6001600160a01b038116620002315760405162461bcd60e51b815260206004820152602260248201527f42656e656669636961727957616c6c65743a20496e76616c696420666163746f604482015261727960f01b6064820152608401620000a5565b60018054610100600160a81b0319166101006001600160a01b0397881602179055600280546001600160a01b03199081169587169590951790556003805485169386169390931790925560048054841691851691909117815560058054909316919093161790556007602052683635c9adc5dea000007f6d5257204ebe7d88fd91ae87941cb2dd9d8062b64ae5a2bd2d28ec40b9fbf6df55686c6b935b8bbd4000007fb39221ace053465ec3453ce2b36430bd138b997ecea25c1043da0c366812b8285569010f0cf064dd592000007fb7c774451310d1be4108bc180d1b52823cb0ee0274a6c0081bcaf94f115fb96d55685150ae84a8cdf000007f3be6fd20d5acfde5b873b48692cd31f4d3c7e8ee8a813af4696af8859e5ca6c655600052681b1ae4d6e2ef5000007fb805995a7ec585a251200611a61d179cfd7fb105e1ab17dc415a7336783786f75562000410565b80516001600160a01b03811681146200039b57600080fd5b919050565b600080600080600060a08688031215620003b957600080fd5b620003c48662000383565b9450620003d46020870162000383565b9350620003e46040870162000383565b9250620003f46060870162000383565b9150620004046080870162000383565b90509295509295909350565b611a3680620004206000396000f3fe608060405234801561001057600080fd5b50600436106101585760003560e01c806361203265116100c35780639b5ceb351161007c5780639b5ceb351461030b578063a5edd5981461031e578063b5b00f9d14610331578063c45a015514610346578063eb81f82c14610359578063fb346eab1461036c57600080fd5b806361203265146102af5780636a5178ec146102c2578063811e539c146102d55780638456cb59146102e85780638e3ea405146102f057806392c8823b146102f857600080fd5b80633e934ee2116101155780633e934ee21461024e5780633f4ba83a146102615780635024f3811461026b578063524c62361461027e57806358fe9a6c146102915780635c975abb146102a457600080fd5b806307d062801461015d57806312065fe01461018a57806314f9a34e146101a05780631bb3d37e146101de57806333cd4280146101fe57806338af3eed1461021e575b600080fd5b61017061016b366004611454565b610375565b6040516101819594939291906114eb565b60405180910390f35b610192610451565b604051908152602001610181565b6101ce6101ae36600461155e565b600960209081526000928352604080842090915290825290205460ff1681565b6040519015158152602001610181565b6101926101ec366004611591565b60076020526000908152604090205481565b61019261020c366004611591565b60086020526000908152604090205481565b6001546102369061010090046001600160a01b031681565b6040516001600160a01b039091168152602001610181565b61019261025c366004611591565b6104c3565b6102696105ba565b005b600254610236906001600160a01b031681565b61026961028c36600461155e565b6105f7565b6101ce61029f36600461155e565b61091f565b60015460ff166101ce565b600454610236906001600160a01b031681565b6102696102d03660046115c9565b610976565b600354610236906001600160a01b031681565b610269610f77565b600654610192565b610236610306366004611454565b610fa9565b610269610319366004611454565b610fd3565b61026961032c36600461155e565b61106a565b6103396111e9565b60405161018191906116a5565b600554610236906001600160a01b031681565b6102696103673660046116f2565b61124b565b610192600b5481565b6006818154811061038557600080fd5b600091825260209091206005909102018054600182015460028301546003840180546001600160a01b039094169550919360ff909116929091906103c89061171c565b80601f01602080910402602001604051908101604052809291908181526020018280546103f49061171c565b80156104415780601f1061041657610100808354040283529160200191610441565b820191906000526020600020905b81548152906001019060200180831161042457829003601f168201915b5050505050908060040154905085565b6002546040516370a0823160e01b81523060048201526000916001600160a01b0316906370a0823190602401602060405180830381865afa15801561049a573d6000803e3d6000fd5b505050506040513d601f19601f820116820180604052508101906104be9190611756565b905090565b6000600760008360048111156104db576104db61146d565b60048111156104ec576104ec61146d565b815260200190815260200160002054600860008460048111156105115761051161146d565b60048111156105225761052261146d565b8152602001908152602001600020541061053e57506000919050565b600860008360048111156105545761055461146d565b60048111156105655761056561146d565b8152602001908152602001600020546007600084600481111561058a5761058a61146d565b600481111561059b5761059b61146d565b8152602001908152602001600020546105b49190611785565b92915050565b6004546001600160a01b031633146105ed5760405162461bcd60e51b81526004016105e490611798565b60405180910390fd5b6105f5611356565b565b6004546001600160a01b031633146106215760405162461bcd60e51b81526004016105e490611798565b6001600160a01b0382166106475760405162461bcd60e51b81526004016105e4906117d9565b6001600160a01b0382166000908152600960205260408120908260048111156106725761067261146d565b60048111156106835761068361146d565b815260208101919091526040016000205460ff16156106f05760405162461bcd60e51b815260206004820152602360248201527f42656e656669636961727957616c6c65743a20416c726561647920617070726f6044820152621d995960ea1b60648201526084016105e4565b60055460405163cc380b7360e01b81526001600160a01b0384811660048301529091169063cc380b7390602401602060405180830381865afa15801561073a573d6000803e3d6000fd5b505050506040513d601f19601f8201168201806040525081019061075e919061181c565b6107c45760405162461bcd60e51b815260206004820152603160248201527f42656e656669636961727957616c6c65743a204d65726368616e74206e6f74206044820152703b32b934b334b2b210313c9030b236b4b760791b60648201526084016105e4565b6001600160a01b03821660009081526009602052604081206001918360048111156107f1576107f161146d565b60048111156108025761080261146d565b815260208101919091526040016000908120805460ff1916921515929092179091556001905b600a5481101561088457836001600160a01b0316600a828154811061084f5761084f61183e565b6000918252602090912001546001600160a01b0316036108725760009150610884565b8061087c81611854565b915050610828565b5080156108d757600a80546001810182556000919091527fc65a7bb8d6351c1cf70c95a316cc6a92839c986682d98bc35f958f4883f9d2a80180546001600160a01b0319166001600160a01b0385161790555b826001600160a01b03167fe514158c560171b0281294f92504cc3c61ddd4828f20afd55551bab78b9994b2834260405161091292919061186d565b60405180910390a2505050565b6001600160a01b03821660009081526009602052604081208183600481111561094a5761094a61146d565b600481111561095b5761095b61146d565b815260208101919091526040016000205460ff169392505050565b61097e6113a8565b60015461010090046001600160a01b031633146109e95760405162461bcd60e51b815260206004820152602360248201527f42656e656669636961727957616c6c65743a204f6e6c792062656e656669636960448201526261727960e81b60648201526084016105e4565b6109f16113d2565b6001600160a01b038416610a175760405162461bcd60e51b81526004016105e4906117d9565b60008311610a805760405162461bcd60e51b815260206004820152603060248201527f42656e656669636961727957616c6c65743a20416d6f756e74206d757374206260448201526f0652067726561746572207468616e20360841b60648201526084016105e4565b60055460405163cc380b7360e01b81526001600160a01b038681166004830152600092169063cc380b7390602401602060405180830381865afa158015610acb573d6000803e3d6000fd5b505050506040513d601f19601f82011682018060405250810190610aef919061181c565b6001600160a01b03861660009081526009602052604081209192509081856004811115610b1e57610b1e61146d565b6004811115610b2f57610b2f61146d565b815260208101919091526040016000205460ff1690508180610b4e5750805b610bab5760405162461bcd60e51b815260206004820152602860248201527f42656e656669636961727957616c6c65743a204d65726368616e74206e6f74206044820152671d995c9a599a595960c21b60648201526084016105e4565b60076000856004811115610bc157610bc161146d565b6004811115610bd257610bd261146d565b815260200190815260200160002054851115610c495760405162461bcd60e51b815260206004820152603060248201527f42656e656669636961727957616c6c65743a20416d6f756e742065786365656460448201526f1cc818d85d1959dbdc9e481b1a5b5a5d60821b60648201526084016105e4565b6002546040516370a0823160e01b815230600482015286916001600160a01b0316906370a0823190602401602060405180830381865afa158015610c91573d6000803e3d6000fd5b505050506040513d601f19601f82011682018060405250810190610cb59190611756565b1015610d135760405162461bcd60e51b815260206004820152602760248201527f42656e656669636961727957616c6c65743a20496e73756666696369656e742060448201526662616c616e636560c81b60648201526084016105e4565b60025460405163a9059cbb60e01b81526001600160a01b038881166004830152602482018890529091169063a9059cbb906044016020604051808303816000875af1158015610d66573d6000803e3d6000fd5b505050506040513d601f19601f82011682018060405250810190610d8a919061181c565b610de75760405162461bcd60e51b815260206004820152602860248201527f42656e656669636961727957616c6c65743a20546f6b656e207472616e7366656044820152671c8819985a5b195960c21b60648201526084016105e4565b84600b6000828254610df99190611888565b9091555085905060086000866004811115610e1657610e1661146d565b6004811115610e2757610e2761146d565b81526020019081526020016000206000828254610e449190611888565b9250508190555060066040518060a00160405280886001600160a01b03168152602001878152602001866004811115610e7f57610e7f61146d565b8152602080820187905242604092830152835460018082018655600095865294829020845160059092020180546001600160a01b0319166001600160a01b03909216919091178155908301518185015590820151600282018054939492939192909160ff191690836004811115610ef857610ef861146d565b021790555060608201516003820190610f1190826118ea565b50608082015181600401555050856001600160a01b03167fb66bfc64b4488fe0613c82e850b9fa35e72e0b78b2555f050688dd65a099de7e86868642604051610f5d94939291906119aa565b60405180910390a25050610f716001600055565b50505050565b6004546001600160a01b03163314610fa15760405162461bcd60e51b81526004016105e490611798565b6105f56113f6565b600a8181548110610fb957600080fd5b6000918252602090912001546001600160a01b0316905081565b6003546001600160a01b0316331461102d5760405162461bcd60e51b815260206004820181905260248201527f42656e656669636961727957616c6c65743a204f6e6c792063616d706169676e60448201526064016105e4565b6040805182815242602082015233917f363f315f930a17d1266b86a20d6dd34b1cfbc5a9db9f13a65d06a689c3a2af8a910160405180910390a250565b6004546001600160a01b031633146110945760405162461bcd60e51b81526004016105e490611798565b6001600160a01b0382166000908152600960205260408120908260048111156110bf576110bf61146d565b60048111156110d0576110d061146d565b815260208101919091526040016000205460ff166111415760405162461bcd60e51b815260206004820152602860248201527f42656e656669636961727957616c6c65743a204d65726368616e74206e6f7420604482015267185c1c1c9bdd995960c21b60648201526084016105e4565b6001600160a01b03821660009081526009602052604081208183600481111561116c5761116c61146d565b600481111561117d5761117d61146d565b815260200190815260200160002060006101000a81548160ff021916908315150217905550816001600160a01b03167f413d12dcc1b730c91e285c404a7c38f6c762e9f09e7a677cb782cca66c985aba82426040516111dd92919061186d565b60405180910390a25050565b6060600a80548060200260200160405190810160405280929190818152602001828054801561124157602002820191906000526020600020905b81546001600160a01b03168152600190910190602001808311611223575b5050505050905090565b6004546001600160a01b031633146112755760405162461bcd60e51b81526004016105e490611798565b600081116112dd5760405162461bcd60e51b815260206004820152602f60248201527f42656e656669636961727957616c6c65743a204c696d6974206d75737420626560448201526e02067726561746572207468616e203608c1b60648201526084016105e4565b80600760008460048111156112f4576112f461146d565b60048111156113055761130561146d565b8152602001908152602001600020819055507f2230f604890630c99e3846a0e0b80662b2f64cec414e836f61046ca441f76fec82824260405161134a939291906119e1565b60405180910390a15050565b61135e611431565b6001805460ff191690557f5db9ee0a495bf2e6ff9c91a7834c1ba4fdd244a5e8aa4e537bd38aeae4b073aa335b6040516001600160a01b03909116815260200160405180910390a1565b6002600054036113cb57604051633ee5aeb560e01b815260040160405180910390fd5b6002600055565b60015460ff16156105f55760405163d93c066560e01b815260040160405180910390fd5b6113fe6113d2565b6001805460ff1916811790557f62e78cea01bee320cd4e420270b5ea74000d11b0c9f74754ebdbfc544b05a2583361138b565b60015460ff166105f557604051638dfc202b60e01b815260040160405180910390fd5b60006020828403121561146657600080fd5b5035919050565b634e487b7160e01b600052602160045260246000fd5b600581106114a157634e487b7160e01b600052602160045260246000fd5b9052565b6000815180845260005b818110156114cb576020818501810151868301820152016114af565b506000602082860101526020601f19601f83011685010191505092915050565b6001600160a01b03861681526020810185905261150b6040820185611483565b60a06060820152600061152160a08301856114a5565b90508260808301529695505050505050565b80356001600160a01b038116811461154a57600080fd5b919050565b80356005811061154a57600080fd5b6000806040838503121561157157600080fd5b61157a83611533565b91506115886020840161154f565b90509250929050565b6000602082840312156115a357600080fd5b6115ac8261154f565b9392505050565b634e487b7160e01b600052604160045260246000fd5b600080600080608085870312156115df57600080fd5b6115e885611533565b9350602085013592506115fd6040860161154f565b9150606085013567ffffffffffffffff8082111561161a57600080fd5b818701915087601f83011261162e57600080fd5b813581811115611640576116406115b3565b604051601f8201601f19908116603f01168101908382118183101715611668576116686115b3565b816040528281528a602084870101111561168157600080fd5b82602086016020830137600060208483010152809550505050505092959194509250565b6020808252825182820181905260009190848201906040850190845b818110156116e65783516001600160a01b0316835292840192918401916001016116c1565b50909695505050505050565b6000806040838503121561170557600080fd5b61170e8361154f565b946020939093013593505050565b600181811c9082168061173057607f821691505b60208210810361175057634e487b7160e01b600052602260045260246000fd5b50919050565b60006020828403121561176857600080fd5b5051919050565b634e487b7160e01b600052601160045260246000fd5b818103818111156105b4576105b461176f565b60208082526021908201527f42656e656669636961727957616c6c65743a204f6e6c79206f7267616e697a656040820152603960f91b606082015260800190565b60208082526023908201527f42656e656669636961727957616c6c65743a20496e76616c6964206d65726368604082015262185b9d60ea1b606082015260800190565b60006020828403121561182e57600080fd5b815180151581146115ac57600080fd5b634e487b7160e01b600052603260045260246000fd5b6000600182016118665761186661176f565b5060010190565b6040810161187b8285611483565b8260208301529392505050565b808201808211156105b4576105b461176f565b601f8211156118e557600081815260208120601f850160051c810160208610156118c25750805b601f850160051c820191505b818110156118e1578281556001016118ce565b5050505b505050565b815167ffffffffffffffff811115611904576119046115b3565b61191881611912845461171c565b8461189b565b602080601f83116001811461194d57600084156119355750858301515b600019600386901b1c1916600185901b1785556118e1565b600085815260208120601f198616915b8281101561197c5788860151825594840194600190910190840161195d565b508582101561199a5787850151600019600388901b60f8161c191681555b5050505050600190811b01905550565b8481526119ba6020820185611483565b6080604082015260006119d060808301856114a5565b905082606083015295945050505050565b606081016119ef8286611483565b60208201939093526040015291905056fea26469706673582212203e4d30463bf99b724a176308bd782d4f59d0bb592a9a9085bd20d094b973e00864736f6c6343000814003340a180796b90921dd8508eb434c78206ca5c737a0d584582edf399bc9711d9e9a26469706673582212209f728d168da48a04f364d6ae394a02cddea6bb64ec32ba04494e26d63db4f79d64736f6c63430008140033",
  "linkReferences": {},
  "deployedLinkReferences": {}
}