{
  "_format": "hh-sol-artifact-1",
  "contractName": "CampaignFactory",
  "sourceName": "contracts/CampaignFactory.sol",
  "abi": [
    {
      "inputs": [
        {
          "internalType": "address",
          "name": "_reliefToken",
          "type": "address"
        },
        {
          "internalType": "address",
          "name": "initialOwner",
          "type": "address"
        }
      ],
      "stateMutability": "nonpayable",
      "type": "constructor"
    },
    {
      "inputs": [
        {
          "internalType": "address",
          "name": "owner",
          "type": "address"
        }
      ],
      "name": "OwnableInvalidOwner",
      "type": "error"
    },
    {
      "inputs": [
        {
          "internalType": "address",
          "name": "account",
          "type": "address"
        }
      ],
      "name": "OwnableUnauthorizedAccount",
      "type": "error"
    },
    {
      "inputs": [],
      "name": "ReentrancyGuardReentrantCall",
      "type": "error"
    },
    {
      "anonymous": false,
      "inputs": [
        {
          "indexed": true,
          "internalType": "address",
          "name": "campaignAddress",
          "type": "address"
        },
        {
          "indexed": true,
          "internalType": "address",
          "name": "organizer",
          "type": "address"
        },
        {
          "indexed": false,
          "internalType": "string",
          "name": "title",
          "type": "string"
        },
        {
          "indexed": false,
          "internalType": "uint256",
          "name": "goalAmount",
          "type": "uint256"
        },
        {
          "indexed": false,
          "internalType": "uint256",
          "name": "timestamp",
          "type": "uint256"
        }
      ],
      "name": "CampaignCreated",
      "type": "event"
    },
    {
      "anonymous": false,
      "inputs": [
        {
          "indexed": true,
          "internalType": "address",
          "name": "merchant",
          "type": "address"
        },
        {
          "indexed": false,
          "internalType": "uint256",
          "name": "timestamp",
          "type": "uint256"
        }
      ],
      "name": "MerchantRevoked",
      "type": "event"
    },
    {
      "anonymous": false,
      "inputs": [
        {
          "indexed": true,
          "internalType": "address",
          "name": "merchant",
          "type": "address"
        },
        {
          "indexed": false,
          "internalType": "uint256",
          "name": "timestamp",
          "type": "uint256"
        }
      ],
      "name": "MerchantVerified",
      "type": "event"
    },
    {
      "anonymous": false,
      "inputs": [
        {
          "indexed": true,
          "internalType": "address",
          "name": "organizer",
          "type": "address"
        },
        {
          "indexed": false,
          "internalType": "uint256",
          "name": "timestamp",
          "type": "uint256"
        }
      ],
      "name": "OrganizerApproved",
      "type": "event"
    },
    {
      "anonymous": false,
      "inputs": [
        {
          "indexed": true,
          "internalType": "address",
          "name": "organizer",
          "type": "address"
        },
        {
          "indexed": false,
          "internalType": "uint256",
          "name": "timestamp",
          "type": "uint256"
        }
      ],
      "name": "OrganizerRevoked",
      "type": "event"
    },
    {
      "anonymous": false,
      "inputs": [
        {
          "indexed": true,
          "internalType": "address",
          "name": "previousOwner",
          "type": "address"
        },
        {
          "indexed": true,
          "internalType": "address",
          "name": "newOwner",
          "type": "address"
        }
      ],
      "name": "OwnershipTransferred",
      "type": "event"
    },
    {
      "inputs": [
        {
          "internalType": "address",
          "name": "organizer",
          "type": "address"
        }
      ],
      "name": "approveOrganizer",
      "outputs": [],
      "stateMutability": "nonpayable",
      "type": "function"
    },
    {
      "inputs": [
        {
          "internalType": "address",
          "name": "",
          "type": "address"
        }
      ],
      "name": "approvedOrganizers",
      "outputs": [
        {
          "internalType": "bool",
          "name": "",
          "type": "bool"
        }
      ],
      "stateMutability": "view",
      "type": "function"
    },
    {
      "inputs": [],
      "name": "campaignCount",
      "outputs": [
        {
          "internalType": "uint256",
          "name": "",
          "type": "uint256"
        }
      ],
      "stateMutability": "view",
      "type": "function"
    },
    {
      "inputs": [
        {
          "internalType": "uint256",
          "name": "",
          "type": "uint256"
        }
      ],
      "name": "campaigns",
      "outputs": [
        {
          "internalType": "address",
          "name": "",
          "type": "address"
        }
      ],
      "stateMutability": "view",
      "type": "function"
    },
    {
      "inputs": [
        {
          "internalType": "string",
          "name": "title",
          "type": "string"
        },
        {
          "internalType": "string",
          "name": "description",
          "type": "string"
        },
        {
          "internalType": "uint256",
          "name": "goalAmount",
          "type": "uint256"
        },
        {
          "internalType": "string",
          "name": "location",
          "type": "string"
        },
        {
          "internalType": "string",
          "name": "disasterType",
          "type": "string"
        }
      ],
      "name": "createCampaign",
      "outputs": [
        {
          "internalType": "address",
          "name": "campaignAddress",
          "type": "address"
        }
      ],
      "stateMutability": "nonpayable",
      "type": "function"
    },
    {
      "inputs": [],
      "name": "getAllCampaigns",
      "outputs": [
        {
          "internalType": "address[]",
          "name": "",
          "type": "address[]"
        }
      ],
      "stateMutability": "view",
      "type": "function"
    },
    {
      "inputs": [],
      "name": "getAllVerifiedMerchants",
      "outputs": [
        {
          "internalType": "address[]",
          "name": "",
          "type": "address[]"
        }
      ],
      "stateMutability": "view",
      "type": "function"
    },
    {
      "inputs": [
        {
          "internalType": "address",
          "name": "organizer",
          "type": "address"
        }
      ],
      "name": "getCampaignsByOrganizer",
      "outputs": [
        {
          "internalType": "address[]",
          "name": "",
          "type": "address[]"
        }
      ],
      "stateMutability": "view",
      "type": "function"
    },
    {
      "inputs": [],
      "name": "getTotalCampaigns",
      "outputs": [
        {
          "internalType": "uint256",
          "name": "",
          "type": "uint256"
        }
      ],
      "stateMutability": "view",
      "type": "function"
    },
    {
      "inputs": [
        {
          "internalType": "address",
          "name": "organizer",
          "type": "address"
        }
      ],
      "name": "isApprovedOrganizer",
      "outputs": [
        {
          "internalType": "bool",
          "name": "",
          "type": "bool"
        }
      ],
      "stateMutability": "view",
      "type": "function"
    },
    {
      "inputs": [
        {
          "internalType": "address",
          "name": "",
          "type": "address"
        }
      ],
      "name": "isCampaign",
      "outputs": [
        {
          "internalType": "bool",
          "name": "",
          "type": "bool"
        }
      ],
      "stateMutability": "view",
      "type": "function"
    },
    {
      "inputs": [
        {
          "internalType": "address",
          "name": "merchant",
          "type": "address"
        }
      ],
      "name": "isVerifiedMerchant",
      "outputs": [
        {
          "internalType": "bool",
          "name": "",
          "type": "bool"
        }
      ],
      "stateMutability": "view",
      "type": "function"
    },
    {
      "inputs": [
        {
          "internalType": "uint256",
          "name": "",
          "type": "uint256"
        }
      ],
      "name": "merchants",
      "outputs": [
        {
          "internalType": "address",
          "name": "",
          "type": "address"
        }
      ],
      "stateMutability": "view",
      "type": "function"
    },
    {
      "inputs": [
        {
          "internalType": "address",
          "name": "",
          "type": "address"
        },
        {
          "internalType": "uint256",
          "name": "",
          "type": "uint256"
        }
      ],
      "name": "organizerCampaigns",
      "outputs": [
        {
          "internalType": "address",
          "name": "",
          "type": "address"
        }
      ],
      "stateMutability": "view",
      "type": "function"
    },
    {
      "inputs": [],
      "name": "owner",
      "outputs": [
        {
          "internalType": "address",
          "name": "",
          "type": "address"
        }
      ],
      "stateMutability": "view",
      "type": "function"
    },
    {
      "inputs": [],
      "name": "reliefToken",
      "outputs": [
        {
          "internalType": "address",
          "name": "",
          "type": "address"
        }
      ],
      "stateMutability": "view",
      "type": "function"
    },
    {
      "inputs": [],
      "name": "renounceOwnership",
      "outputs": [],
      "stateMutability": "nonpayable",
      "type": "function"
    },
    {
      "inputs": [
        {
          "internalType": "address",
          "name": "merchant",
          "type": "address"
        }
      ],
      "name": "revokeMerchant",
      "outputs": [],
      "stateMutability": "nonpayable",
      "type": "function"
    },
    {
      "inputs": [
        {
          "internalType": "address",
          "name": "organizer",
          "type": "address"
        }
      ],
      "name": "revokeOrganizer",
      "outputs": [],
      "stateMutability": "nonpayable",
      "type": "function"
    },
    {
      "inputs": [
        {
          "internalType": "address",
          "name": "newOwner",
          "type": "address"
        }
      ],
      "name": "transferOwnership",
      "outputs": [],
      "stateMutability": "nonpayable",
      "type": "function"
    },
    {
      "inputs": [
        {
          "internalType": "address",
          "name": "",
          "type": "address"
        }
      ],
      "name": "verifiedMerchants",
      "outputs": [
        {
          "internalType": "bool",
          "name": "",
          "type": "bool"
        }
      ],
      "stateMutability": "view",
      "type": "function"
    },
    {
      "inputs": [
        {
          "internalType": "address",
          "name": "merchant",
          "type": "address"
        }
      ],
      "name": "verifyMerchant",
      "outputs": [],
      "stateMutability": "nonpayable",
      "type": "function"
    }
  ],
  "bytecode": "0x60806040523480156200001157600080fd5b506040516200501c3803806200501c833981016040819052620000349162000170565b806001600160a01b0381166200006557604051631e4fbdf760e01b8152600060048201526024015b60405180910390fd5b620000708162000103565b50600180556001600160a01b038216620000dc5760405162461bcd60e51b815260206004820152602660248201527f43616d706169676e466163746f72793a20496e76616c696420746f6b656e206160448201526564647265737360d01b60648201526084016200005c565b50600280546001600160a01b0319166001600160a01b0392909216919091179055620001a8565b600080546001600160a01b038381166001600160a01b0319831681178455604051919092169283917f8be0079c531659141344cd1fd0a4f28419497f9722a3daafe3b4186f6b6457e09190a35050565b80516001600160a01b03811681146200016b57600080fd5b919050565b600080604083850312156200018457600080fd5b6200018f8362000153565b91506200019f6020840162000153565b90509250929050565b614e6480620001b86000396000f3fe60806040523480156200001157600080fd5b50600436106200015d5760003560e01c80638da5cb5b11620000c7578063cc380b731162000086578063cc380b731462000314578063e2714e1b1462000343578063f10673af1462000369578063f2fde38b1462000380578063f385bafa1462000397578063fb3edbda14620003a157600080fd5b80638da5cb5b146200028857806392c8823b146200029a578063a076913e14620002b1578063aa7496fc14620002c8578063badd0a5b14620002ee57600080fd5b806361d0bd91116200012057806361d0bd9114620001fa578063715018a6146200023a5780637274e30d14620002465780637941936f1462000250578063819a701c146200026757806386cdf604146200027e57600080fd5b8063141961bc14620001625780631465b2c3146200019657806316f43dd414620001ad578063229dcbe314620001c05780635024f38114620001e6575b600080fd5b620001796200017336600462000d48565b620003b8565b6040516001600160a01b0390911681526020015b60405180910390f35b62000179620001a736600462000d7f565b620003e3565b6009545b6040519081526020016200018d565b620001d7620001d136600462000dac565b6200041c565b6040516200018d919062000dd1565b60025462000179906001600160a01b031681565b620002296200020b36600462000dac565b6001600160a01b031660009081526005602052604090205460ff1690565b60405190151581526020016200018d565b6200024462000494565b005b620001b160095481565b620002446200026136600462000dac565b620004ac565b620002446200027836600462000dac565b62000558565b620001d762000630565b6000546001600160a01b031662000179565b62000179620002ab36600462000d48565b62000694565b62000179620002c236600462000ecb565b620006a5565b62000229620002d936600462000dac565b60066020526000908152604090205460ff1681565b62000229620002ff36600462000dac565b60056020526000908152604090205460ff1681565b620002296200032536600462000dac565b6001600160a01b031660009081526006602052604090205460ff1690565b620002296200035436600462000dac565b60086020526000908152604090205460ff1681565b620002446200037a36600462000dac565b62000929565b620002446200039136600462000dac565b62000aaa565b620001d762000aee565b62000244620003b236600462000dac565b62000b50565b60038181548110620003c957600080fd5b6000918252602090912001546001600160a01b0316905081565b600460205281600052604060002081815481106200040057600080fd5b6000918252602090912001546001600160a01b03169150829050565b6001600160a01b0381166000908152600460209081526040918290208054835181840281018401909452808452606093928301828280156200048857602002820191906000526020600020905b81546001600160a01b0316815260019091019060200180831162000469575b50505050509050919050565b6200049e62000c90565b620004aa600062000cbf565b565b620004b662000c90565b6001600160a01b03811660009081526005602052604090205460ff16620004fa5760405162461bcd60e51b8152600401620004f19062000f8f565b60405180910390fd5b6001600160a01b03811660008181526005602052604090819020805460ff19169055517f103634e00c81a886a33bf2937fd194212b28367db9748bd5503e89888ac20d6a906200054d9042815260200190565b60405180910390a250565b6200056262000c90565b6001600160a01b03811660009081526006602052604090205460ff16620005dd5760405162461bcd60e51b815260206004820152602860248201527f43616d706169676e466163746f72793a204e6f742061207665726966696564206044820152671b595c98da185b9d60c21b6064820152608401620004f1565b6001600160a01b03811660008181526006602052604090819020805460ff19169055517fb4dbbb0dad4bfb2fbe0a90f5c798f0c1b96ea92ffac4f47bef25713f75ba7474906200054d9042815260200190565b606060038054806020026020016040519081016040528092919081815260200182805480156200068a57602002820191906000526020600020905b81546001600160a01b031681526001909101906020018083116200066b575b5050505050905090565b60078181548110620003c957600080fd5b6000620006b162000d0f565b3360009081526005602052604090205460ff16620006e35760405162461bcd60e51b8152600401620004f19062000f8f565b600084116200074a5760405162461bcd60e51b815260206004820152602c60248201527f43616d706169676e466163746f72793a20476f616c206d75737420626520677260448201526b06561746572207468616e20360a41b6064820152608401620004f1565b6000865111620007ac5760405162461bcd60e51b815260206004820152602660248201527f43616d706169676e466163746f72793a205469746c652063616e6e6f7420626560448201526520656d70747960d01b6064820152608401620004f1565b600033620007c26000546001600160a01b031690565b600260009054906101000a90046001600160a01b0316308a8a8a8a8a604051620007ec9062000d3a565b620008009998979695949392919062001021565b604051809103906000f0801580156200081d573d6000803e3d6000fd5b506003805460018181019092557fc2575a0e9e593c00f959f8c92f12db2869c3395a3b0502d05e2516446f71f85b0180546001600160a01b0384166001600160a01b0319918216811790925533600090815260046020908152604080832080548088018255908452828420018054909416851790935592815260089092528120805460ff19169092179091556009805492945084935090620008bf83620010b9565b9190505550336001600160a01b0316826001600160a01b03167f810c1f0481c76c27bfb99d47b443b405e6f4d247fb07302759cb36d58742d07f8988426040516200090d93929190620010e1565b60405180910390a3506200092060018055565b95945050505050565b6200093362000c90565b6001600160a01b0381166200099d5760405162461bcd60e51b815260206004820152602960248201527f43616d706169676e466163746f72793a20496e76616c6964206d65726368616e60448201526874206164647265737360b81b6064820152608401620004f1565b6001600160a01b03811660009081526006602052604090205460ff161562000a125760405162461bcd60e51b815260206004820152602160248201527f43616d706169676e466163746f72793a20416c726561647920766572696669656044820152601960fa1b6064820152608401620004f1565b6001600160a01b038116600081815260066020526040808220805460ff191660019081179091556007805491820181559092527fa66cc928b5edb82af9bd49922954155ab7b0942694bea4ce44661d9a8736c68890910180546001600160a01b03191683179055517f758a6e09e48514ed43f194e9291c91c9601bf875f6f5e3df4474c2112b14d6f0906200054d9042815260200190565b62000ab462000c90565b6001600160a01b03811662000ae057604051631e4fbdf760e01b815260006004820152602401620004f1565b62000aeb8162000cbf565b50565b606060078054806020026020016040519081016040528092919081815260200182805480156200068a576020028201919060005260206000209081546001600160a01b031681526001909101906020018083116200066b575050505050905090565b62000b5a62000c90565b6001600160a01b03811662000bc55760405162461bcd60e51b815260206004820152602a60248201527f43616d706169676e466163746f72793a20496e76616c6964206f7267616e697a6044820152696572206164647265737360b01b6064820152608401620004f1565b6001600160a01b03811660009081526005602052604090205460ff161562000c3a5760405162461bcd60e51b815260206004820152602160248201527f43616d706169676e466163746f72793a20416c726561647920617070726f76656044820152601960fa1b6064820152608401620004f1565b6001600160a01b03811660008181526005602052604090819020805460ff19166001179055517fc21dbd3d13c645b3de37a4725b4b3764e2fee60e4a82a674fab0b4fe4bbda810906200054d9042815260200190565b6000546001600160a01b03163314620004aa5760405163118cdaa760e01b8152336004820152602401620004f1565b600080546001600160a01b038381166001600160a01b0319831681178455604051919092169283917f8be0079c531659141344cd1fd0a4f28419497f9722a3daafe3b4186f6b6457e09190a35050565b60026001540362000d3357604051633ee5aeb560e01b815260040160405180910390fd5b6002600155565b613d26806200110983390190565b60006020828403121562000d5b57600080fd5b5035919050565b80356001600160a01b038116811462000d7a57600080fd5b919050565b6000806040838503121562000d9357600080fd5b62000d9e8362000d62565b946020939093013593505050565b60006020828403121562000dbf57600080fd5b62000dca8262000d62565b9392505050565b6020808252825182820181905260009190848201906040850190845b8181101562000e145783516001600160a01b03168352928401929184019160010162000ded565b50909695505050505050565b634e487b7160e01b600052604160045260246000fd5b600082601f83011262000e4857600080fd5b813567ffffffffffffffff8082111562000e665762000e6662000e20565b604051601f8301601f19908116603f0116810190828211818310171562000e915762000e9162000e20565b8160405283815286602085880101111562000eab57600080fd5b836020870160208301376000602085830101528094505050505092915050565b600080600080600060a0868803121562000ee457600080fd5b853567ffffffffffffffff8082111562000efd57600080fd5b62000f0b89838a0162000e36565b9650602088013591508082111562000f2257600080fd5b62000f3089838a0162000e36565b955060408801359450606088013591508082111562000f4e57600080fd5b62000f5c89838a0162000e36565b9350608088013591508082111562000f7357600080fd5b5062000f828882890162000e36565b9150509295509295909350565b6020808252602a908201527f43616d706169676e466163746f72793a204e6f7420616e20617070726f7665646040820152691037b933b0b734bd32b960b11b606082015260800190565b6000815180845260005b81811015620010015760208185018101518683018201520162000fe3565b506000602082860101526020601f19601f83011685010191505092915050565b6001600160a01b038a81168252898116602083015288811660408301528716606082015261012060808201819052600090620010608382018962000fd9565b905082810360a084015262001076818862000fd9565b90508560c084015282810360e084015262001092818662000fd9565b9050828103610100840152620010a9818562000fd9565b9c9b505050505050505050505050565b600060018201620010da57634e487b7160e01b600052601160045260246000fd5b5060010190565b606081526000620010f6606083018662000fd9565b6020830194909452506040015291905056fe60806040523480156200001157600080fd5b5060405162003d2638038062003d26833981016040819052620000349162000450565b60016000819055805460ff191690556001600160a01b0389166200009f5760405162461bcd60e51b815260206004820152601b60248201527f43616d706169676e3a20496e76616c6964206f7267616e697a6572000000000060448201526064015b60405180910390fd5b6001600160a01b038816620000f75760405162461bcd60e51b815260206004820152601760248201527f43616d706169676e3a20496e76616c69642061646d696e000000000000000000604482015260640162000096565b6001600160a01b0387166200014f5760405162461bcd60e51b815260206004820152601760248201527f43616d706169676e3a20496e76616c696420746f6b656e000000000000000000604482015260640162000096565b6001600160a01b038616620001a75760405162461bcd60e51b815260206004820152601960248201527f43616d706169676e3a20496e76616c696420666163746f727900000000000000604482015260640162000096565b60008311620001f95760405162461bcd60e51b815260206004820152601d60248201527f43616d706169676e3a20496e76616c696420676f616c20616d6f756e74000000604482015260640162000096565b600b80546001600160a01b038981166001600160a01b031992831617909255600c805489841692169190911790556040805161014081018252878152602081018790529081018590526000606082018190526080820185905260a082018490528b831660c0830152918a1660e08201526101008101919091524261012082015260028062000288888262000604565b50602082015160018201906200029f908262000604565b50604082015160028201556060820151600382015560808201516004820190620002ca908262000604565b5060a08201516005820190620002e1908262000604565b5060c08201516006820180546001600160a01b03199081166001600160a01b039384161790915560e084015160078401805492831691909316908117835561010085015192916001600160a81b03191617600160a01b8360038111156200034c576200034c6200055f565b02179055506101208201518160080155905050505050505050505050620006d0565b80516001600160a01b03811681146200038657600080fd5b919050565b634e487b7160e01b600052604160045260246000fd5b600082601f830112620003b357600080fd5b81516001600160401b0380821115620003d057620003d06200038b565b604051601f8301601f19908116603f01168101908282118183101715620003fb57620003fb6200038b565b816040528381526020925086838588010111156200041857600080fd5b600091505b838210156200043c57858201830151818301840152908201906200041d565b600093810190920192909252949350505050565b60008060008060008060008060006101208a8c0312156200047057600080fd5b6200047b8a6200036e565b98506200048b60208b016200036e565b97506200049b60408b016200036e565b9650620004ab60608b016200036e565b60808b01519096506001600160401b0380821115620004c957600080fd5b620004d78d838e01620003a1565b965060a08c0151915080821115620004ee57600080fd5b620004fc8d838e01620003a1565b955060c08c0151945060e08c01519150808211156200051a57600080fd5b620005288d838e01620003a1565b93506101008c01519150808211156200054057600080fd5b506200054f8c828d01620003a1565b9150509295985092959850929598565b634e487b7160e01b600052602160045260246000fd5b600181811c908216806200058a57607f821691505b602082108103620005ab57634e487b7160e01b600052602260045260246000fd5b50919050565b601f821115620005ff57600081815260208120601f850160051c81016020861015620005da5750805b601f850160051c820191505b81811015620005fb57828155600101620005e6565b5050505b505050565b81516001600160401b038111156200062057620006206200038b565b620006388162000631845462000575565b84620005b1565b602080601f831160018114620006705760008415620006575750858301515b600019600386901b1c1916600185901b178555620005fb565b600085815260208120601f198616915b82811015620006a15788860151825594840194600190910190840162000680565b5085821015620006c05787850151600019600388901b60f8161c191681555b5050505050600190811b01905550565b61364680620006e06000396000f3fe60806040523480156200001157600080fd5b5060043610620001af5760003560e01c80638456cb5911620000f0578063c93527d811620000a3578063efeb5e58116200007a578063efeb5e5814620003b8578063f14faf6f14620003cf578063f4374aea14620003e6578063f8626af8146200040957600080fd5b8063c93527d81462000379578063dac78dc41462000382578063ea8a1af014620003ae57600080fd5b80638456cb59146200030d578063913b722c146200031757806396f300d41462000330578063afc47ead146200033a578063c2ea6a7f1462000343578063c45a0155146200036557600080fd5b80633f4ba83a11620001665780634abfa163116200013d5780634abfa16314620002c15780635024f38114620002d85780635c975abb14620002ec578063809dab6a146200030357600080fd5b80633f4ba83a14620002a157806344b45c5014620002ad57806345f7f24914620002b757600080fd5b80630a2642bf14620001b457806312065fe014620001fc578063189ed35614620002155780631b20ea1f146200024557806321b3e6ad14620002685780632a9482cc1462000297575b600080fd5b620001cb620001c536600462001469565b62000446565b604080516001600160a01b039095168552602085019390935291830152151560608201526080015b60405180910390f35b620002066200048e565b604051908152602001620001f3565b6200022c62000226366004620014a0565b62000503565b6040516001600160a01b039091168152602001620001f3565b6200020662000256366004620014cd565b60106020526000908152604090205481565b6200022c62000279366004620014cd565b6001600160a01b039081166000908152601160205260409020541690565b62000206620009ca565b620002ab620009fc565b005b620002ab62000a84565b6200020660145481565b6200022c620002d236600462001469565b62000afe565b600b546200022c906001600160a01b031681565b60015460ff166040519015158152602001620001f3565b6200020662000b29565b620002ab62000b3d565b6200032162000bc1565b604051620001f39190620014f2565b6200032162000c25565b600e5462000206565b6200034d62000c87565b604051620001f39a99989796959493929190620015c2565b600c546200022c906001600160a01b031681565b600d5462000206565b6200022c62000393366004620014cd565b6011602052600090815260409020546001600160a01b031681565b620002ab62000f1a565b6200022c620003c936600462001469565b62000fad565b620002ab620003e036600462001469565b62000fbe565b62000206620003f7366004620014cd565b600f6020526000908152604090205481565b620004206200041a36600462001469565b62001319565b604080516001600160a01b039094168452602084019290925290820152606001620001f3565b600e81815481106200045757600080fd5b600091825260209091206004909102018054600182015460028301546003909301546001600160a01b039092169350919060ff1684565b600b546040516370a0823160e01b81523060048201526000916001600160a01b0316906370a0823190602401602060405180830381865afa158015620004d8573d6000803e3d6000fd5b505050506040513d601f19601f82011682018060405250810190620004fe919062001667565b905090565b60006200050f62001357565b6008546001600160a01b03163314806200053357506009546001600160a01b031633145b6200055b5760405162461bcd60e51b8152600401620005529062001681565b60405180910390fd5b6001600160a01b038316620005b35760405162461bcd60e51b815260206004820152601d60248201527f43616d706169676e3a20496e76616c69642062656e6566696369617279000000604482015260640162000552565b60008211620005d65760405162461bcd60e51b81526004016200055290620016c2565b81601454620005e691906200171f565b6005541015620006495760405162461bcd60e51b815260206004820152602760248201527f43616d706169676e3a20496e73756666696369656e742063616d706169676e2060448201526662616c616e636560c81b606482015260840162000552565b6001600160a01b03838116600090815260116020526040902054166200075157600b54600854600c5460405160009387936001600160a01b0391821693309391831692169062000699906200145b565b6001600160a01b0395861681529385166020850152918416604084015283166060830152909116608082015260a001604051809103906000f080158015620006e5573d6000803e3d6000fd5b506001600160a01b0380861660008181526011602052604081208054939094166001600160a01b0319938416179093556013805460018101825593527f66de8ffda797e3de9c05e8fc57b3bf0ec28a930d40b0d285d93c06501cf6a09090920180549091169091179055505b506001600160a01b038281166000908152601160205260409081902054600b54915163a9059cbb60e01b8152908316600482018190526024820185905292919091169063a9059cbb906044016020604051808303816000875af1158015620007bd573d6000803e3d6000fd5b505050506040513d601f19601f82011682018060405250810190620007e3919062001735565b620008315760405162461bcd60e51b815260206004820152601f60248201527f43616d706169676e3a20546f6b656e207472616e73666572206661696c656400604482015260640162000552565b81601460008282546200084591906200171f565b90915550506001600160a01b03831660009081526010602052604081208054849290620008749084906200171f565b9091555050604080516080810182526001600160a01b0385811680835260208084018781524285870181815260016060808901828152600e8054938401815560005298517fbb7b4a454dc3493923482f07822329ed19e8244eff582cc204f8554c3620c3fd600490930292830180546001600160a01b031916918a1691909117905593517fbb7b4a454dc3493923482f07822329ed19e8244eff582cc204f8554c3620c3fe82015590517fbb7b4a454dc3493923482f07822329ed19e8244eff582cc204f8554c3620c3ff82015595517fbb7b4a454dc3493923482f07822329ed19e8244eff582cc204f8554c3620c400909601805460ff191696151596909617909555855193871684529083018790529382019290925290917f15bfd4d6c6dd4a29c5579779dbdaefadc68af56a4222b638e6651dacb331bb7f910160405180910390a2620009c46001600055565b92915050565b6004546000908103620009dd5750600090565b600454600554620009f090606462001759565b620004fe919062001773565b6008546001600160a01b031633148062000a2057506009546001600160a01b031633145b62000a3f5760405162461bcd60e51b8152600401620005529062001681565b62000a4962001382565b6009805460ff60a01b19169055604051600080516020620035f18339815191529062000a7a90600090429062001796565b60405180910390a1565b6008546001600160a01b031633148062000aa857506009546001600160a01b031633145b62000ac75760405162461bcd60e51b8152600401620005529062001681565b6009805460ff60a01b1916600160a11b179055604051600080516020620035f18339815191529062000a7a90600290429062001796565b6012818154811062000b0f57600080fd5b6000918252602090912001546001600160a01b0316905081565b601454600554600091620004fe91620017b3565b6008546001600160a01b031633148062000b6157506009546001600160a01b031633145b62000b805760405162461bcd60e51b8152600401620005529062001681565b62000b8a620013d2565b6009805460ff60a01b1916600160a01b179055604051600080516020620035f18339815191529062000a7a90600190429062001796565b6060601380548060200260200160405190810160405280929190818152602001828054801562000c1b57602002820191906000526020600020905b81546001600160a01b0316815260019091019060200180831162000bfc575b5050505050905090565b6060601280548060200260200160405190810160405280929190818152602001828054801562000c1b576020028201919060005260206000209081546001600160a01b0316815260019091019060200180831162000bfc575050505050905090565b60028054819062000c9890620017c9565b80601f016020809104026020016040519081016040528092919081815260200182805462000cc690620017c9565b801562000d175780601f1062000ceb5761010080835404028352916020019162000d17565b820191906000526020600020905b81548152906001019060200180831162000cf957829003601f168201915b50505050509080600101805462000d2e90620017c9565b80601f016020809104026020016040519081016040528092919081815260200182805462000d5c90620017c9565b801562000dad5780601f1062000d815761010080835404028352916020019162000dad565b820191906000526020600020905b81548152906001019060200180831162000d8f57829003601f168201915b50505050509080600201549080600301549080600401805462000dd090620017c9565b80601f016020809104026020016040519081016040528092919081815260200182805462000dfe90620017c9565b801562000e4f5780601f1062000e235761010080835404028352916020019162000e4f565b820191906000526020600020905b81548152906001019060200180831162000e3157829003601f168201915b50505050509080600501805462000e6690620017c9565b80601f016020809104026020016040519081016040528092919081815260200182805462000e9490620017c9565b801562000ee55780601f1062000eb95761010080835404028352916020019162000ee5565b820191906000526020600020905b81548152906001019060200180831162000ec757829003601f168201915b505050506006830154600784015460089094015492936001600160a01b03918216939181169250600160a01b900460ff16908a565b6009546001600160a01b0316331462000f6d5760405162461bcd60e51b815260206004820152601460248201527321b0b6b830b4b3b71d1027b7363c9030b236b4b760611b604482015260640162000552565b6009805460ff60a01b1916600360a01b17905562000f8a620013d2565b600080516020620035f183398151915260034260405162000a7a92919062001796565b6013818154811062000b0f57600080fd5b62000fc862001357565b62000fd262001410565b6000600954600160a01b900460ff16600381111562000ff55762000ff562001589565b146200103b5760405162461bcd60e51b815260206004820152601460248201527343616d706169676e3a204e6f742061637469766560601b604482015260640162000552565b600081116200105e5760405162461bcd60e51b81526004016200055290620016c2565b600b546040516323b872dd60e01b8152336004820152306024820152604481018390526001600160a01b03909116906323b872dd906064016020604051808303816000875af1158015620010b6573d6000803e3d6000fd5b505050506040513d601f19601f82011682018060405250810190620010dc919062001735565b6200112a5760405162461bcd60e51b815260206004820152601f60248201527f43616d706169676e3a20546f6b656e207472616e73666572206661696c656400604482015260640162000552565b80600260030160008282546200114191906200171f565b9091555050336000908152600f60205260408120549003620011a057601280546001810182556000919091527fbb8a6a4669ba250d26cd7a459eca9d215f8307e33aebe50379bc5a3617ec34440180546001600160a01b031916331790555b336000908152600f602052604081208054839290620011c19084906200171f565b90915550506040805160608101825233808252602080830185815242848601818152600d805460018101825560009190915295517fd7b6990105719101dabeb77144f2a3385c8033acd3af97e9423a695e81ad1eb5600390970296870180546001600160a01b0319166001600160a01b0390921691909117905591517fd7b6990105719101dabeb77144f2a3385c8033acd3af97e9423a695e81ad1eb686015590517fd7b6990105719101dabeb77144f2a3385c8033acd3af97e9423a695e81ad1eb790940193909355835185815290810192909252917f4b0304ab2f313234b1cea012339c8f8c3bf2c8bb357d81a579cfdb35d2e3d030910160405180910390a2600454600554106200130b57600554604080519182524260208301527f85b3ed4e45559c5f41fb220aa4ac86a440dfc741f219089de694242940aaa09c910160405180910390a15b620013166001600055565b50565b600d81815481106200132a57600080fd5b60009182526020909120600390910201805460018201546002909201546001600160a01b03909116925083565b6002600054036200137b57604051633ee5aeb560e01b815260040160405180910390fd5b6002600055565b6200138c62001437565b6001805460ff191690557f5db9ee0a495bf2e6ff9c91a7834c1ba4fdd244a5e8aa4e537bd38aeae4b073aa335b6040516001600160a01b03909116815260200162000a7a565b620013dc62001410565b6001805460ff1916811790557f62e78cea01bee320cd4e420270b5ea74000d11b0c9f74754ebdbfc544b05a25833620013b9565b60015460ff1615620014355760405163d93c066560e01b815260040160405180910390fd5b565b60015460ff166200143557604051638dfc202b60e01b815260040160405180910390fd5b611deb806200180683390190565b6000602082840312156200147c57600080fd5b5035919050565b80356001600160a01b03811681146200149b57600080fd5b919050565b60008060408385031215620014b457600080fd5b620014bf8362001483565b946020939093013593505050565b600060208284031215620014e057600080fd5b620014eb8262001483565b9392505050565b6020808252825182820181905260009190848201906040850190845b81811015620015355783516001600160a01b0316835292840192918401916001016200150e565b50909695505050505050565b6000815180845260005b8181101562001569576020818501810151868301820152016200154b565b506000602082860101526020601f19601f83011685010191505092915050565b634e487b7160e01b600052602160045260246000fd5b60048110620015be57634e487b7160e01b600052602160045260246000fd5b9052565b6000610140808352620015d88184018e62001541565b90508281036020840152620015ee818d62001541565b90508a6040840152896060840152828103608084015262001610818a62001541565b905082810360a084015262001626818962001541565b6001600160a01b0388811660c0860152871660e085015291506200165190506101008301856200159f565b826101208301529b9a5050505050505050505050565b6000602082840312156200167a57600080fd5b5051919050565b60208082526021908201527f43616d706169676e3a204f6e6c79206f7267616e697a6572206f722061646d696040820152603760f91b606082015260800190565b60208082526027908201527f43616d706169676e3a20416d6f756e74206d75737420626520677265617465726040820152660207468616e20360cc1b606082015260800190565b634e487b7160e01b600052601160045260246000fd5b80820180821115620009c457620009c462001709565b6000602082840312156200174857600080fd5b81518015158114620014eb57600080fd5b8082028115828204841417620009c457620009c462001709565b6000826200179157634e487b7160e01b600052601260045260246000fd5b500490565b60408101620017a682856200159f565b8260208301529392505050565b81810381811115620009c457620009c462001709565b600181811c90821680620017de57607f821691505b602082108103620017ff57634e487b7160e01b600052602260045260246000fd5b5091905056fe60806040523480156200001157600080fd5b5060405162001deb38038062001deb8339810160408190526200003491620003a0565b60016000819055805460ff191690556001600160a01b038516620000ae5760405162461bcd60e51b815260206004820152602660248201527f42656e656669636961727957616c6c65743a20496e76616c69642062656e656660448201526569636961727960d01b60648201526084015b60405180910390fd5b6001600160a01b038416620001065760405162461bcd60e51b815260206004820181905260248201527f42656e656669636961727957616c6c65743a20496e76616c696420746f6b656e6044820152606401620000a5565b6001600160a01b0383166200016a5760405162461bcd60e51b815260206004820152602360248201527f42656e656669636961727957616c6c65743a20496e76616c69642063616d706160448201526234b3b760e91b6064820152608401620000a5565b6001600160a01b038216620001ce5760405162461bcd60e51b8152602060048201526024808201527f42656e656669636961727957616c6c65743a20496e76616c6964206f7267616e60448201526334bd32b960e11b6064820152608401620000a5565b6001600160a01b038116620002315760405162461bcd60e51b815260206004820152602260248201527f42656e656669636961727957616c6c65743a20496e76616c696420666163746f604482015261727960f01b6064820152608401620000a5565b60018054610100600160a81b0319166101006001600160a01b0397881602179055600280546001600160a01b03199081169587169590951790556003805485169386169390931790925560048054841691851691909117815560058054909316919093161790556007602052683635c9adc5dea000007f6d5257204ebe7d88fd91ae87941cb2dd9d8062b64ae5a2bd2d28ec40b9fbf6df55686c6b935b8bbd4000007fb39221ace053465ec3453ce2b36430bd138b997ecea25c1043da0c366812b8285569010f0cf064dd592000007fb7c774451310d1be4108bc180d1b52823cb0ee0274a6c0081bcaf94f115fb96d55685150ae84a8cdf000007f3be6fd20d5acfde5b873b48692cd31f4d3c7e8ee8a813af4696af8859e5ca6c655600052681b1ae4d6e2ef5000007fb805995a7ec585a251200611a61d179cfd7fb105e1ab17dc415a7336783786f75562000410565b80516001600160a01b03811681146200039b57600080fd5b919050565b600080600080600060a08688031215620003b957600080fd5b620003c48662000383565b9450620003d46020870162000383565b9350620003e46040870162000383565b9250620003f46060870162000383565b9150620004046080870162000383565b90509295509295909350565b6119cb80620004206000396000f3fe608060405234801561001057600080fd5b50600436106101585760003560e01c806361203265116100c35780639b5ceb351161007c5780639b5ceb351461030b578063a5edd5981461031e578063b5b00f9d14610331578063c45a015514610346578063eb81f82c14610359578063fb346eab1461036c57600080fd5b806361203265146102af5780636a5178ec146102c2578063811e539c146102d55780638456cb59146102e85780638e3ea405146102f057806392c8823b146102f857600080fd5b80633e934ee2116101155780633e934ee21461024e5780633f4ba83a146102615780635024f3811461026b578063524c62361461027e57806358fe9a6c146102915780635c975abb146102a457600080fd5b806307d062801461015d57806312065fe01461018a57806314f9a34e146101a05780631bb3d37e146101de57806333cd4280146101fe57806338af3eed1461021e575b600080fd5b61017061016b3660046113e9565b610375565b604051610181959493929190611480565b60405180910390f35b610192610451565b604051908152602001610181565b6101ce6101ae3660046114f3565b600960209081526000928352604080842090915290825290205460ff1681565b6040519015158152602001610181565b6101926101ec366004611526565b60076020526000908152604090205481565b61019261020c366004611526565b60086020526000908152604090205481565b6001546102369061010090046001600160a01b031681565b6040516001600160a01b039091168152602001610181565b61019261025c366004611526565b6104c3565b6102696105ba565b005b600254610236906001600160a01b031681565b61026961028c3660046114f3565b6105f7565b6101ce61029f3660046114f3565b61091f565b60015460ff166101ce565b600454610236906001600160a01b031681565b6102696102d036600461155e565b610976565b600354610236906001600160a01b031681565b610269610f0c565b600654610192565b6102366103063660046113e9565b610f3e565b6102696103193660046113e9565b610f68565b61026961032c3660046114f3565b610fff565b61033961117e565b604051610181919061163a565b600554610236906001600160a01b031681565b610269610367366004611687565b6111e0565b610192600b5481565b6006818154811061038557600080fd5b600091825260209091206005909102018054600182015460028301546003840180546001600160a01b039094169550919360ff909116929091906103c8906116b1565b80601f01602080910402602001604051908101604052809291908181526020018280546103f4906116b1565b80156104415780601f1061041657610100808354040283529160200191610441565b820191906000526020600020905b81548152906001019060200180831161042457829003601f168201915b5050505050908060040154905085565b6002546040516370a0823160e01b81523060048201526000916001600160a01b0316906370a0823190602401602060405180830381865afa15801561049a573d6000803e3d6000fd5b505050506040513d601f19601f820116820180604052508101906104be91906116eb565b905090565b6000600760008360048111156104db576104db611402565b60048111156104ec576104ec611402565b8152602001908152602001600020546008600084600481111561051157610511611402565b600481111561052257610522611402565b8152602001908152602001600020541061053e57506000919050565b6008600083600481111561055457610554611402565b600481111561056557610565611402565b8152602001908152602001600020546007600084600481111561058a5761058a611402565b600481111561059b5761059b611402565b8152602001908152602001600020546105b4919061171a565b92915050565b6004546001600160a01b031633146105ed5760405162461bcd60e51b81526004016105e49061172d565b60405180910390fd5b6105f56112eb565b565b6004546001600160a01b031633146106215760405162461bcd60e51b81526004016105e49061172d565b6001600160a01b0382166106475760405162461bcd60e51b81526004016105e49061176e565b6001600160a01b03821660009081526009602052604081209082600481111561067257610672611402565b600481111561068357610683611402565b815260208101919091526040016000205460ff16156106f05760405162461bcd60e51b815260206004820152602360248201527f42656e656669636961727957616c6c65743a20416c726561647920617070726f6044820152621d995960ea1b60648201526084016105e4565b60055460405163cc380b7360e01b81526001600160a01b0384811660048301529091169063cc380b7390602401602060405180830381865afa15801561073a573d6000803e3d6000fd5b505050506040513d601f19601f8201168201806040525081019061075e91906117b1565b6107c45760405162461bcd60e51b815260206004820152603160248201527f42656e656669636961727957616c6c65743a204d65726368616e74206e6f74206044820152703b32b934b334b2b210313c9030b236b4b760791b60648201526084016105e4565b6001600160a01b03821660009081526009602052604081206001918360048111156107f1576107f1611402565b600481111561080257610802611402565b815260208101919091526040016000908120805460ff1916921515929092179091556001905b600a5481101561088457836001600160a01b0316600a828154811061084f5761084f6117d3565b6000918252602090912001546001600160a01b0316036108725760009150610884565b8061087c816117e9565b915050610828565b5080156108d757600a80546001810182556000919091527fc65a7bb8d6351c1cf70c95a316cc6a92839c986682d98bc35f958f4883f9d2a80180546001600160a01b0319166001600160a01b0385161790555b826001600160a01b03167fe514158c560171b0281294f92504cc3c61ddd4828f20afd55551bab78b9994b28342604051610912929190611802565b60405180910390a2505050565b6001600160a01b03821660009081526009602052604081208183600481111561094a5761094a611402565b600481111561095b5761095b611402565b815260208101919091526040016000205460ff169392505050565b61097e61133d565b60015461010090046001600160a01b031633146109e95760405162461bcd60e51b815260206004820152602360248201527f42656e656669636961727957616c6c65743a204f6e6c792062656e656669636960448201526261727960e81b60648201526084016105e4565b6109f1611367565b6001600160a01b038416610a175760405162461bcd60e51b81526004016105e49061176e565b60008311610a805760405162461bcd60e51b815260206004820152603060248201527f42656e656669636961727957616c6c65743a20416d6f756e74206d757374206260448201526f0652067726561746572207468616e20360841b60648201526084016105e4565b6001600160a01b038416600090815260096020526040812090836004811115610aab57610aab611402565b6004811115610abc57610abc611402565b815260208101919091526040016000205460ff16610b425760405162461bcd60e51b815260206004820152603a60248201527f42656e656669636961727957616c6c65743a204d65726368616e74206e6f742060448201527f617070726f76656420666f7220746869732063617465676f727900000000000060648201526084016105e4565b60076000836004811115610b5857610b58611402565b6004811115610b6957610b69611402565b815260200190815260200160002054831115610be05760405162461bcd60e51b815260206004820152603060248201527f42656e656669636961727957616c6c65743a20416d6f756e742065786365656460448201526f1cc818d85d1959dbdc9e481b1a5b5a5d60821b60648201526084016105e4565b6002546040516370a0823160e01b815230600482015284916001600160a01b0316906370a0823190602401602060405180830381865afa158015610c28573d6000803e3d6000fd5b505050506040513d601f19601f82011682018060405250810190610c4c91906116eb565b1015610caa5760405162461bcd60e51b815260206004820152602760248201527f42656e656669636961727957616c6c65743a20496e73756666696369656e742060448201526662616c616e636560c81b60648201526084016105e4565b60025460405163a9059cbb60e01b81526001600160a01b038681166004830152602482018690529091169063a9059cbb906044016020604051808303816000875af1158015610cfd573d6000803e3d6000fd5b505050506040513d601f19601f82011682018060405250810190610d2191906117b1565b610d7e5760405162461bcd60e51b815260206004820152602860248201527f42656e656669636961727957616c6c65743a20546f6b656e207472616e7366656044820152671c8819985a5b195960c21b60648201526084016105e4565b82600b6000828254610d90919061181d565b9091555083905060086000846004811115610dad57610dad611402565b6004811115610dbe57610dbe611402565b81526020019081526020016000206000828254610ddb919061181d565b9250508190555060066040518060a00160405280866001600160a01b03168152602001858152602001846004811115610e1657610e16611402565b8152602080820185905242604092830152835460018082018655600095865294829020845160059092020180546001600160a01b0319166001600160a01b03909216919091178155908301518185015590820151600282018054939492939192909160ff191690836004811115610e8f57610e8f611402565b021790555060608201516003820190610ea8908261187f565b50608082015181600401555050836001600160a01b03167fb66bfc64b4488fe0613c82e850b9fa35e72e0b78b2555f050688dd65a099de7e84848442604051610ef4949392919061193f565b60405180910390a2610f066001600055565b50505050565b6004546001600160a01b03163314610f365760405162461bcd60e51b81526004016105e49061172d565b6105f561138b565b600a8181548110610f4e57600080fd5b6000918252602090912001546001600160a01b0316905081565b6003546001600160a01b03163314610fc25760405162461bcd60e51b815260206004820181905260248201527f42656e656669636961727957616c6c65743a204f6e6c792063616d706169676e60448201526064016105e4565b6040805182815242602082015233917f363f315f930a17d1266b86a20d6dd34b1cfbc5a9db9f13a65d06a689c3a2af8a910160405180910390a250565b6004546001600160a01b031633146110295760405162461bcd60e51b81526004016105e49061172d565b6001600160a01b03821660009081526009602052604081209082600481111561105457611054611402565b600481111561106557611065611402565b815260208101919091526040016000205460ff166110d65760405162461bcd60e51b815260206004820152602860248201527f42656e656669636961727957616c6c65743a204d65726368616e74206e6f7420604482015267185c1c1c9bdd995960c21b60648201526084016105e4565b6001600160a01b03821660009081526009602052604081208183600481111561110157611101611402565b600481111561111257611112611402565b815260200190815260200160002060006101000a81548160ff021916908315150217905550816001600160a01b03167f413d12dcc1b730c91e285c404a7c38f6c762e9f09e7a677cb782cca66c985aba8242604051611172929190611802565b60405180910390a25050565b6060600a8054806020026020016040519081016040528092919081815260200182805480156111d657602002820191906000526020600020905b81546001600160a01b031681526001909101906020018083116111b8575b5050505050905090565b6004546001600160a01b0316331461120a5760405162461bcd60e51b81526004016105e49061172d565b600081116112725760405162461bcd60e51b815260206004820152602f60248201527f42656e656669636961727957616c6c65743a204c696d6974206d75737420626560448201526e02067726561746572207468616e203608c1b60648201526084016105e4565b806007600084600481111561128957611289611402565b600481111561129a5761129a611402565b8152602001908152602001600020819055507f2230f604890630c99e3846a0e0b80662b2f64cec414e836f61046ca441f76fec8282426040516112df93929190611976565b60405180910390a15050565b6112f36113c6565b6001805460ff191690557f5db9ee0a495bf2e6ff9c91a7834c1ba4fdd244a5e8aa4e537bd38aeae4b073aa335b6040516001600160a01b03909116815260200160405180910390a1565b60026000540361136057604051633ee5aeb560e01b815260040160405180910390fd5b6002600055565b60015460ff16156105f55760405163d93c066560e01b815260040160405180910390fd5b611393611367565b6001805460ff1916811790557f62e78cea01bee320cd4e420270b5ea74000d11b0c9f74754ebdbfc544b05a25833611320565b60015460ff166105f557604051638dfc202b60e01b815260040160405180910390fd5b6000602082840312156113fb57600080fd5b5035919050565b634e487b7160e01b600052602160045260246000fd5b6005811061143657634e487b7160e01b600052602160045260246000fd5b9052565b6000815180845260005b8181101561146057602081850181015186830182015201611444565b506000602082860101526020601f19601f83011685010191505092915050565b6001600160a01b0386168152602081018590526114a06040820185611418565b60a0606082015260006114b660a083018561143a565b90508260808301529695505050505050565b80356001600160a01b03811681146114df57600080fd5b919050565b8035600581106114df57600080fd5b6000806040838503121561150657600080fd5b61150f836114c8565b915061151d602084016114e4565b90509250929050565b60006020828403121561153857600080fd5b611541826114e4565b9392505050565b634e487b7160e01b600052604160045260246000fd5b6000806000806080858703121561157457600080fd5b61157d856114c8565b935060208501359250611592604086016114e4565b9150606085013567ffffffffffffffff808211156115af57600080fd5b818701915087601f8301126115c357600080fd5b8135818111156115d5576115d5611548565b604051601f8201601f19908116603f011681019083821181831017156115fd576115fd611548565b816040528281528a602084870101111561161657600080fd5b82602086016020830137600060208483010152809550505050505092959194509250565b6020808252825182820181905260009190848201906040850190845b8181101561167b5783516001600160a01b031683529284019291840191600101611656565b50909695505050505050565b6000806040838503121561169a57600080fd5b6116a3836114e4565b946020939093013593505050565b600181811c908216806116c557607f821691505b6020821081036116e557634e487b7160e01b600052602260045260246000fd5b50919050565b6000602082840312156116fd57600080fd5b5051919050565b634e487b7160e01b600052601160045260246000fd5b818103818111156105b4576105b4611704565b60208082526021908201527f42656e656669636961727957616c6c65743a204f6e6c79206f7267616e697a656040820152603960f91b606082015260800190565b60208082526023908201527f42656e656669636961727957616c6c65743a20496e76616c6964206d65726368604082015262185b9d60ea1b606082015260800190565b6000602082840312156117c357600080fd5b8151801515811461154157600080fd5b634e487b7160e01b600052603260045260246000fd5b6000600182016117fb576117fb611704565b5060010190565b604081016118108285611418565b8260208301529392505050565b808201808211156105b4576105b4611704565b601f82111561187a57600081815260208120601f850160051c810160208610156118575750805b601f850160051c820191505b8181101561187657828155600101611863565b5050505b505050565b815167ffffffffffffffff81111561189957611899611548565b6118ad816118a784546116b1565b84611830565b602080601f8311600181146118e257600084156118ca5750858301515b600019600386901b1c1916600185901b178555611876565b600085815260208120601f198616915b82811015611911578886015182559484019460019091019084016118f2565b508582101561192f5787850151600019600388901b60f8161c191681555b5050505050600190811b01905550565b84815261194f6020820185611418565b608060408201526000611965608083018561143a565b905082606083015295945050505050565b606081016119848286611418565b60208201939093526040015291905056fea264697066735822122097d502b823c7ff10465a8d80cce539ae3a2ed063f44a1ae4ce9fbec6c06a2d3f64736f6c6343000814003340a180796b90921dd8508eb434c78206ca5c737a0d584582edf399bc9711d9e9a264697066735822122016683340159b4c81a21cf10bc71cd5d642efa7a023a91a02c385a6a14fbd6ba464736f6c63430008140033a2646970667358221220f32ff4564c807c84658f8dc3c636036ca50cdf74a1aa03f975bb43b01f40e64264736f6c63430008140033",
  "linkReferences": {},
  "deployedLinkReferences": {}
}