{
  "_format": "hh-sol-artifact-1",
  "contractName": "Campaign",
  "sourceName": "contracts/Campaign.sol",
  "abi": [
    {
      "inputs": [
        {
          "internalType": "address",
          "name": "_organizer",
          "type": "address"
        },
        {
          "internalType": "address",
          "name": "_admin",
          "type": "address"
        },
        {
          "internalType": "address",
          "name": "_reliefToken",
          "type": "address"
        },
        {
          "internalType": "string",
          "name": "_title",
          "type": "string"
        },
        {
          "internalType": "string",
          "name": "_description",
          "type": "string"
        },
        {
          "internalType": "uint256",
          "name": "_goalAmount",
          "type": "uint256"
        },
        {
          "internalType": "string",
          "name": "_location",
          "type": "string"
        },
        {
          "internalType": "string",
          "name": "_disasterType",
          "type": "string"
        }
      ],
      "stateMutability": "nonpayable",
      "type": "constructor"
    },
    {
      "inputs": [],
      "name": "EnforcedPause",
      "type": "error"
    },
    {
      "inputs": [],
      "name": "ExpectedPause",
      "type": "error"
    },
    {
      "inputs": [],
      "name": "ReentrancyGuardReentrantCall",
      "type": "error"
    },
    {
      "anonymous": false,
      "inputs": [
        {
          "indexed": true,
          "internalType": "address",
          "name": "donor",
          "type": "address"
        },
        {
          "indexed": false,
          "internalType": "uint256",
          "name": "amount",
          "type": "uint256"
        },
        {
          "indexed": false,
          "internalType": "uint256",
          "name": "timestamp",
          "type": "uint256"
        }
      ],
      "name": "DonationReceived",
      "type": "event"
    },
    {
      "anonymous": false,
      "inputs": [
        {
          "indexed": true,
          "internalType": "address",
          "name": "beneficiary",
          "type": "address"
        },
        {
          "indexed": false,
          "internalType": "address",
          "name": "walletAddress",
          "type": "address"
        },
        {
          "indexed": false,
          "internalType": "uint256",
          "name": "amount",
          "type": "uint256"
        },
        {
          "indexed": false,
          "internalType": "uint256",
          "name": "timestamp",
          "type": "uint256"
        }
      ],
      "name": "FundsAllocated",
      "type": "event"
    },
    {
      "anonymous": false,
      "inputs": [
        {
          "indexed": false,
          "internalType": "uint256",
          "name": "totalRaised",
          "type": "uint256"
        },
        {
          "indexed": false,
          "internalType": "uint256",
          "name": "timestamp",
          "type": "uint256"
        }
      ],
      "name": "GoalReached",
      "type": "event"
    },
    {
      "anonymous": false,
      "inputs": [
        {
          "indexed": false,
          "internalType": "address",
          "name": "account",
          "type": "address"
        }
      ],
      "name": "Paused",
      "type": "event"
    },
    {
      "anonymous": false,
      "inputs": [
        {
          "indexed": false,
          "internalType": "enum Campaign.CampaignStatus",
          "name": "newStatus",
          "type": "uint8"
        },
        {
          "indexed": false,
          "internalType": "uint256",
          "name": "timestamp",
          "type": "uint256"
        }
      ],
      "name": "StatusChanged",
      "type": "event"
    },
    {
      "anonymous": false,
      "inputs": [
        {
          "indexed": false,
          "internalType": "address",
          "name": "account",
          "type": "address"
        }
      ],
      "name": "Unpaused",
      "type": "event"
    },
    {
      "inputs": [
        {
          "internalType": "address",
          "name": "beneficiary",
          "type": "address"
        },
        {
          "internalType": "uint256",
          "name": "amount",
          "type": "uint256"
        }
      ],
      "name": "allocateFunds",
      "outputs": [
        {
          "internalType": "address",
          "name": "walletAddress",
          "type": "address"
        }
      ],
      "stateMutability": "nonpayable",
      "type": "function"
    },
    {
      "inputs": [
        {
          "internalType": "uint256",
          "name": "",
          "type": "uint256"
        }
      ],
      "name": "allocations",
      "outputs": [
        {
          "internalType": "address",
          "name": "beneficiary",
          "type": "address"
        },
        {
          "internalType": "uint256",
          "name": "amount",
          "type": "uint256"
        },
        {
          "internalType": "uint256",
          "name": "timestamp",
          "type": "uint256"
        },
        {
          "internalType": "bool",
          "name": "executed",
          "type": "bool"
        }
      ],
      "stateMutability": "view",
      "type": "function"
    },
    {
      "inputs": [
        {
          "internalType": "uint256",
          "name": "",
          "type": "uint256"
        }
      ],
      "name": "beneficiaries",
      "outputs": [
        {
          "internalType": "address",
          "name": "",
          "type": "address"
        }
      ],
      "stateMutability": "view",
      "type": "function"
    },
    {
      "inputs": [
        {
          "internalType": "address",
          "name": "",
          "type": "address"
        }
      ],
      "name": "beneficiaryAllocations",
      "outputs": [
        {
          "internalType": "uint256",
          "name": "",
          "type": "uint256"
        }
      ],
      "stateMutability": "view",
      "type": "function"
    },
    {
      "inputs": [
        {
          "internalType": "address",
          "name": "",
          "type": "address"
        }
      ],
      "name": "beneficiaryWallets",
      "outputs": [
        {
          "internalType": "address",
          "name": "",
          "type": "address"
        }
      ],
      "stateMutability": "view",
      "type": "function"
    },
    {
      "inputs": [],
      "name": "campaignInfo",
      "outputs": [
        {
          "internalType": "string",
          "name": "title",
          "type": "string"
        },
        {
          "internalType": "string",
          "name": "description",
          "type": "string"
        },
        {
          "internalType": "uint256",
          "name": "goalAmount",
          "type": "uint256"
        },
        {
          "internalType": "uint256",
          "name": "raisedAmount",
          "type": "uint256"
        },
        {
          "internalType": "string",
          "name": "location",
          "type": "string"
        },
        {
          "internalType": "string",
          "name": "disasterType",
          "type": "string"
        },
        {
          "internalType": "address",
          "name": "organizer",
          "type": "address"
        },
        {
          "internalType": "address",
          "name": "admin",
          "type": "address"
        },
        {
          "internalType": "enum Campaign.CampaignStatus",
          "name": "status",
          "type": "uint8"
        },
        {
          "internalType": "uint256",
          "name": "createdAt",
          "type": "uint256"
        }
      ],
      "stateMutability": "view",
      "type": "function"
    },
    {
      "inputs": [],
      "name": "cancel",
      "outputs": [],
      "stateMutability": "nonpayable",
      "type": "function"
    },
    {
      "inputs": [
        {
          "internalType": "uint256",
          "name": "amount",
          "type": "uint256"
        }
      ],
      "name": "donate",
      "outputs": [],
      "stateMutability": "nonpayable",
      "type": "function"
    },
    {
      "inputs": [
        {
          "internalType": "uint256",
          "name": "",
          "type": "uint256"
        }
      ],
      "name": "donations",
      "outputs": [
        {
          "internalType": "address",
          "name": "donor",
          "type": "address"
        },
        {
          "internalType": "uint256",
          "name": "amount",
          "type": "uint256"
        },
        {
          "internalType": "uint256",
          "name": "timestamp",
          "type": "uint256"
        }
      ],
      "stateMutability": "view",
      "type": "function"
    },
    {
      "inputs": [
        {
          "internalType": "address",
          "name": "",
          "type": "address"
        }
      ],
      "name": "donorContributions",
      "outputs": [
        {
          "internalType": "uint256",
          "name": "",
          "type": "uint256"
        }
      ],
      "stateMutability": "view",
      "type": "function"
    },
    {
      "inputs": [
        {
          "internalType": "uint256",
          "name": "",
          "type": "uint256"
        }
      ],
      "name": "donors",
      "outputs": [
        {
          "internalType": "address",
          "name": "",
          "type": "address"
        }
      ],
      "stateMutability": "view",
      "type": "function"
    },
    {
      "inputs": [],
      "name": "getAllocationsCount",
      "outputs": [
        {
          "internalType": "uint256",
          "name": "",
          "type": "uint256"
        }
      ],
      "stateMutability": "view",
      "type": "function"
    },
    {
      "inputs": [],
      "name": "getAvailableBalance",
      "outputs": [
        {
          "internalType": "uint256",
          "name": "",
          "type": "uint256"
        }
      ],
      "stateMutability": "view",
      "type": "function"
    },
    {
      "inputs": [],
      "name": "getBalance",
      "outputs": [
        {
          "internalType": "uint256",
          "name": "",
          "type": "uint256"
        }
      ],
      "stateMutability": "view",
      "type": "function"
    },
    {
      "inputs": [],
      "name": "getBeneficiaries",
      "outputs": [
        {
          "internalType": "address[]",
          "name": "",
          "type": "address[]"
        }
      ],
      "stateMutability": "view",
      "type": "function"
    },
    {
      "inputs": [
        {
          "internalType": "address",
          "name": "beneficiary",
          "type": "address"
        }
      ],
      "name": "getBeneficiaryWallet",
      "outputs": [
        {
          "internalType": "address",
          "name": "",
          "type": "address"
        }
      ],
      "stateMutability": "view",
      "type": "function"
    },
    {
      "inputs": [],
      "name": "getCompletionPercentage",
      "outputs": [
        {
          "internalType": "uint256",
          "name": "",
          "type": "uint256"
        }
      ],
      "stateMutability": "view",
      "type": "function"
    },
    {
      "inputs": [],
      "name": "getDonationsCount",
      "outputs": [
        {
          "internalType": "uint256",
          "name": "",
          "type": "uint256"
        }
      ],
      "stateMutability": "view",
      "type": "function"
    },
    {
      "inputs": [],
      "name": "getDonors",
      "outputs": [
        {
          "internalType": "address[]",
          "name": "",
          "type": "address[]"
        }
      ],
      "stateMutability": "view",
      "type": "function"
    },
    {
      "inputs": [],
      "name": "markCompleted",
      "outputs": [],
      "stateMutability": "nonpayable",
      "type": "function"
    },
    {
      "inputs": [],
      "name": "pause",
      "outputs": [],
      "stateMutability": "nonpayable",
      "type": "function"
    },
    {
      "inputs": [],
      "name": "paused",
      "outputs": [
        {
          "internalType": "bool",
          "name": "",
          "type": "bool"
        }
      ],
      "stateMutability": "view",
      "type": "function"
    },
    {
      "inputs": [],
      "name": "reliefToken",
      "outputs": [
        {
          "internalType": "contract IERC20",
          "name": "",
          "type": "address"
        }
      ],
      "stateMutability": "view",
      "type": "function"
    },
    {
      "inputs": [],
      "name": "totalAllocated",
      "outputs": [
        {
          "internalType": "uint256",
          "name": "",
          "type": "uint256"
        }
      ],
      "stateMutability": "view",
      "type": "function"
    },
    {
      "inputs": [],
      "name": "unpause",
      "outputs": [],
      "stateMutability": "nonpayable",
      "type": "function"
    }
  ],
  "bytecode": "0x60806040523480156200001157600080fd5b5060405162003b1e38038062003b1e833981016040819052620000349162000410565b60016000819055805460ff191690556001600160a01b0388166200009f5760405162461bcd60e51b815260206004820152601b60248201527f43616d706169676e3a20496e76616c6964206f7267616e697a6572000000000060448201526064015b60405180910390fd5b6001600160a01b038716620000f75760405162461bcd60e51b815260206004820152601760248201527f43616d706169676e3a20496e76616c69642061646d696e000000000000000000604482015260640162000096565b6001600160a01b0386166200014f5760405162461bcd60e51b815260206004820152601760248201527f43616d706169676e3a20496e76616c696420746f6b656e000000000000000000604482015260640162000096565b60008311620001a15760405162461bcd60e51b815260206004820152601d60248201527f43616d706169676e3a20496e76616c696420676f616c20616d6f756e74000000604482015260640162000096565b85600b60006101000a8154816001600160a01b0302191690836001600160a01b0316021790555060405180610140016040528086815260200185815260200184815260200160008152602001838152602001828152602001896001600160a01b03168152602001886001600160a01b03168152602001600060038111156200022d576200022d6200050c565b81524260209091015280516002908190620002499082620005b1565b5060208201516001820190620002609082620005b1565b506040820151600282015560608201516003820155608082015160048201906200028b9082620005b1565b5060a08201516005820190620002a29082620005b1565b5060c08201516006820180546001600160a01b03199081166001600160a01b039384161790915560e084015160078401805492831691909316908117835561010085015192916001600160a81b03191617600160a01b8360038111156200030d576200030d6200050c565b0217905550610120820151816008015590505050505050505050506200067d565b80516001600160a01b03811681146200034657600080fd5b919050565b634e487b7160e01b600052604160045260246000fd5b600082601f8301126200037357600080fd5b81516001600160401b03808211156200039057620003906200034b565b604051601f8301601f19908116603f01168101908282118183101715620003bb57620003bb6200034b565b81604052838152602092508683858801011115620003d857600080fd5b600091505b83821015620003fc5785820183015181830184015290820190620003dd565b600093810190920192909252949350505050565b600080600080600080600080610100898b0312156200042e57600080fd5b62000439896200032e565b97506200044960208a016200032e565b96506200045960408a016200032e565b60608a01519096506001600160401b03808211156200047757600080fd5b620004858c838d0162000361565b965060808b01519150808211156200049c57600080fd5b620004aa8c838d0162000361565b955060a08b0151945060c08b0151915080821115620004c857600080fd5b620004d68c838d0162000361565b935060e08b0151915080821115620004ed57600080fd5b50620004fc8b828c0162000361565b9150509295985092959890939650565b634e487b7160e01b600052602160045260246000fd5b600181811c908216806200053757607f821691505b6020821081036200055857634e487b7160e01b600052602260045260246000fd5b50919050565b601f821115620005ac57600081815260208120601f850160051c81016020861015620005875750805b601f850160051c820191505b81811015620005a85782815560010162000593565b5050505b505050565b81516001600160401b03811115620005cd57620005cd6200034b565b620005e581620005de845462000522565b846200055e565b602080601f8311600181146200061d5760008415620006045750858301515b600019600386901b1c1916600185901b178555620005a8565b600085815260208120601f198616915b828110156200064e578886015182559484019460019091019084016200062d565b50858210156200066d5787850151600019600388901b60f8161c191681555b5050505050600190811b01905550565b613491806200068d6000396000f3fe60806040523480156200001157600080fd5b5060043610620001925760003560e01c8063809dab6a11620000f0578063c93527d811620000a3578063efeb5e58116200007a578063efeb5e581462000387578063f14faf6f146200039e578063f4374aea14620003b5578063f8626af814620003d857600080fd5b8063c93527d81462000348578063dac78dc41462000351578063ea8a1af0146200037d57600080fd5b8063809dab6a14620002e65780638456cb5914620002f0578063913b722c14620002fa57806396f300d41462000313578063afc47ead146200031d578063c2ea6a7f146200032657600080fd5b80633f4ba83a11620001495780633f4ba83a146200028457806344b45c50146200029057806345f7f249146200029a5780634abfa16314620002a45780635024f38114620002bb5780635c975abb14620002cf57600080fd5b80630a2642bf146200019757806312065fe014620001df578063189ed35614620001f85780631b20ea1f146200022857806321b3e6ad146200024b5780632a9482cc146200027a575b600080fd5b620001ae620001a83660046200142c565b62000415565b604080516001600160a01b039095168552602085019390935291830152151560608201526080015b60405180910390f35b620001e96200045d565b604051908152602001620001d6565b6200020f6200020936600462001463565b620004d2565b6040516001600160a01b039091168152602001620001d6565b620001e96200023936600462001490565b600f6020526000908152604090205481565b6200020f6200025c36600462001490565b6001600160a01b039081166000908152601060205260409020541690565b620001e96200098d565b6200028e620009bf565b005b6200028e62000a47565b620001e960135481565b6200020f620002b53660046200142c565b62000ac1565b600b546200020f906001600160a01b031681565b60015460ff166040519015158152602001620001d6565b620001e962000aec565b6200028e62000b00565b6200030462000b84565b604051620001d69190620014b5565b6200030462000be8565b600d54620001e9565b6200033062000c4a565b604051620001d69a9998979695949392919062001585565b600c54620001e9565b6200020f6200036236600462001490565b6010602052600090815260409020546001600160a01b031681565b6200028e62000edd565b6200020f620003983660046200142c565b62000f70565b6200028e620003af3660046200142c565b62000f81565b620001e9620003c636600462001490565b600e6020526000908152604090205481565b620003ef620003e93660046200142c565b620012dc565b604080516001600160a01b039094168452602084019290925290820152606001620001d6565b600d81815481106200042657600080fd5b600091825260209091206004909102018054600182015460028301546003909301546001600160a01b039092169350919060ff1684565b600b546040516370a0823160e01b81523060048201526000916001600160a01b0316906370a0823190602401602060405180830381865afa158015620004a7573d6000803e3d6000fd5b505050506040513d601f19601f82011682018060405250810190620004cd91906200162a565b905090565b6000620004de6200131a565b6008546001600160a01b03163314806200050257506009546001600160a01b031633145b6200052a5760405162461bcd60e51b8152600401620005219062001644565b60405180910390fd5b6001600160a01b038316620005825760405162461bcd60e51b815260206004820152601d60248201527f43616d706169676e3a20496e76616c69642062656e6566696369617279000000604482015260640162000521565b60008211620005a55760405162461bcd60e51b8152600401620005219062001685565b81601354620005b59190620016e2565b6005541015620006185760405162461bcd60e51b815260206004820152602760248201527f43616d706169676e3a20496e73756666696369656e742063616d706169676e2060448201526662616c616e636560c81b606482015260840162000521565b6001600160a01b03838116600090815260106020526040902054166200071457600b5460085460405160009286926001600160a01b039182169230929091169062000663906200141e565b6001600160a01b039485168152928416602084015290831660408301529091166060820152608001604051809103906000f080158015620006a8573d6000803e3d6000fd5b506001600160a01b0380861660008181526010602052604081208054939094166001600160a01b0319938416179093556012805460018101825593527fbb8a6a4669ba250d26cd7a459eca9d215f8307e33aebe50379bc5a3617ec344490920180549091169091179055505b506001600160a01b038281166000908152601060205260409081902054600b54915163a9059cbb60e01b8152908316600482018190526024820185905292919091169063a9059cbb906044016020604051808303816000875af115801562000780573d6000803e3d6000fd5b505050506040513d601f19601f82011682018060405250810190620007a69190620016f8565b620007f45760405162461bcd60e51b815260206004820152601f60248201527f43616d706169676e3a20546f6b656e207472616e73666572206661696c656400604482015260640162000521565b8160136000828254620008089190620016e2565b90915550506001600160a01b0383166000908152600f60205260408120805484929062000837908490620016e2565b9091555050604080516080810182526001600160a01b0385811680835260208084018781524285870181815260016060808901828152600d8054938401815560005298517fd7b6990105719101dabeb77144f2a3385c8033acd3af97e9423a695e81ad1eb5600490930292830180546001600160a01b031916918a1691909117905593517fd7b6990105719101dabeb77144f2a3385c8033acd3af97e9423a695e81ad1eb682015590517fd7b6990105719101dabeb77144f2a3385c8033acd3af97e9423a695e81ad1eb782015595517fd7b6990105719101dabeb77144f2a3385c8033acd3af97e9423a695e81ad1eb8909601805460ff191696151596909617909555855193871684529083018790529382019290925290917f15bfd4d6c6dd4a29c5579779dbdaefadc68af56a4222b638e6651dacb331bb7f910160405180910390a2620009876001600055565b92915050565b6004546000908103620009a05750600090565b600454600554620009b39060646200171c565b620004cd919062001736565b6008546001600160a01b0316331480620009e357506009546001600160a01b031633145b62000a025760405162461bcd60e51b8152600401620005219062001644565b62000a0c62001345565b6009805460ff60a01b191690556040516000805160206200343c8339815191529062000a3d90600090429062001759565b60405180910390a1565b6008546001600160a01b031633148062000a6b57506009546001600160a01b031633145b62000a8a5760405162461bcd60e51b8152600401620005219062001644565b6009805460ff60a01b1916600160a11b1790556040516000805160206200343c8339815191529062000a3d90600290429062001759565b6011818154811062000ad257600080fd5b6000918252602090912001546001600160a01b0316905081565b601354600554600091620004cd9162001776565b6008546001600160a01b031633148062000b2457506009546001600160a01b031633145b62000b435760405162461bcd60e51b8152600401620005219062001644565b62000b4d62001395565b6009805460ff60a01b1916600160a01b1790556040516000805160206200343c8339815191529062000a3d90600190429062001759565b6060601280548060200260200160405190810160405280929190818152602001828054801562000bde57602002820191906000526020600020905b81546001600160a01b0316815260019091019060200180831162000bbf575b5050505050905090565b6060601180548060200260200160405190810160405280929190818152602001828054801562000bde576020028201919060005260206000209081546001600160a01b0316815260019091019060200180831162000bbf575050505050905090565b60028054819062000c5b906200178c565b80601f016020809104026020016040519081016040528092919081815260200182805462000c89906200178c565b801562000cda5780601f1062000cae5761010080835404028352916020019162000cda565b820191906000526020600020905b81548152906001019060200180831162000cbc57829003601f168201915b50505050509080600101805462000cf1906200178c565b80601f016020809104026020016040519081016040528092919081815260200182805462000d1f906200178c565b801562000d705780601f1062000d445761010080835404028352916020019162000d70565b820191906000526020600020905b81548152906001019060200180831162000d5257829003601f168201915b50505050509080600201549080600301549080600401805462000d93906200178c565b80601f016020809104026020016040519081016040528092919081815260200182805462000dc1906200178c565b801562000e125780601f1062000de65761010080835404028352916020019162000e12565b820191906000526020600020905b81548152906001019060200180831162000df457829003601f168201915b50505050509080600501805462000e29906200178c565b80601f016020809104026020016040519081016040528092919081815260200182805462000e57906200178c565b801562000ea85780601f1062000e7c5761010080835404028352916020019162000ea8565b820191906000526020600020905b81548152906001019060200180831162000e8a57829003601f168201915b505050506006830154600784015460089094015492936001600160a01b03918216939181169250600160a01b900460ff16908a565b6009546001600160a01b0316331462000f305760405162461bcd60e51b815260206004820152601460248201527321b0b6b830b4b3b71d1027b7363c9030b236b4b760611b604482015260640162000521565b6009805460ff60a01b1916600360a01b17905562000f4d62001395565b6000805160206200343c83398151915260034260405162000a3d92919062001759565b6012818154811062000ad257600080fd5b62000f8b6200131a565b62000f95620013d3565b6000600954600160a01b900460ff16600381111562000fb85762000fb86200154c565b1462000ffe5760405162461bcd60e51b815260206004820152601460248201527343616d706169676e3a204e6f742061637469766560601b604482015260640162000521565b60008111620010215760405162461bcd60e51b8152600401620005219062001685565b600b546040516323b872dd60e01b8152336004820152306024820152604481018390526001600160a01b03909116906323b872dd906064016020604051808303816000875af115801562001079573d6000803e3d6000fd5b505050506040513d601f19601f820116820180604052508101906200109f9190620016f8565b620010ed5760405162461bcd60e51b815260206004820152601f60248201527f43616d706169676e3a20546f6b656e207472616e73666572206661696c656400604482015260640162000521565b8060026003016000828254620011049190620016e2565b9091555050336000908152600e602052604081205490036200116357601180546001810182556000919091527f31ecc21a745e3968a04e9570e4425bc18fa8019c68028196b546d1669c200c680180546001600160a01b031916331790555b336000908152600e60205260408120805483929062001184908490620016e2565b90915550506040805160608101825233808252602080830185815242848601818152600c805460018101825560009190915295517fdf6966c971051c3d54ec59162606531493a51404a002842f56009d7e5cf4a8c7600390970296870180546001600160a01b0319166001600160a01b0390921691909117905591517fdf6966c971051c3d54ec59162606531493a51404a002842f56009d7e5cf4a8c886015590517fdf6966c971051c3d54ec59162606531493a51404a002842f56009d7e5cf4a8c990940193909355835185815290810192909252917f4b0304ab2f313234b1cea012339c8f8c3bf2c8bb357d81a579cfdb35d2e3d030910160405180910390a260045460055410620012ce57600554604080519182524260208301527f85b3ed4e45559c5f41fb220aa4ac86a440dfc741f219089de694242940aaa09c910160405180910390a15b620012d96001600055565b50565b600c8181548110620012ed57600080fd5b60009182526020909120600390910201805460018201546002909201546001600160a01b03909116925083565b6002600054036200133e57604051633ee5aeb560e01b815260040160405180910390fd5b6002600055565b6200134f620013fa565b6001805460ff191690557f5db9ee0a495bf2e6ff9c91a7834c1ba4fdd244a5e8aa4e537bd38aeae4b073aa335b6040516001600160a01b03909116815260200162000a3d565b6200139f620013d3565b6001805460ff1916811790557f62e78cea01bee320cd4e420270b5ea74000d11b0c9f74754ebdbfc544b05a258336200137c565b60015460ff1615620013f85760405163d93c066560e01b815260040160405180910390fd5b565b60015460ff16620013f857604051638dfc202b60e01b815260040160405180910390fd5b611c7380620017c983390190565b6000602082840312156200143f57600080fd5b5035919050565b80356001600160a01b03811681146200145e57600080fd5b919050565b600080604083850312156200147757600080fd5b620014828362001446565b946020939093013593505050565b600060208284031215620014a357600080fd5b620014ae8262001446565b9392505050565b6020808252825182820181905260009190848201906040850190845b81811015620014f85783516001600160a01b031683529284019291840191600101620014d1565b50909695505050505050565b6000815180845260005b818110156200152c576020818501810151868301820152016200150e565b506000602082860101526020601f19601f83011685010191505092915050565b634e487b7160e01b600052602160045260246000fd5b600481106200158157634e487b7160e01b600052602160045260246000fd5b9052565b60006101408083526200159b8184018e62001504565b90508281036020840152620015b1818d62001504565b90508a60408401528960608401528281036080840152620015d3818a62001504565b905082810360a0840152620015e9818962001504565b6001600160a01b0388811660c0860152871660e0850152915062001614905061010083018562001562565b826101208301529b9a5050505050505050505050565b6000602082840312156200163d57600080fd5b5051919050565b60208082526021908201527f43616d706169676e3a204f6e6c79206f7267616e697a6572206f722061646d696040820152603760f91b606082015260800190565b60208082526027908201527f43616d706169676e3a20416d6f756e74206d75737420626520677265617465726040820152660207468616e20360cc1b606082015260800190565b634e487b7160e01b600052601160045260246000fd5b80820180821115620009875762000987620016cc565b6000602082840312156200170b57600080fd5b81518015158114620014ae57600080fd5b8082028115828204841417620009875762000987620016cc565b6000826200175457634e487b7160e01b600052601260045260246000fd5b500490565b6040810162001769828562001562565b8260208301529392505050565b81810381811115620009875762000987620016cc565b600181811c90821680620017a157607f821691505b602082108103620017c257634e487b7160e01b600052602260045260246000fd5b5091905056fe60806040523480156200001157600080fd5b5060405162001c7338038062001c7383398101604081905262000034916200032d565b60016000819055805460ff191690556001600160a01b038416620000ae5760405162461bcd60e51b815260206004820152602660248201527f42656e656669636961727957616c6c65743a20496e76616c69642062656e656660448201526569636961727960d01b60648201526084015b60405180910390fd5b6001600160a01b038316620001065760405162461bcd60e51b815260206004820181905260248201527f42656e656669636961727957616c6c65743a20496e76616c696420746f6b656e6044820152606401620000a5565b6001600160a01b0382166200016a5760405162461bcd60e51b815260206004820152602360248201527f42656e656669636961727957616c6c65743a20496e76616c69642063616d706160448201526234b3b760e91b6064820152608401620000a5565b6001600160a01b038116620001ce5760405162461bcd60e51b8152602060048201526024808201527f42656e656669636961727957616c6c65743a20496e76616c6964206f7267616e60448201526334bd32b960e11b6064820152608401620000a5565b600180546001600160a01b0395861661010002610100600160a81b0319909116179055600280549385166001600160a01b03199485161790556003805492851692841692909217909155600480549190931691161781556006602052683635c9adc5dea000007f54cdd369e4e8a8515e52ca72ec816c2101831ad1f18bf44102ed171459c9b4f855686c6b935b8bbd4000007f3e5fec24aa4dc4e5aee2e025e51e1392c72a2500577559fae9665c6d52bd6a315569010f0cf064dd592000007f8819ef417987f8ae7a81f42cdfb18815282fe989326fbff903d13cf0e03ace2955685150ae84a8cdf000007f75f96ab15d697e93042dc45b5c896c4b27e89bb6eaf39475c5c371cb2513f7d255600052681b1ae4d6e2ef5000007fc5069e24aaadb2addc3e52e868fcf3f4f8acf5a87e24300992fd4540c2a87eed556200038a565b80516001600160a01b03811681146200032857600080fd5b919050565b600080600080608085870312156200034457600080fd5b6200034f8562000310565b93506200035f6020860162000310565b92506200036f6040860162000310565b91506200037f6060860162000310565b905092959194509250565b6118d9806200039a6000396000f3fe608060405234801561001057600080fd5b506004361061014d5760003560e01c80635c975abb116100c357806392c8823b1161007c57806392c8823b146102ed5780639b5ceb3514610300578063a5edd59814610313578063b5b00f9d14610326578063eb81f82c1461033b578063fb346eab1461034e57600080fd5b80635c975abb1461029957806361203265146102a45780636a5178ec146102b7578063811e539c146102ca5780638456cb59146102dd5780638e3ea405146102e557600080fd5b806338af3eed1161011557806338af3eed146102135780633e934ee2146102435780633f4ba83a146102565780635024f38114610260578063524c62361461027357806358fe9a6c1461028657600080fd5b806307d062801461015257806312065fe01461017f57806314f9a34e146101955780631bb3d37e146101d357806333cd4280146101f3575b600080fd5b6101656101603660046112f7565b610357565b60405161017695949392919061138e565b60405180910390f35b610187610433565b604051908152602001610176565b6101c36101a3366004611401565b600860209081526000928352604080842090915290825290205460ff1681565b6040519015158152602001610176565b6101876101e1366004611434565b60066020526000908152604090205481565b610187610201366004611434565b60076020526000908152604090205481565b60015461022b9061010090046001600160a01b031681565b6040516001600160a01b039091168152602001610176565b610187610251366004611434565b6104a5565b61025e61059c565b005b60025461022b906001600160a01b031681565b61025e610281366004611401565b6105d9565b6101c3610294366004611401565b61082d565b60015460ff166101c3565b60045461022b906001600160a01b031681565b61025e6102c536600461146c565b610884565b60035461022b906001600160a01b031681565b61025e610e1a565b600554610187565b61022b6102fb3660046112f7565b610e4c565b61025e61030e3660046112f7565b610e76565b61025e610321366004611401565b610f0d565b61032e61108c565b6040516101769190611548565b61025e610349366004611595565b6110ee565b610187600a5481565b6005818154811061036757600080fd5b600091825260209091206005909102018054600182015460028301546003840180546001600160a01b039094169550919360ff909116929091906103aa906115bf565b80601f01602080910402602001604051908101604052809291908181526020018280546103d6906115bf565b80156104235780601f106103f857610100808354040283529160200191610423565b820191906000526020600020905b81548152906001019060200180831161040657829003601f168201915b5050505050908060040154905085565b6002546040516370a0823160e01b81523060048201526000916001600160a01b0316906370a0823190602401602060405180830381865afa15801561047c573d6000803e3d6000fd5b505050506040513d601f19601f820116820180604052508101906104a091906115f9565b905090565b6000600660008360048111156104bd576104bd611310565b60048111156104ce576104ce611310565b815260200190815260200160002054600760008460048111156104f3576104f3611310565b600481111561050457610504611310565b8152602001908152602001600020541061052057506000919050565b6007600083600481111561053657610536611310565b600481111561054757610547611310565b8152602001908152602001600020546006600084600481111561056c5761056c611310565b600481111561057d5761057d611310565b8152602001908152602001600020546105969190611628565b92915050565b6004546001600160a01b031633146105cf5760405162461bcd60e51b81526004016105c69061163b565b60405180910390fd5b6105d76111f9565b565b6004546001600160a01b031633146106035760405162461bcd60e51b81526004016105c69061163b565b6001600160a01b0382166106295760405162461bcd60e51b81526004016105c69061167c565b6001600160a01b03821660009081526008602052604081209082600481111561065457610654611310565b600481111561066557610665611310565b815260208101919091526040016000205460ff16156106d25760405162461bcd60e51b815260206004820152602360248201527f42656e656669636961727957616c6c65743a20416c726561647920617070726f6044820152621d995960ea1b60648201526084016105c6565b6001600160a01b03821660009081526008602052604081206001918360048111156106ff576106ff611310565b600481111561071057610710611310565b815260208101919091526040016000908120805460ff1916921515929092179091556001905b60095481101561079257836001600160a01b03166009828154811061075d5761075d6116bf565b6000918252602090912001546001600160a01b0316036107805760009150610792565b8061078a816116d5565b915050610736565b5080156107e557600980546001810182556000919091527f6e1540171b6c0c960b71a7020d9f60077f6af931a8bbf590da0223dacf75c7af0180546001600160a01b0319166001600160a01b0385161790555b826001600160a01b03167fe514158c560171b0281294f92504cc3c61ddd4828f20afd55551bab78b9994b283426040516108209291906116ee565b60405180910390a2505050565b6001600160a01b03821660009081526008602052604081208183600481111561085857610858611310565b600481111561086957610869611310565b815260208101919091526040016000205460ff169392505050565b61088c61124b565b60015461010090046001600160a01b031633146108f75760405162461bcd60e51b815260206004820152602360248201527f42656e656669636961727957616c6c65743a204f6e6c792062656e656669636960448201526261727960e81b60648201526084016105c6565b6108ff611275565b6001600160a01b0384166109255760405162461bcd60e51b81526004016105c69061167c565b6000831161098e5760405162461bcd60e51b815260206004820152603060248201527f42656e656669636961727957616c6c65743a20416d6f756e74206d757374206260448201526f0652067726561746572207468616e20360841b60648201526084016105c6565b6001600160a01b0384166000908152600860205260408120908360048111156109b9576109b9611310565b60048111156109ca576109ca611310565b815260208101919091526040016000205460ff16610a505760405162461bcd60e51b815260206004820152603a60248201527f42656e656669636961727957616c6c65743a204d65726368616e74206e6f742060448201527f617070726f76656420666f7220746869732063617465676f727900000000000060648201526084016105c6565b60066000836004811115610a6657610a66611310565b6004811115610a7757610a77611310565b815260200190815260200160002054831115610aee5760405162461bcd60e51b815260206004820152603060248201527f42656e656669636961727957616c6c65743a20416d6f756e742065786365656460448201526f1cc818d85d1959dbdc9e481b1a5b5a5d60821b60648201526084016105c6565b6002546040516370a0823160e01b815230600482015284916001600160a01b0316906370a0823190602401602060405180830381865afa158015610b36573d6000803e3d6000fd5b505050506040513d601f19601f82011682018060405250810190610b5a91906115f9565b1015610bb85760405162461bcd60e51b815260206004820152602760248201527f42656e656669636961727957616c6c65743a20496e73756666696369656e742060448201526662616c616e636560c81b60648201526084016105c6565b60025460405163a9059cbb60e01b81526001600160a01b038681166004830152602482018690529091169063a9059cbb906044016020604051808303816000875af1158015610c0b573d6000803e3d6000fd5b505050506040513d601f19601f82011682018060405250810190610c2f9190611709565b610c8c5760405162461bcd60e51b815260206004820152602860248201527f42656e656669636961727957616c6c65743a20546f6b656e207472616e7366656044820152671c8819985a5b195960c21b60648201526084016105c6565b82600a6000828254610c9e919061172b565b9091555083905060076000846004811115610cbb57610cbb611310565b6004811115610ccc57610ccc611310565b81526020019081526020016000206000828254610ce9919061172b565b9250508190555060056040518060a00160405280866001600160a01b03168152602001858152602001846004811115610d2457610d24611310565b8152602080820185905242604092830152835460018082018655600095865294829020845160059092020180546001600160a01b0319166001600160a01b03909216919091178155908301518185015590820151600282018054939492939192909160ff191690836004811115610d9d57610d9d611310565b021790555060608201516003820190610db6908261178d565b50608082015181600401555050836001600160a01b03167fb66bfc64b4488fe0613c82e850b9fa35e72e0b78b2555f050688dd65a099de7e84848442604051610e02949392919061184d565b60405180910390a2610e146001600055565b50505050565b6004546001600160a01b03163314610e445760405162461bcd60e51b81526004016105c69061163b565b6105d7611299565b60098181548110610e5c57600080fd5b6000918252602090912001546001600160a01b0316905081565b6003546001600160a01b03163314610ed05760405162461bcd60e51b815260206004820181905260248201527f42656e656669636961727957616c6c65743a204f6e6c792063616d706169676e60448201526064016105c6565b6040805182815242602082015233917f363f315f930a17d1266b86a20d6dd34b1cfbc5a9db9f13a65d06a689c3a2af8a910160405180910390a250565b6004546001600160a01b03163314610f375760405162461bcd60e51b81526004016105c69061163b565b6001600160a01b038216600090815260086020526040812090826004811115610f6257610f62611310565b6004811115610f7357610f73611310565b815260208101919091526040016000205460ff16610fe45760405162461bcd60e51b815260206004820152602860248201527f42656e656669636961727957616c6c65743a204d65726368616e74206e6f7420604482015267185c1c1c9bdd995960c21b60648201526084016105c6565b6001600160a01b03821660009081526008602052604081208183600481111561100f5761100f611310565b600481111561102057611020611310565b815260200190815260200160002060006101000a81548160ff021916908315150217905550816001600160a01b03167f413d12dcc1b730c91e285c404a7c38f6c762e9f09e7a677cb782cca66c985aba82426040516110809291906116ee565b60405180910390a25050565b606060098054806020026020016040519081016040528092919081815260200182805480156110e457602002820191906000526020600020905b81546001600160a01b031681526001909101906020018083116110c6575b5050505050905090565b6004546001600160a01b031633146111185760405162461bcd60e51b81526004016105c69061163b565b600081116111805760405162461bcd60e51b815260206004820152602f60248201527f42656e656669636961727957616c6c65743a204c696d6974206d75737420626560448201526e02067726561746572207468616e203608c1b60648201526084016105c6565b806006600084600481111561119757611197611310565b60048111156111a8576111a8611310565b8152602001908152602001600020819055507f2230f604890630c99e3846a0e0b80662b2f64cec414e836f61046ca441f76fec8282426040516111ed93929190611884565b60405180910390a15050565b6112016112d4565b6001805460ff191690557f5db9ee0a495bf2e6ff9c91a7834c1ba4fdd244a5e8aa4e537bd38aeae4b073aa335b6040516001600160a01b03909116815260200160405180910390a1565b60026000540361126e57604051633ee5aeb560e01b815260040160405180910390fd5b6002600055565b60015460ff16156105d75760405163d93c066560e01b815260040160405180910390fd5b6112a1611275565b6001805460ff1916811790557f62e78cea01bee320cd4e420270b5ea74000d11b0c9f74754ebdbfc544b05a2583361122e565b60015460ff166105d757604051638dfc202b60e01b815260040160405180910390fd5b60006020828403121561130957600080fd5b5035919050565b634e487b7160e01b600052602160045260246000fd5b6005811061134457634e487b7160e01b600052602160045260246000fd5b9052565b6000815180845260005b8181101561136e57602081850181015186830182015201611352565b506000602082860101526020601f19601f83011685010191505092915050565b6001600160a01b0386168152602081018590526113ae6040820185611326565b60a0606082015260006113c460a0830185611348565b90508260808301529695505050505050565b80356001600160a01b03811681146113ed57600080fd5b919050565b8035600581106113ed57600080fd5b6000806040838503121561141457600080fd5b61141d836113d6565b915061142b602084016113f2565b90509250929050565b60006020828403121561144657600080fd5b61144f826113f2565b9392505050565b634e487b7160e01b600052604160045260246000fd5b6000806000806080858703121561148257600080fd5b61148b856113d6565b9350602085013592506114a0604086016113f2565b9150606085013567ffffffffffffffff808211156114bd57600080fd5b818701915087601f8301126114d157600080fd5b8135818111156114e3576114e3611456565b604051601f8201601f19908116603f0116810190838211818310171561150b5761150b611456565b816040528281528a602084870101111561152457600080fd5b82602086016020830137600060208483010152809550505050505092959194509250565b6020808252825182820181905260009190848201906040850190845b818110156115895783516001600160a01b031683529284019291840191600101611564565b50909695505050505050565b600080604083850312156115a857600080fd5b6115b1836113f2565b946020939093013593505050565b600181811c908216806115d357607f821691505b6020821081036115f357634e487b7160e01b600052602260045260246000fd5b50919050565b60006020828403121561160b57600080fd5b5051919050565b634e487b7160e01b600052601160045260246000fd5b8181038181111561059657610596611612565b60208082526021908201527f42656e656669636961727957616c6c65743a204f6e6c79206f7267616e697a656040820152603960f91b606082015260800190565b60208082526023908201527f42656e656669636961727957616c6c65743a20496e76616c6964206d65726368604082015262185b9d60ea1b606082015260800190565b634e487b7160e01b600052603260045260246000fd5b6000600182016116e7576116e7611612565b5060010190565b604081016116fc8285611326565b8260208301529392505050565b60006020828403121561171b57600080fd5b8151801515811461144f57600080fd5b8082018082111561059657610596611612565b601f82111561178857600081815260208120601f850160051c810160208610156117655750805b601f850160051c820191505b8181101561178457828155600101611771565b5050505b505050565b815167ffffffffffffffff8111156117a7576117a7611456565b6117bb816117b584546115bf565b8461173e565b602080601f8311600181146117f057600084156117d85750858301515b600019600386901b1c1916600185901b178555611784565b600085815260208120601f198616915b8281101561181f57888601518255948401946001909101908401611800565b508582101561183d5787850151600019600388901b60f8161c191681555b5050505050600190811b01905550565b84815261185d6020820185611326565b6080604082015260006118736080830185611348565b905082606083015295945050505050565b606081016118928286611326565b60208201939093526040015291905056fea2646970667358221220f80c864ba84634e045a0616d240af73a6c7bfccc8b750c01998c2c16622d23f764736f6c6343000814003340a180796b90921dd8508eb434c78206ca5c737a0d584582edf399bc9711d9e9a2646970667358221220b82745f4baa489bad12240fdbb7737b3482907b1c36326b45a0a2f630fb4a38364736f6c63430008140033",
  "linkReferences": {},
  "deployedLinkReferences": {}
}