{
  "_format": "hh-sol-artifact-1",
  "contractName": "ReliefTokenSale",
  "sourceName": "contracts/ReliefTokenSale.sol",
  "abi": [
    {
      "inputs": [
        {
          "internalType": "address",
          "name": "_reliefToken",
          "type": "address"
        },
        {
          "internalType": "address",
          "name": "initialOwner",
          "type": "address"
        }
      ],
      "stateMutability": "nonpayable",
      "type": "constructor"
    },
    {
      "inputs": [],
      "name": "EnforcedPause",
      "type": "error"
    },
    {
      "inputs": [],
      "name": "ExpectedPause",
      "type": "error"
    },
    {
      "inputs": [
        {
          "internalType": "address",
          "name": "owner",
          "type": "address"
        }
      ],
      "name": "OwnableInvalidOwner",
      "type": "error"
    },
    {
      "inputs": [
        {
          "internalType": "address",
          "name": "account",
          "type": "address"
        }
      ],
      "name": "OwnableUnauthorizedAccount",
      "type": "error"
    },
    {
      "inputs": [],
      "name": "ReentrancyGuardReentrantCall",
      "type": "error"
    },
    {
      "anonymous": false,
      "inputs": [
        {
          "indexed": true,
          "internalType": "address",
          "name": "previousOwner",
          "type": "address"
        },
        {
          "indexed": true,
          "internalType": "address",
          "name": "newOwner",
          "type": "address"
        }
      ],
      "name": "OwnershipTransferred",
      "type": "event"
    },
    {
      "anonymous": false,
      "inputs": [
        {
          "indexed": false,
          "internalType": "address",
          "name": "account",
          "type": "address"
        }
      ],
      "name": "Paused",
      "type": "event"
    },
    {
      "anonymous": false,
      "inputs": [
        {
          "indexed": true,
          "internalType": "address",
          "name": "owner",
          "type": "address"
        },
        {
          "indexed": false,
          "internalType": "uint256",
          "name": "amount",
          "type": "uint256"
        }
      ],
      "name": "PolWithdrawn",
      "type": "event"
    },
    {
      "anonymous": false,
      "inputs": [
        {
          "indexed": true,
          "internalType": "address",
          "name": "buyer",
          "type": "address"
        },
        {
          "indexed": false,
          "internalType": "uint256",
          "name": "polAmount",
          "type": "uint256"
        },
        {
          "indexed": false,
          "internalType": "uint256",
          "name": "tokenAmount",
          "type": "uint256"
        },
        {
          "indexed": false,
          "internalType": "uint256",
          "name": "timestamp",
          "type": "uint256"
        }
      ],
      "name": "TokensPurchased",
      "type": "event"
    },
    {
      "anonymous": false,
      "inputs": [
        {
          "indexed": true,
          "internalType": "address",
          "name": "owner",
          "type": "address"
        },
        {
          "indexed": false,
          "internalType": "uint256",
          "name": "amount",
          "type": "uint256"
        }
      ],
      "name": "TokensWithdrawn",
      "type": "event"
    },
    {
      "anonymous": false,
      "inputs": [
        {
          "indexed": false,
          "internalType": "address",
          "name": "account",
          "type": "address"
        }
      ],
      "name": "Unpaused",
      "type": "event"
    },
    {
      "inputs": [],
      "name": "EXCHANGE_RATE",
      "outputs": [
        {
          "internalType": "uint256",
          "name": "",
          "type": "uint256"
        }
      ],
      "stateMutability": "view",
      "type": "function"
    },
    {
      "inputs": [],
      "name": "MAX_PURCHASE",
      "outputs": [
        {
          "internalType": "uint256",
          "name": "",
          "type": "uint256"
        }
      ],
      "stateMutability": "view",
      "type": "function"
    },
    {
      "inputs": [],
      "name": "MIN_PURCHASE",
      "outputs": [
        {
          "internalType": "uint256",
          "name": "",
          "type": "uint256"
        }
      ],
      "stateMutability": "view",
      "type": "function"
    },
    {
      "inputs": [],
      "name": "buyTokens",
      "outputs": [],
      "stateMutability": "payable",
      "type": "function"
    },
    {
      "inputs": [
        {
          "internalType": "uint256",
          "name": "polAmount",
          "type": "uint256"
        }
      ],
      "name": "calculateTokenAmount",
      "outputs": [
        {
          "internalType": "uint256",
          "name": "",
          "type": "uint256"
        }
      ],
      "stateMutability": "pure",
      "type": "function"
    },
    {
      "inputs": [],
      "name": "getAvailableTokens",
      "outputs": [
        {
          "internalType": "uint256",
          "name": "",
          "type": "uint256"
        }
      ],
      "stateMutability": "view",
      "type": "function"
    },
    {
      "inputs": [
        {
          "internalType": "address",
          "name": "buyer",
          "type": "address"
        }
      ],
      "name": "getPurchaseInfo",
      "outputs": [
        {
          "internalType": "uint256",
          "name": "",
          "type": "uint256"
        }
      ],
      "stateMutability": "view",
      "type": "function"
    },
    {
      "inputs": [],
      "name": "owner",
      "outputs": [
        {
          "internalType": "address",
          "name": "",
          "type": "address"
        }
      ],
      "stateMutability": "view",
      "type": "function"
    },
    {
      "inputs": [],
      "name": "pause",
      "outputs": [],
      "stateMutability": "nonpayable",
      "type": "function"
    },
    {
      "inputs": [],
      "name": "paused",
      "outputs": [
        {
          "internalType": "bool",
          "name": "",
          "type": "bool"
        }
      ],
      "stateMutability": "view",
      "type": "function"
    },
    {
      "inputs": [
        {
          "internalType": "address",
          "name": "",
          "type": "address"
        }
      ],
      "name": "purchases",
      "outputs": [
        {
          "internalType": "uint256",
          "name": "",
          "type": "uint256"
        }
      ],
      "stateMutability": "view",
      "type": "function"
    },
    {
      "inputs": [],
      "name": "reliefToken",
      "outputs": [
        {
          "internalType": "contract IERC20",
          "name": "",
          "type": "address"
        }
      ],
      "stateMutability": "view",
      "type": "function"
    },
    {
      "inputs": [],
      "name": "renounceOwnership",
      "outputs": [],
      "stateMutability": "nonpayable",
      "type": "function"
    },
    {
      "inputs": [],
      "name": "totalRaised",
      "outputs": [
        {
          "internalType": "uint256",
          "name": "",
          "type": "uint256"
        }
      ],
      "stateMutability": "view",
      "type": "function"
    },
    {
      "inputs": [],
      "name": "totalTokensSold",
      "outputs": [
        {
          "internalType": "uint256",
          "name": "",
          "type": "uint256"
        }
      ],
      "stateMutability": "view",
      "type": "function"
    },
    {
      "inputs": [
        {
          "internalType": "address",
          "name": "newOwner",
          "type": "address"
        }
      ],
      "name": "transferOwnership",
      "outputs": [],
      "stateMutability": "nonpayable",
      "type": "function"
    },
    {
      "inputs": [],
      "name": "unpause",
      "outputs": [],
      "stateMutability": "nonpayable",
      "type": "function"
    },
    {
      "inputs": [],
      "name": "withdrawPol",
      "outputs": [],
      "stateMutability": "nonpayable",
      "type": "function"
    },
    {
      "inputs": [
        {
          "internalType": "uint256",
          "name": "amount",
          "type": "uint256"
        }
      ],
      "name": "withdrawUnsoldTokens",
      "outputs": [],
      "stateMutability": "nonpayable",
      "type": "function"
    },
    {
      "stateMutability": "payable",
      "type": "receive"
    }
  ],
  "bytecode": "0x608060405234801561001057600080fd5b50604051620011703803806200117083398101604081905261003191610176565b806001600160a01b03811661006157604051631e4fbdf760e01b8152600060048201526024015b60405180910390fd5b61006a8161010a565b50600180556002805460ff191690556001600160a01b0382166100de5760405162461bcd60e51b815260206004820152602660248201527f52656c696566546f6b656e53616c653a20496e76616c696420746f6b656e206160448201526564647265737360d01b6064820152608401610058565b50600280546001600160a01b0390921661010002610100600160a81b03199092169190911790556101a9565b600080546001600160a01b038381166001600160a01b0319831681178455604051919092169283917f8be0079c531659141344cd1fd0a4f28419497f9722a3daafe3b4186f6b6457e09190a35050565b80516001600160a01b038116811461017157600080fd5b919050565b6000806040838503121561018957600080fd5b6101928361015a565b91506101a06020840161015a565b90509250929050565b610fb780620001b96000396000f3fe6080604052600436106101185760003560e01c8063842a77d3116100a0578063d0febe4c11610064578063d0febe4c146104fc578063d439390c14610504578063e35568cb1461051f578063eb5d1c3914610534578063f2fde38b1461056a57600080fd5b8063842a77d3146104665780638456cb59146104935780638da5cb5b146104a8578063a24bcf46146104c6578063c5c4744c146104e657600080fd5b80635024f381116100e75780635024f381146103bd5780635c975abb146103fa57806363b201171461041d5780637146bd0814610433578063715018a61461045157600080fd5b806314a8bd0d1461034957806328c0b94e146103715780633f4ba83a1461038857806345f085a61461039d57600080fd5b3661034457662386f26fc1000034101561014d5760405162461bcd60e51b815260040161014490610d9b565b60405180910390fd5b69021e19e0c9bab24000003411156101775760405162461bcd60e51b815260040161014490610de0565b6000610184600134610e3d565b6002546040516370a0823160e01b815230600482015291925082916101009091046001600160a01b0316906370a0823190602401602060405180830381865afa1580156101d5573d6000803e3d6000fd5b505050506040513d601f19601f820116820180604052508101906101f99190610e54565b10156102175760405162461bcd60e51b815260040161014490610e6d565b34600360008282546102299190610ebd565b9250508190555080600460008282546102429190610ebd565b90915550503360009081526005602052604081208054839290610266908490610ebd565b909155505060025460405163a9059cbb60e01b8152336004820152602481018390526101009091046001600160a01b03169063a9059cbb906044016020604051808303816000875af11580156102c0573d6000803e3d6000fd5b505050506040513d601f19601f820116820180604052508101906102e49190610ed0565b6103005760405162461bcd60e51b815260040161014490610ef9565b60408051348152602081018390524281830152905133917f0d1a0d5e3d583a0e92588799dd06e50fd78c07daf05f0cc06d7b848b1ca445f1919081900360600190a2005b600080fd5b34801561035557600080fd5b5061035e600181565b6040519081526020015b60405180910390f35b34801561037d57600080fd5b5061038661058a565b005b34801561039457600080fd5b506103866106fe565b3480156103a957600080fd5b506103866103b8366004610f3f565b61070e565b3480156103c957600080fd5b506002546103e29061010090046001600160a01b031681565b6040516001600160a01b039091168152602001610368565b34801561040657600080fd5b5060025460ff166040519015158152602001610368565b34801561042957600080fd5b5061035e60045481565b34801561043f57600080fd5b5061035e69021e19e0c9bab240000081565b34801561045d57600080fd5b50610386610901565b34801561047257600080fd5b5061035e610481366004610f58565b60056020526000908152604090205481565b34801561049f57600080fd5b50610386610913565b3480156104b457600080fd5b506000546001600160a01b03166103e2565b3480156104d257600080fd5b5061035e6104e1366004610f3f565b610923565b3480156104f257600080fd5b5061035e60035481565b610386610936565b34801561051057600080fd5b5061035e662386f26fc1000081565b34801561052b57600080fd5b5061035e610b6c565b34801561054057600080fd5b5061035e61054f366004610f58565b6001600160a01b031660009081526005602052604090205490565b34801561057657600080fd5b50610386610585366004610f58565b610be3565b610592610c1e565b61059a610c4b565b47806105f45760405162461bcd60e51b815260206004820152602360248201527f52656c696566546f6b656e53616c653a204e6f20504f4c20746f20776974686460448201526272617760e81b6064820152608401610144565b600080546040516001600160a01b039091169083908381818185875af1925050503d8060008114610641576040519150601f19603f3d011682016040523d82523d6000602084013e610646565b606091505b50509050806106a35760405162461bcd60e51b8152602060048201526024808201527f52656c696566546f6b656e53616c653a20504f4c207472616e736665722066616044820152631a5b195960e21b6064820152608401610144565b6000546001600160a01b03166001600160a01b03167f0f1ac864c9e87b01b4708c4247ff6a28b60d97c230406fba84d224c7a1a602ef836040516106e991815260200190565b60405180910390a250506106fc60018055565b565b610706610c1e565b6106fc610c75565b610716610c1e565b61071e610c4b565b6002546040516370a0823160e01b8152306004820152829161010090046001600160a01b0316906370a0823190602401602060405180830381865afa15801561076b573d6000803e3d6000fd5b505050506040513d601f19601f8201168201806040525081019061078f9190610e54565b10156107f15760405162461bcd60e51b815260206004820152602b60248201527f52656c696566546f6b656e53616c653a20496e73756666696369656e7420746f60448201526a6b656e2062616c616e636560a81b6064820152608401610144565b6002546001600160a01b036101009091041663a9059cbb61081a6000546001600160a01b031690565b6040516001600160e01b031960e084901b1681526001600160a01b039091166004820152602481018490526044016020604051808303816000875af1158015610867573d6000803e3d6000fd5b505050506040513d601f19601f8201168201806040525081019061088b9190610ed0565b6108a75760405162461bcd60e51b815260040161014490610ef9565b6000546001600160a01b03166001600160a01b03167f6352c5382c4a4578e712449ca65e83cdb392d045dfcf1cad9615189db2da244b826040516108ed91815260200190565b60405180910390a26108fe60018055565b50565b610909610c1e565b6106fc6000610cc7565b61091b610c1e565b6106fc610d17565b6000610930600183610e3d565b92915050565b61093e610c4b565b610946610d54565b662386f26fc1000034101561096d5760405162461bcd60e51b815260040161014490610d9b565b69021e19e0c9bab24000003411156109975760405162461bcd60e51b815260040161014490610de0565b60006109a4600134610e3d565b6002546040516370a0823160e01b815230600482015291925082916101009091046001600160a01b0316906370a0823190602401602060405180830381865afa1580156109f5573d6000803e3d6000fd5b505050506040513d601f19601f82011682018060405250810190610a199190610e54565b1015610a375760405162461bcd60e51b815260040161014490610e6d565b3460036000828254610a499190610ebd565b925050819055508060046000828254610a629190610ebd565b90915550503360009081526005602052604081208054839290610a86908490610ebd565b909155505060025460405163a9059cbb60e01b8152336004820152602481018390526101009091046001600160a01b03169063a9059cbb906044016020604051808303816000875af1158015610ae0573d6000803e3d6000fd5b505050506040513d601f19601f82011682018060405250810190610b049190610ed0565b610b205760405162461bcd60e51b815260040161014490610ef9565b60408051348152602081018390524281830152905133917f0d1a0d5e3d583a0e92588799dd06e50fd78c07daf05f0cc06d7b848b1ca445f1919081900360600190a2506106fc60018055565b6002546040516370a0823160e01b815230600482015260009161010090046001600160a01b0316906370a0823190602401602060405180830381865afa158015610bba573d6000803e3d6000fd5b505050506040513d601f19601f82011682018060405250810190610bde9190610e54565b905090565b610beb610c1e565b6001600160a01b038116610c1557604051631e4fbdf760e01b815260006004820152602401610144565b6108fe81610cc7565b6000546001600160a01b031633146106fc5760405163118cdaa760e01b8152336004820152602401610144565b600260015403610c6e57604051633ee5aeb560e01b815260040160405180910390fd5b6002600155565b610c7d610d78565b6002805460ff191690557f5db9ee0a495bf2e6ff9c91a7834c1ba4fdd244a5e8aa4e537bd38aeae4b073aa335b6040516001600160a01b03909116815260200160405180910390a1565b600080546001600160a01b038381166001600160a01b0319831681178455604051919092169283917f8be0079c531659141344cd1fd0a4f28419497f9722a3daafe3b4186f6b6457e09190a35050565b610d1f610d54565b6002805460ff191660011790557f62e78cea01bee320cd4e420270b5ea74000d11b0c9f74754ebdbfc544b05a258610caa3390565b60025460ff16156106fc5760405163d93c066560e01b815260040160405180910390fd5b60025460ff166106fc57604051638dfc202b60e01b815260040160405180910390fd5b60208082526025908201527f52656c696566546f6b656e53616c653a20416d6f756e742062656c6f77206d696040820152646e696d756d60d81b606082015260800190565b60208082526027908201527f52656c696566546f6b656e53616c653a20416d6f756e742065786365656473206040820152666d6178696d756d60c81b606082015260800190565b634e487b7160e01b600052601160045260246000fd5b808202811582820484141761093057610930610e27565b600060208284031215610e6657600080fd5b5051919050565b60208082526030908201527f52656c696566546f6b656e53616c653a20496e73756666696369656e7420746f60408201526f1ad95b9cc81a5b8818dbdb9d1c9858dd60821b606082015260800190565b8082018082111561093057610930610e27565b600060208284031215610ee257600080fd5b81518015158114610ef257600080fd5b9392505050565b60208082526026908201527f52656c696566546f6b656e53616c653a20546f6b656e207472616e736665722060408201526519985a5b195960d21b606082015260800190565b600060208284031215610f5157600080fd5b5035919050565b600060208284031215610f6a57600080fd5b81356001600160a01b0381168114610ef257600080fdfea26469706673582212209dfde1989ead33c111da6126061324e48edcbddf4da2b8c04b8d6f19880ad24064736f6c63430008140033",
  "linkReferences": {},
  "deployedLinkReferences": {}
}