{
  "_format": "hh-sol-artifact-1",
  "contractName": "ReliefToken",
  "sourceName": "contracts/ReliefToken.sol",
  "abi": [
    {
      "inputs": [
        {
          "internalType": "address",
          "name": "initialOwner",
          "type": "address"
        }
      ],
      "stateMutability": "nonpayable",
      "type": "constructor"
    },
    {
      "inputs": [
        {
          "internalType": "address",
          "name": "spender",
          "type": "address"
        },
        {
          "internalType": "uint256",
          "name": "allowance",
          "type": "uint256"
        },
        {
          "internalType": "uint256",
          "name": "needed",
          "type": "uint256"
        }
      ],
      "name": "ERC20InsufficientAllowance",
      "type": "error"
    },
    {
      "inputs": [
        {
          "internalType": "address",
          "name": "sender",
          "type": "address"
        },
        {
          "internalType": "uint256",
          "name": "balance",
          "type": "uint256"
        },
        {
          "internalType": "uint256",
          "name": "needed",
          "type": "uint256"
        }
      ],
      "name": "ERC20InsufficientBalance",
      "type": "error"
    },
    {
      "inputs": [
        {
          "internalType": "address",
          "name": "approver",
          "type": "address"
        }
      ],
      "name": "ERC20InvalidApprover",
      "type": "error"
    },
    {
      "inputs": [
        {
          "internalType": "address",
          "name": "receiver",
          "type": "address"
        }
      ],
      "name": "ERC20InvalidReceiver",
      "type": "error"
    },
    {
      "inputs": [
        {
          "internalType": "address",
          "name": "sender",
          "type": "address"
        }
      ],
      "name": "ERC20InvalidSender",
      "type": "error"
    },
    {
      "inputs": [
        {
          "internalType": "address",
          "name": "spender",
          "type": "address"
        }
      ],
      "name": "ERC20InvalidSpender",
      "type": "error"
    },
    {
      "inputs": [],
      "name": "EnforcedPause",
      "type": "error"
    },
    {
      "inputs": [],
      "name": "ExpectedPause",
      "type": "error"
    },
    {
      "inputs": [
        {
          "internalType": "address",
          "name": "owner",
          "type": "address"
        }
      ],
      "name": "OwnableInvalidOwner",
      "type": "error"
    },
    {
      "inputs": [
        {
          "internalType": "address",
          "name": "account",
          "type": "address"
        }
      ],
      "name": "OwnableUnauthorizedAccount",
      "type": "error"
    },
    {
      "anonymous": false,
      "inputs": [
        {
          "indexed": true,
          "internalType": "address",
          "name": "owner",
          "type": "address"
        },
        {
          "indexed": true,
          "internalType": "address",
          "name": "spender",
          "type": "address"
        },
        {
          "indexed": false,
          "internalType": "uint256",
          "name": "value",
          "type": "uint256"
        }
      ],
      "name": "Approval",
      "type": "event"
    },
    {
      "anonymous": false,
      "inputs": [
        {
          "indexed": true,
          "internalType": "address",
          "name": "previousOwner",
          "type": "address"
        },
        {
          "indexed": true,
          "internalType": "address",
          "name": "newOwner",
          "type": "address"
        }
      ],
      "name": "OwnershipTransferred",
      "type": "event"
    },
    {
      "anonymous": false,
      "inputs": [
        {
          "indexed": false,
          "internalType": "address",
          "name": "account",
          "type": "address"
        }
      ],
      "name": "Paused",
      "type": "event"
    },
    {
      "anonymous": false,
      "inputs": [
        {
          "indexed": true,
          "internalType": "address",
          "name": "from",
          "type": "address"
        },
        {
          "indexed": false,
          "internalType": "uint256",
          "name": "amount",
          "type": "uint256"
        }
      ],
      "name": "TokensBurned",
      "type": "event"
    },
    {
      "anonymous": false,
      "inputs": [
        {
          "indexed": true,
          "internalType": "address",
          "name": "to",
          "type": "address"
        },
        {
          "indexed": false,
          "internalType": "uint256",
          "name": "amount",
          "type": "uint256"
        }
      ],
      "name": "TokensMinted",
      "type": "event"
    },
    {
      "anonymous": false,
      "inputs": [
        {
          "indexed": true,
          "internalType": "address",
          "name": "from",
          "type": "address"
        },
        {
          "indexed": true,
          "internalType": "address",
          "name": "to",
          "type": "address"
        },
        {
          "indexed": false,
          "internalType": "uint256",
          "name": "value",
          "type": "uint256"
        }
      ],
      "name": "Transfer",
      "type": "event"
    },
    {
      "anonymous": false,
      "inputs": [
        {
          "indexed": false,
          "internalType": "address",
          "name": "account",
          "type": "address"
        }
      ],
      "name": "Unpaused",
      "type": "event"
    },
    {
      "inputs": [],
      "name": "MAX_SUPPLY",
      "outputs": [
        {
          "internalType": "uint256",
          "name": "",
          "type": "uint256"
        }
      ],
      "stateMutability": "view",
      "type": "function"
    },
    {
      "inputs": [
        {
          "internalType": "address",
          "name": "owner",
          "type": "address"
        },
        {
          "internalType": "address",
          "name": "spender",
          "type": "address"
        }
      ],
      "name": "allowance",
      "outputs": [
        {
          "internalType": "uint256",
          "name": "",
          "type": "uint256"
        }
      ],
      "stateMutability": "view",
      "type": "function"
    },
    {
      "inputs": [
        {
          "internalType": "address",
          "name": "spender",
          "type": "address"
        },
        {
          "internalType": "uint256",
          "name": "value",
          "type": "uint256"
        }
      ],
      "name": "approve",
      "outputs": [
        {
          "internalType": "bool",
          "name": "",
          "type": "bool"
        }
      ],
      "stateMutability": "nonpayable",
      "type": "function"
    },
    {
      "inputs": [
        {
          "internalType": "address",
          "name": "account",
          "type": "address"
        }
      ],
      "name": "balanceOf",
      "outputs": [
        {
          "internalType": "uint256",
          "name": "",
          "type": "uint256"
        }
      ],
      "stateMutability": "view",
      "type": "function"
    },
    {
      "inputs": [
        {
          "internalType": "uint256",
          "name": "amount",
          "type": "uint256"
        }
      ],
      "name": "burn",
      "outputs": [],
      "stateMutability": "nonpayable",
      "type": "function"
    },
    {
      "inputs": [
        {
          "internalType": "address",
          "name": "account",
          "type": "address"
        },
        {
          "internalType": "uint256",
          "name": "amount",
          "type": "uint256"
        }
      ],
      "name": "burnFrom",
      "outputs": [],
      "stateMutability": "nonpayable",
      "type": "function"
    },
    {
      "inputs": [],
      "name": "decimals",
      "outputs": [
        {
          "internalType": "uint8",
          "name": "",
          "type": "uint8"
        }
      ],
      "stateMutability": "view",
      "type": "function"
    },
    {
      "inputs": [
        {
          "internalType": "address",
          "name": "to",
          "type": "address"
        },
        {
          "internalType": "uint256",
          "name": "amount",
          "type": "uint256"
        }
      ],
      "name": "mint",
      "outputs": [],
      "stateMutability": "nonpayable",
      "type": "function"
    },
    {
      "inputs": [],
      "name": "name",
      "outputs": [
        {
          "internalType": "string",
          "name": "",
          "type": "string"
        }
      ],
      "stateMutability": "view",
      "type": "function"
    },
    {
      "inputs": [],
      "name": "owner",
      "outputs": [
        {
          "internalType": "address",
          "name": "",
          "type": "address"
        }
      ],
      "stateMutability": "view",
      "type": "function"
    },
    {
      "inputs": [],
      "name": "pause",
      "outputs": [],
      "stateMutability": "nonpayable",
      "type": "function"
    },
    {
      "inputs": [],
      "name": "paused",
      "outputs": [
        {
          "internalType": "bool",
          "name": "",
          "type": "bool"
        }
      ],
      "stateMutability": "view",
      "type": "function"
    },
    {
      "inputs": [],
      "name": "renounceOwnership",
      "outputs": [],
      "stateMutability": "nonpayable",
      "type": "function"
    },
    {
      "inputs": [],
      "name": "symbol",
      "outputs": [
        {
          "internalType": "string",
          "name": "",
          "type": "string"
        }
      ],
      "stateMutability": "view",
      "type": "function"
    },
    {
      "inputs": [],
      "name": "totalSupply",
      "outputs": [
        {
          "internalType": "uint256",
          "name": "",
          "type": "uint256"
        }
      ],
      "stateMutability": "view",
      "type": "function"
    },
    {
      "inputs": [
        {
          "internalType": "address",
          "name": "to",
          "type": "address"
        },
        {
          "internalType": "uint256",
          "name": "value",
          "type": "uint256"
        }
      ],
      "name": "transfer",
      "outputs": [
        {
          "internalType": "bool",
          "name": "",
          "type": "bool"
        }
      ],
      "stateMutability": "nonpayable",
      "type": "function"
    },
    {
      "inputs": [
        {
          "internalType": "address",
          "name": "from",
          "type": "address"
        },
        {
          "internalType": "address",
          "name": "to",
          "type": "address"
        },
        {
          "internalType": "uint256",
          "name": "value",
          "type": "uint256"
        }
      ],
      "name": "transferFrom",
      "outputs": [
        {
          "internalType": "bool",
          "name": "",
          "type": "bool"
        }
      ],
      "stateMutability": "nonpayable",
      "type": "function"
    },
    {
      "inputs": [
        {
          "internalType": "address",
          "name": "newOwner",
          "type": "address"
        }
      ],
      "name": "transferOwnership",
      "outputs": [],
      "stateMutability": "nonpayable",
      "type": "function"
    },
    {
      "inputs": [],
      "name": "unpause",
      "outputs": [],
      "stateMutability": "nonpayable",
      "type": "function"
    }
  ],
  "bytecode": "0x60806040523480156200001157600080fd5b506040516200117a3803806200117a833981016040819052620000349162000366565b806040518060400160405280600c81526020016b2932b634b2b3102a37b5b2b760a11b815250604051806040016040528060068152602001652922a624a2a360d11b81525081600390816200008a91906200043c565b5060046200009982826200043c565b5050506001600160a01b038116620000cc57604051631e4fbdf760e01b8152600060048201526024015b60405180910390fd5b620000d78162000152565b506005805460ff60a01b19169055620000fc816a084595161401484a000000620001a4565b806001600160a01b03167f3f2c9d57c068687834f0de942a9babb9e5acab57d516d3480a3c16ee165a42736a084595161401484a0000006040516200014391815260200190565b60405180910390a25062000530565b600580546001600160a01b038381166001600160a01b0319831681179093556040519116919082907f8be0079c531659141344cd1fd0a4f28419497f9722a3daafe3b4186f6b6457e090600090a35050565b6001600160a01b038216620001d05760405163ec442f0560e01b815260006004820152602401620000c3565b620001de60008383620001e2565b5050565b620001ec620001fe565b620001f983838362000233565b505050565b62000212600554600160a01b900460ff1690565b15620002315760405163d93c066560e01b815260040160405180910390fd5b565b6001600160a01b0383166200026257806002600082825462000256919062000508565b90915550620002d69050565b6001600160a01b03831660009081526020819052604090205481811015620002b75760405163391434e360e21b81526001600160a01b03851660048201526024810182905260448101839052606401620000c3565b6001600160a01b03841660009081526020819052604090209082900390555b6001600160a01b038216620002f45760028054829003905562000313565b6001600160a01b03821660009081526020819052604090208054820190555b816001600160a01b0316836001600160a01b03167fddf252ad1be2c89b69c2b068fc378daa952ba7f163c4a11628f55a4df523b3ef836040516200035991815260200190565b60405180910390a3505050565b6000602082840312156200037957600080fd5b81516001600160a01b03811681146200039157600080fd5b9392505050565b634e487b7160e01b600052604160045260246000fd5b600181811c90821680620003c357607f821691505b602082108103620003e457634e487b7160e01b600052602260045260246000fd5b50919050565b601f821115620001f957600081815260208120601f850160051c81016020861015620004135750805b601f850160051c820191505b8181101562000434578281556001016200041f565b505050505050565b81516001600160401b0381111562000458576200045862000398565b6200047081620004698454620003ae565b84620003ea565b602080601f831160018114620004a857600084156200048f5750858301515b600019600386901b1c1916600185901b17855562000434565b600085815260208120601f198616915b82811015620004d957888601518255948401946001909101908401620004b8565b5085821015620004f85787850151600019600388901b60f8161c191681555b5050505050600190811b01905550565b808201808211156200052a57634e487b7160e01b600052601160045260246000fd5b92915050565b610c3a80620005406000396000f3fe608060405234801561001057600080fd5b50600436106101215760003560e01c80635c975abb116100ad5780638da5cb5b116100715780638da5cb5b1461023b57806395d89b4114610256578063a9059cbb1461025e578063dd62ed3e14610271578063f2fde38b146102aa57600080fd5b80635c975abb146101dd57806370a08231146101ef578063715018a61461021857806379cc6790146102205780638456cb591461023357600080fd5b8063313ce567116100f4578063313ce5671461018c57806332cb6b0c1461019b5780633f4ba83a146101ad57806340c10f19146101b757806342966c68146101ca57600080fd5b806306fdde0314610126578063095ea7b31461014457806318160ddd1461016757806323b872dd14610179575b600080fd5b61012e6102bd565b60405161013b9190610a6b565b60405180910390f35b610157610152366004610ad5565b61034f565b604051901515815260200161013b565b6002545b60405190815260200161013b565b610157610187366004610aff565b610369565b6040516012815260200161013b565b61016b6a084595161401484a00000081565b6101b561038d565b005b6101b56101c5366004610ad5565b61039f565b6101b56101d8366004610b3b565b61046b565b600554600160a01b900460ff16610157565b61016b6101fd366004610b54565b6001600160a01b031660009081526020819052604090205490565b6101b56104ac565b6101b561022e366004610ad5565b6104be565b6101b5610503565b6005546040516001600160a01b03909116815260200161013b565b61012e610513565b61015761026c366004610ad5565b610522565b61016b61027f366004610b76565b6001600160a01b03918216600090815260016020908152604080832093909416825291909152205490565b6101b56102b8366004610b54565b610530565b6060600380546102cc90610ba9565b80601f01602080910402602001604051908101604052809291908181526020018280546102f890610ba9565b80156103455780601f1061031a57610100808354040283529160200191610345565b820191906000526020600020905b81548152906001019060200180831161032857829003601f168201915b5050505050905090565b60003361035d81858561056e565b60019150505b92915050565b600033610377858285610580565b6103828585856105ff565b506001949350505050565b61039561065e565b61039d61068b565b565b6103a761065e565b6a084595161401484a000000816103bd60025490565b6103c79190610be3565b111561041a5760405162461bcd60e51b815260206004820152601f60248201527f52656c696566546f6b656e3a2045786365656473206d617820737570706c790060448201526064015b60405180910390fd5b61042482826106e0565b816001600160a01b03167f3f2c9d57c068687834f0de942a9babb9e5acab57d516d3480a3c16ee165a42738260405161045f91815260200190565b60405180910390a25050565b6104748161071a565b60405181815233907ffd38818f5291bf0bb3a2a48aadc06ba8757865d1dabd804585338aab3009dcb69060200160405180910390a250565b6104b461065e565b61039d6000610724565b6104c88282610776565b816001600160a01b03167ffd38818f5291bf0bb3a2a48aadc06ba8757865d1dabd804585338aab3009dcb68260405161045f91815260200190565b61050b61065e565b61039d61078b565b6060600480546102cc90610ba9565b60003361035d8185856105ff565b61053861065e565b6001600160a01b03811661056257604051631e4fbdf760e01b815260006004820152602401610411565b61056b81610724565b50565b61057b83838360016107ce565b505050565b6001600160a01b038381166000908152600160209081526040808320938616835292905220546000198110156105f957818110156105ea57604051637dc7a0d960e11b81526001600160a01b03841660048201526024810182905260448101839052606401610411565b6105f9848484840360006107ce565b50505050565b6001600160a01b03831661062957604051634b637e8f60e11b815260006004820152602401610411565b6001600160a01b0382166106535760405163ec442f0560e01b815260006004820152602401610411565b61057b8383836108a3565b6005546001600160a01b0316331461039d5760405163118cdaa760e01b8152336004820152602401610411565b6106936108b6565b6005805460ff60a01b191690557f5db9ee0a495bf2e6ff9c91a7834c1ba4fdd244a5e8aa4e537bd38aeae4b073aa335b6040516001600160a01b03909116815260200160405180910390a1565b6001600160a01b03821661070a5760405163ec442f0560e01b815260006004820152602401610411565b610716600083836108a3565b5050565b61056b33826108e0565b600580546001600160a01b038381166001600160a01b0319831681179093556040519116919082907f8be0079c531659141344cd1fd0a4f28419497f9722a3daafe3b4186f6b6457e090600090a35050565b610781823383610580565b61071682826108e0565b610793610916565b6005805460ff60a01b1916600160a01b1790557f62e78cea01bee320cd4e420270b5ea74000d11b0c9f74754ebdbfc544b05a2586106c33390565b6001600160a01b0384166107f85760405163e602df0560e01b815260006004820152602401610411565b6001600160a01b03831661082257604051634a1406b160e11b815260006004820152602401610411565b6001600160a01b03808516600090815260016020908152604080832093871683529290522082905580156105f957826001600160a01b0316846001600160a01b03167f8c5be1e5ebec7d5bd14f71427d1e84f3dd0314c0f7b2291e5b200ac8c7c3b9258460405161089591815260200190565b60405180910390a350505050565b6108ab610916565b61057b838383610941565b600554600160a01b900460ff1661039d57604051638dfc202b60e01b815260040160405180910390fd5b6001600160a01b03821661090a57604051634b637e8f60e11b815260006004820152602401610411565b610716826000836108a3565b600554600160a01b900460ff161561039d5760405163d93c066560e01b815260040160405180910390fd5b6001600160a01b03831661096c5780600260008282546109619190610be3565b909155506109de9050565b6001600160a01b038316600090815260208190526040902054818110156109bf5760405163391434e360e21b81526001600160a01b03851660048201526024810182905260448101839052606401610411565b6001600160a01b03841660009081526020819052604090209082900390555b6001600160a01b0382166109fa57600280548290039055610a19565b6001600160a01b03821660009081526020819052604090208054820190555b816001600160a01b0316836001600160a01b03167fddf252ad1be2c89b69c2b068fc378daa952ba7f163c4a11628f55a4df523b3ef83604051610a5e91815260200190565b60405180910390a3505050565b600060208083528351808285015260005b81811015610a9857858101830151858201604001528201610a7c565b506000604082860101526040601f19601f8301168501019250505092915050565b80356001600160a01b0381168114610ad057600080fd5b919050565b60008060408385031215610ae857600080fd5b610af183610ab9565b946020939093013593505050565b600080600060608486031215610b1457600080fd5b610b1d84610ab9565b9250610b2b60208501610ab9565b9150604084013590509250925092565b600060208284031215610b4d57600080fd5b5035919050565b600060208284031215610b6657600080fd5b610b6f82610ab9565b9392505050565b60008060408385031215610b8957600080fd5b610b9283610ab9565b9150610ba060208401610ab9565b90509250929050565b600181811c90821680610bbd57607f821691505b602082108103610bdd57634e487b7160e01b600052602260045260246000fd5b50919050565b8082018082111561036357634e487b7160e01b600052601160045260246000fdfea2646970667358221220d88de86492e89e76d75551cc700a824cbb271087153767a50f6072e69530a07664736f6c63430008140033",
  "linkReferences": {},
  "deployedLinkReferences": {}
}